:100000000C9434000C943E000C943E000C943E0082
:100010000C943E000C943E000C943E000C943E0068
:100020000C943E000C943E000C943E000C943E0058
:100030000C943E000C943E000C943E000C943E0048
:100040000C943E000C943E000C943E000C943E0038
:100050000C943E000C943E000C943E000C943E0028
:100060000C943E000C943E0011241FBECFEFD8E04C
:10007000DEBFCDBF0E9440000C9453000C940000E2
:1000800017B818B8A3EBB0E091E0E6EBF0E083B767
:10009000816083BF83B7866083BF9C93808183FD2B
:0A00A000FDCF8895F4CFF894FFCF50
:00000001FF
