S01100004541444F474C3132382E73726563CC
S11300000C94D3010C94F0010C94F0010C94F001C5
S11300100C94F0010C94F0010C94F0010C94F00198
S11300200C94F0010C94F0010C94F0010C94F00188
S11300300C94F0010C94F0010C94F0010C94F00178
S11300400C94F0010C94F0010C94F0010C94F00168
S11300500C94F0010C94F0010C94F0010C94F00158
S11300600C94F0010C94F0018003C001C007E0037C
S1130070C007E003C007E0038003C001140E13149B
S113008014121414141400F00F0000FFFF07E0FF13
S1130090FF0FF0FFFF1FF80FF03F7C00007F1E00F2
S11300A000780F0000F0070000E0070000E0070000
S11300B000E0070000E00F0000F01E0000787C0064
S11300C0007FF80FF03FF0FFFF1FE0FFFF0F00FF7E
S11300D0FF0700F00F0010000000100000001800DF
S11300E00070180000701C0000701C000070FCFF01
S11300F0FF7FFEFFFF7FFEFFFF7FFEFFFF7F00000D
S1130100007000000070000000700000007000002B
S113011000000000000000000000000000000000DB
S113012000000000000000000070FC010078FC01E9
S1130130007C7E00007E1E00007F0E00807F0E008B
S1130140C0770700E0730700F0710700F87007003C
S11301507C700E003E701E001F701E800F703CC02D
S11301600770FCF00370F8FF0170F0FF0070E07F8F
S113017000700000000000000000FC01803FFC0152
S1130180807F7E00007E1E0000780E8000F006C096
S113019001E007C001E007C001E007E001E00EE074
S11301A001E00EF001703EFE0370FCFF0778FC9F37
S11301B01F3EF88FFF3FF003FF1F0000FE0F0000FB
S11301C0F803000000000000700000007800000048
S11301D07C0000007F000080770000E0710000F0E8
S11301E07000003C7000001E700000077070C003B7
S11301F07070E0007070F8FFFF7FFCFFFF7FFEFF70
S1130200FF7FFEFFFF7F0000707000007070000031
S113021070700000700000000030FEFF0070FEFFF0
S11302200060FEFF00600EF000E00E7000E00E7053
S113023000E00E7000E00E7000E00EF000600EE0D2
S113024000700EE001780EC0013C0EC00F3F0E801E
S1130250FF1F0E80FF0F0E00FF070000FC010000CF
S11302600000000000000000FF0000F0FF0300FC9D
S1130270FF0F00FFFF1F80FFFF3FC0FF003FE0773D
S11302800078F0710070787000F0387000E01C7035
S113029000E01C7000E00EF0007006F0017806E04B
S11302A0073C07E0FF3F07C0FF1F0280FF0F00006D
S11302B0FF070000FC00FE010000FE010000FE013B
S11302C000C03E0000F01E0000FC1E0000FF1E00E7
S11302D080FF1E00E0FF1E00F83F1E00FE0F1E8080
S11302E0FF011EE07F001EF81F001EFE03009EFF9C
S11302F00000FE3F0000FE070000FE0100007E003B
S113030000000E0000000000C003C007F00FF01F43
S1130310F81FF83FFC3FFC7F7E7E7C7E1F781EFC2E
S113032007700EF003E007F001E007E001E007E0EA
S113033001E007F001E00EF003E01EFC07707C7E94
S11303401F78FC7F7E7EF83FFC3FF01FF81FC0073C
S1130350F00F0000C003003F0000E0FF0000F0FFCA
S11303600140F8FF03E0FCFF07E03CE007601E806B
S11303700F600E000F7007000E3807000E380700DC
S11303800E1C0F000E1E0E008E0F1E00EE07FC004A
S1130390FF03FCFFFF01F8FFFF00F0FF3F00C0FF79
S11303A00F0000FF000011241FBECFEFD8E0DEBF16
S11303B0CDBF11E0A0E0B1E0E0EDF9E002C00590AE
S11303C00D92A030B107D9F725E0A0E0B1E001C05B
S11303D01D92A630B207E1F70E94A1040C94E60432
S11303E00C940000CF9380910401909105012AE0C0
S11303F030E0B9010E94BE04FC01E458FF4F44916F
S1130400FB01E458FF4FC4918091020190910301D4
S1130410B9010E94BE04FB01E458FF4F6491FC0142
S1130420E458FF4FE4914C0F4F5E460F4E0F2FE7F9
S113043030E0241B310937FF02C02F5F3F4F359551
S113044027953093010120930001CF9108955E9880
S113045028E030E029985D9887FD5D9A299A880FF5
S113046021503109B9F75E9A5D98089580E40E949D
S1130470270281EA0E94270280EC0E94270286EA72
S11304800E94270282EA0E9427028FE20E9427022A
S113049088EF0E94270280E00E94270287E20E94E0
S11304A0270281E80E94270286E10E9427028CEA43
S11304B00E94270280E00E9427028FEA0C94270200
S11304C0289A0E94270228980895CF93C82F8F70E6
S11304D00E9427028C2F82958F708061CF910C949B
S11304E0270280550C942702CF93DF93D0E00FC0EE
S11304F08C2F0E9471028D2F0E94650280E00E9461
S11305006002CF5FC830A1F7DF5FD03811F0C0E0E0
S1130510EFCFDF91CF9108950F931F93062F069588
S11305200695069510E098E0899F400D511D112411
S1130530400F511F78EF70039001719F300D11240B
S1130540260F311D81E090E0022E01C0880F0A942D
S1130550EAF7FA019081982B90831F910F910895E7
S11305600F931F93062F06950695069510E098E0C5
S1130570899F400D511D1124400F511F78EF7003C6
S11305809001719F300D1124260F311D81E090E000
S1130590022E01C0880F0A94EAF78095FA0190812F
S11305A0892380831F910F910895EF92FF920F93F7
S11305B01F93CF93DF93EC01E12C14C08F2D0E9485
S11305C071028E2D0E946502F80181918F010E94B3
S11305D06002F394F8E0FF12F1CF2896E39480E8E8
S11305E0E81619F08E01F12CE9CFDF91CF911F911C
S11305F00F91FF90EF9008952F923F924F925F9248
S11306006F927F928F929F92AF92BF92CF92DF921E
S1130610EF92FF920F931F93CF93DF9300D000D0FC
S1130620CDB7DEB76C017B015A0129010A83612C25
S1130630712C00E010E078E0272E312C32C0EB81E1
S1130640FC81F7FD379663E0F595E7956A95E1F748
S1130650E80DF91D208130E08B819C81B1010E945D
S1130660BE0402C0359527958A95E2F76B818A818D
S1130670680F46E051E0898120FF03C00E948C028C
S113068002C00E94B002EB81FC813196FC83EB83B3
S11306908B819C818C159D0594F20F5F1F4F6C0C10
S11306A07D1C0E151F059CF4430177FE03C097E0E3
S11306B0890E911C53E0959487945A95E1F71C8216
S11306C01B828A0C9B1CE02FE40DE983E1CFE40C30
S11306D0F51CC7010F900F900F900F90DF91CF91F1
S11306E01F910F91FF90EF90DF90CF90BF90AF904C
S11306F09F908F907F906F905F904F903F902F903E
S113070008957F928F929F92AF92BF92CF92DF9281
S1130710EF92FF920F931F93CF93DF93982E862E21
S1130720E12CF12C00E010E0FA01E458FF4FC490F2
S1130730D12C80E5849F5001859FB00C11242BC0DF
S1130740FE01A3E0F595E795AA95E1F7EE0DFF1DEF
S1130750EA0DFB1DEA57FF4FE491F0E0CE018770EC
S1130760992702C0F595E7958A95E2F76C2F680DF5
S113077046E051E0872DE0FF03C00E948C0202C0D6
S11307800E94B0022196C032D105D1F60F5F1F4FEF
S113079084E0E80EF11C0C151D052CF4C0E0D0E03B
S11307A0702E790CCDCFDF91CF911F910F91FF90D7
S11307B0EF90DF90CF90BF90AF909F908F907F90FD
S11307C008950F931F93CF93DF93EC01809102015F
S11307D0909103018A3091055CF440E050E069E0B7
S11307E070E0CE010E948103ECE7F0E0E49117C0D1
S11307F00AE010E0B8010E94BE04AB0169E070E0B9
S1130800CE010E9481038091020190910301B801FD
S11308100E94BE0464587F4FFB016491E62FF0E010
S11308203296EC0FFD1F80910201909103016AE062
S113083070E00E94BE04AC0169E070E0CF01DF917A
S1130840CF911F910F910C948103EF92FF920F931C
S11308501F93CF93DF930E94F201E0900001F09088
S1130860010180910401909105010AE010E0B801B2
S11308700E94BE04AB0169E070E0C7010E948103DD
S11308808091040190910501B8010E94BE04FB010E
S1130890E458FF4F6491C62FD0E02296CE0DDF1DA1
S11308A0AC0169E070E0CE010E94810380910401F3
S11308B090910501B8010E94BE0484589F4FFC0129
S11308C08491C80FD11D2496CE01DF91CF911F9141
S11308D00F91FF90EF9008950F931F93CF93DF93A1
S11308E0CDB7DEB764970FB6F894DEBF0FBECDBFA9
S11308F0DE01119680E090E0FC01E859FF4FE4919D
S1130900ED93019684319105B9F70E94250409E01D
S113091010E09C01AE014F5F5F4F65E070E080E244
S113092090E00E94FC0204960E94E10364960FB6D4
S1130930F894DEBF0FBECDBFDF91CF911F910F9111
S113094008952FEF89E698E1215080409040E1F727
S113095000C000008FEF84B98AB917B885B98BB984
S11309605F9A5E9A299A0E9436020E9474020E943B
S11309706C0486E091E00E94D502FFCF97FB072E1E
S113098016F4009407D077FD09D00E94D20407FC26
S113099005D03EF4909581959F4F0895709561958B
S11309A07F4F0895AA1BBB1B51E107C0AA1FBB1FA1
S11309B0A617B70710F0A61BB70B881F991F5A95E7
S11309C0A9F780959095BC01CD010895F894FFCFC7
S9030000FC
