:100000000C9428070C946F0A0C9445070C94450730
:100010000C943B0A0C9445070C9445070C94450737
:100020000C9445070C94BB0A0C9445070C944507A7
:100030000C9445070C9445070C9445070C94450710
:100040000C94220B0C9445070C9445070C9445071F
:100050000C9445070C9445070C9445070C944507F0
:100060000C9445070C9445078003C001C007E003CA
:10007000C007E003C007E0038003C0011F1C1F1E70
:100080001F1E1F1F1E1F1E1F230000000D00140037
:10009000000011003500350035001F00040001008C
:1000A0001100140000001100350035002600340056
:1000B00011001900350035003500350035001A00F3
:1000C0000F00110008000B00350035003500350029
:1000D00026000000080035003500350035003500E9
:1000E0003500230014000D000800350035003500F0
:1000F00035003500230014000B00080035003500E2
:100100003500350035001A001400060014001200F6
:1001100013003500350035002C0004000F001300DB
:1001200004000C0001000400110028000A00130064
:100130000E000100040011003500350027000E00FC
:10014000150004000C0001000400110035001D0022
:100150000400190004000C00010004001100350027
:10016000080907090800080A040009040D0A08091B
:10017000000606060A0B000000080D00000B00092F
:10018000000000050B090E0C0C00000008000C001C
:10019000120000000800020A140E131414121414A2
:1001A000141400F00F0000FFFF07E0FFFF0FF0FF47
:1001B000FF1FF80FF03F7C00007F1E0000780F004B
:1001C00000F0070000E0070000E0070000E0070083
:1001D00000E00F0000F01E0000787C00007FF80FA8
:1001E000F03FF0FFFF1FE0FFFF0F00FFFF0700F0F1
:1001F0000F00100000001000000018000070180030
:1002000000701C0000701C000070FCFFFF7FFEFFF0
:10021000FF7FFEFFFF7FFEFFFF7F000000700000FA
:10022000007000000070000000700000000000007E
:1002300000000000000000000000000000000000BE
:10024000000000000070FC010078FC01007C7E00D2
:10025000007E1E00007F0E00807F0E00C07707002A
:10026000E0730700F0710700F87007007C700E0063
:100270003E701E001F701E800F703CC00770FCF0A7
:100280000370F8FF0170F0FF0070E07F0070000065
:10029000000000000000FC01803FFC01807F7E0028
:1002A000007E1E0000780E8000F006C001E007C04E
:1002B00001E007C001E007E001E00EE001E00EF020
:1002C00001703EFE0370FCFF0778FC9F1F3EF88F15
:1002D000FF3FF003FF1F0000FE0F0000F8030000C7
:1002E0000000000070000000780000007C000000AA
:1002F0007F000080770000E0710000F07000003C9B
:100300007000001E700000077070C0037070E00085
:100310007070F8FFFF7FFCFFFF7FFEFFFF7FFEFF97
:10032000FF7F0000707000007070000070700000AF
:10033000700000000030FEFF0070FEFF0060FEFF56
:1003400000600EF000E00E7000E00E7000E00E7035
:1003500000E00E7000E00EF000600EE000700EE0B5
:1003600001780EC0013C0EC00F3F0E80FF1F0E80B3
:10037000FF0F0E00FF070000FC010000000000005E
:1003800000000000FF0000F0FF0300FCFF0F00FF73
:10039000FF1F80FFFF3FC0FF003FE0770078F07154
:1003A0000070787000F0387000E01C7000E01C7085
:1003B00000E00EF0007006F0017806E0073C07E070
:1003C000FF3F07C0FF1F0280FF0F0000FF07000074
:1003D000FC00FE010000FE010000FE0100C03E0026
:1003E00000F01E0000FC1E0000FF1E0080FF1E002B
:1003F000E0FF1E00F83F1E00FE0F1E80FF011EE002
:100400007F001EF81F001EFE03009EFF0000FE3F3F
:100410000000FE070000FE0100007E0000000E004C
:1004200000000000C003C007F00FF01FF81FF83FE6
:10043000FC3FFC7F7E7E7C7E1F781EFC07700EF0EA
:1004400003E007F001E007E001E007E001E007F06A
:1004500001E00EF003E01EFC07707C7E1F78FC7F3D
:100460007E7EF83FFC3FF01FF81FC007F00F000032
:10047000C003003F0000E0FF0000F0FF0140F8FF74
:1004800003E0FCFF07E03CE007601E800F600E0009
:100490000F7007000E3807000E3807000E1C0F0003
:1004A0000E1E0E008E0F1E00EE07FC00FF03FCFF69
:1004B000FF01F8FFFF00F0FF3F00C0FF0F0000FF4B
:1004C00000000A040808090809080809F001FC07E7
:1004D0001E0F071C03180318071C1E0FFC07F00152
:1004E0000210FF1FFF1F00100000000000000000AE
:1004F00000000000061C071E031F831BC319E7181A
:100500007E183C1800000000060C071C031843105E
:10051000E318E31CBE0F1C0700000000C003E0034B
:10052000300318030C13FE1FFF1F0013000100000F
:100530003F0C7F1C631863106318E31CC30F800714
:1005400000000000F007F80FFC1C6E18261063185E
:10055000E31CC10F8007000007000318031E830778
:10056000E3017B001F000700000000001C07BE0F16
:10057000F319E110E110F3199E0F0C0700000000C1
:100580003C007E10E718C318810CC30EE707FE037A
:10059000FC010000000E601F3019B019B019F00FF7
:1005A000E01F001800000000000000000000000034
:1005B00000000000000000000100FF1FFF1F601886
:1005C00030183018701CE00FC00700000000000059
:1005D000000000000000000000000000C007E00F65
:1005E000701C10103018701C600C0000000000001F
:1005F00000000000000000000000000000000000FB
:100600008007E00F6018301830183108FF1FFF1FF7
:1006100000100000000000000000000000000000CA
:1006200000000000E00FF00FB01D10191011B019FC
:10063000F019E008000000000000000000000000C9
:1006400000000000000000000000000000000000AA
:10065000000000000000000000000000000000009A
:100660000000000000000000000000006076F0FFC5
:1006700098CF088D988DF8CDF8FC08780000000020
:10068000000000000000000000000000000000006A
:100690000110FF1FFF1F6010300030007010E01FBE
:1006A000C01F00100000000000000000000000005B
:1006B000000000001210F71FF21F001000000000E1
:1006C000000000000000000000000000000000002A
:1006D000000000000000000000000000000000001A
:1006E000000000000000000000000000000000000A
:1006F0000000000000000000000000000210FF1FCA
:10070000FF1F00138007E01F601C2018001000006E
:1007100000000000000000000000000000000000D9
:100720000110FF1FFF1F001000000000000000006C
:1007300000000000000000000000000000000000B9
:10074000000000002010F01FF01F6010300070103B
:10075000E01FC01F601030007010E01FC01F0010AD
:1007600000000000000000002010F01FF01F3010FB
:10077000300030007010F01FC01F0010000000009B
:100780000000000000000000000000008007E00FF3
:100790006018301830186018E00F80070000000063
:1007A0000000000000000000000000000000000049
:1007B0001080F8FFF8FF188C1008180C380EF0079E
:1007C000E001000000000000000000000000000048
:1007D0000000000000000000000000000000000019
:1007E0000000000000000000000000000000000009
:1007F00000000000000000001010F01FF01F60104B
:1008000030001000000000000000000000000000A8
:10081000000000000000000000000000C00CF01903
:10082000B0191013301B600E000000000000000023
:1008300000000000000000000000000000000000B8
:100840002000F00FF81F2018200800000000000012
:100850000000000000000000000000000000000098
:10086000000000002000F00FF01F00180010001022
:100870002018F00FF01F0010000000000000000022
:10088000000000000000000010003000F000D00365
:10089000000F001C000FD003F0003000100000001B
:1008A0000000000000000000000000000000000048
:1008B0000000000000000000000000000000000038
:1008C0000000000000000000000000000000000028
:1008D0000000000000000000000000000000000018
:1008E0000000000000000000000000000000000008
:1008F00000000000000000000000000000000000F8
:1009000000000000000000000000000000000000E7
:1009100000000000000000007018301C301E301B6A
:10092000B019F0187018301C000000000000000022
:10093000000000000000000000000000001000188F
:10094000001EC017F8013E0107013E01F801C01763
:10095000001E001800100000000000000000000051
:100960000000000000000000000000000000000087
:100970000000000000000000000000000000000077
:100980000000000000000000000000000000000067
:100990000000000000000000000000000000000057
:1009A00000000000000000000318FF1FFF1F0318D5
:1009B000031803180318070C0E0EFC07F8030000B9
:1009C0000000000000000000000000000000000027
:1009D0000000000000000000000000000000000017
:1009E0000000000000000000000000000000000007
:1009F0000110FF1FFF1FC310C300E301030003002A
:100A000007000000000000000000000000000000DF
:100A100000000000000000000000000000000000D6
:100A200000000000000000000000000000000000C6
:100A300000000000000000000000000000000000B6
:100A400000000000000000000000000000000000A6
:100A50000000000000000000000000000000000096
:100A60000000000000000000000000000000000086
:100A70000000000000000000000000000000000076
:100A800000C001E0FF7FFF3F010000000000000008
:100A90000000000000000000000000000000000056
:100AA000000000000110FF1FFF1F6110F0009801FF
:100AB0000D030716031C01180010000000000000C1
:100AC00000000000000000000110FF1FFF1F0118C0
:100AD000001800180018001C001E00000000000094
:100AE0000000000000000000000000000110FF1FD7
:100AF000FF1F7E10F000C003000E000EC003700048
:100B00003E10FF1FFF1F011000000000000000004A
:100B10000110FF1FFF1F1F103C007800F001C003F1
:100B20008107FF1FFF1F0100000000000000000000
:100B300000000000F001BC070E0E0318031801109E
:100B40000110031803180E0EBC07F001000000008E
:100B50000000000000000000000000000000000095
:100B60000000000000000000000000000000000085
:100B70000000000000000000000000000000000075
:100B80000000000000000000000000000000000065
:100B90000000000000000000000000000000000055
:100BA0000000000000000000000000000000000045
:100BB0000000000000000000000000000000000035
:100BC000000000001C0C3E1863186110C110C3190E
:100BD000830F060700000000000000000000000076
:100BE0000000000000000000000000000000000005
:100BF00000000000000000000000000000000000F5
:100C00000000000000000000000000000100FF07DD
:100C1000FF0F010C0018001000100018010CFF0F4E
:100C2000FF070100000000000000000000000000BD
:100C300000000000000000000000000000000000B4
:100C400000000000000000000000000000000000A4
:100C500000000000010003001F00F900C007000EA3
:100C6000011FE3037F007F00E303011F000EC007A5
:100C7000F9001F0003000100000000000000000058
:100C80000000000000000000000000000000000064
:100C90000000000000000000000000000000000054
:100CA0000000000000000000000000000000000044
:100CB0000000000000000000000000000000000034
:100CC0000000000000000000000000000000000024
:100CD0000000000000000000000000000000000014
:100CE00000000000000E601F3419B019B019F40F95
:100CF000E01F0018000000000000000000000000DD
:100D000000000000000000000000000000000000E3
:100D100000000000000000000000000000000000D3
:100D20000000000000000000000000000018001893
:100D300000000000000000000000000000000000B3
:100D400000000000000000000000000000000000A3
:100D50002000F607F60F001C00182018F60FF61FEB
:100D6000001800100000000000000000000000005B
:100D70000000000000018003B01B701DF01EF01E7B
:100D8000F01EF01EF01E700E4007800180018001F1
:100D9000800180018001800180C180718079803D67
:100DA000801D800F8003800180018001800180010F
:100DB00083018E019E01BC01B801F001C0018001D8
:100DC00080018001800180018001800180010E1F6F
:100DD0003F7E00007E3F1F0E000E1F3F7E7E3F1FA6
:100DE0000E0000007000FC01FC03FE07FE0FFC1F5C
:100DF000F83FFC1FFE0FFE07FC03FC017000000023
:100E0000000000020007001F007E00780078003E0E
:100E1000000F8007C001E000300018000C00060041
:100E200002000000000000000000000000000000C0
:100E30000000000000000000000000000000004072
:100E400000E000F000F0FE7F1E0010002000C00750
:100E500011241FBECFEFD8E0DEBFCDBF11E0A0E070
:100E6000B1E0EEE1F7E302C005900D92AC32B107BC
:100E7000D9F726E0ACE2B1E001C01D92AD30B20777
:100E8000E1F70E944D190C948D1B0C9400005E98A4
:100E900028E030E029985D9888230CF45D9A299A1F
:100EA000880F21503109B1F75E9A5D98089580E46A
:100EB0000E94470781EA0E94470780EC0E9447078B
:100EC00086EA0E94470782EA0E9447078FE20E9453
:100ED000470788EF0E94470780E00E94470787E2A4
:100EE0000E94470781E80E94470786E10E94470762
:100EF0008CEA0E94470780E00E9447078FEA0E9421
:100F000047070895289A0E94470728980895CF9385
:100F1000C82F8F700E9447078C2F82958F70806139
:100F20000E944707CF91089580550E944707089572
:100F30001F93CF93DF93D0E010E00FC08C2F0E945F
:100F400094078D2F0E948707812F0E948207CF5F11
:100F5000C830A1F7DF5FD03811F0C12FEFCFDF919C
:100F6000CF911F910895262F26952695269530E03E
:100F7000F90148E0849FE00DF11D1124E35FFD4F6E
:100F8000319521953109220F331F220F331F220F74
:100F9000331F260F311D81E090E0AC0102C0440FE9
:100FA000551F2A95E2F79A018081282B2083089506
:100FB000262F26952695269530E0F90148E0849F56
:100FC000E00DF11D1124E35FFD4F319521953109AD
:100FD000220F331F220F331F220F331F260F311D05
:100FE00081E090E0AC0102C0440F551F2A95E2F762
:100FF0009A0120958081282320830895EF92FF9203
:101000000F931F93CF93DF9300E010E0E12C12C009
:101010008F2D0E949407802F0E94870789910E943C
:101020008207F39488E0F812F3CF0F5F1F4F003868
:10103000110559F0E801CC0FDD1FCC0FDD1FCC0FDF
:10104000DD1FC35FDD4FFE2CE3CFDF91CF911F91FA
:101050000F91FF90EF9008952F923F924F925F92E1
:101060006F927F928F929F92AF92BF92CF92DF92B8
:10107000EF92FF920F931F93CF93DF9300D000D096
:10108000CDB7DEB79C838B834B015A83498319010B
:10109000161617060CF05BC02C01C12CD12CA12C0C
:1010A000B12C3BC0C30177200CF40796FC01F595E9
:1010B000E795F595E795F595E795EE0DFF1D2081F0
:1010C00030E0C30187709078992324F40197886FEA
:1010D0009F6F0196A90102C0559547958A95E2F741
:1010E00040FF06C0662D600F812F0E94B30705C028
:1010F000662D600F812F0E94D8075FEF651A750A71
:101100008B819C816816790669F69FEFA91AB90A46
:10111000C40CD51CA814B904D1F0EB81FC811E16B7
:101120001F069CF77601DD201CF4F7E0EF0EF11CA2
:10113000F594E794F594E794F594E794612C712C79
:1011400049815A81E40EF51E1A2D120DABCF820C87
:10115000931C882D992D0F900F900F900F90DF9179
:10116000CF911F910F91FF90EF90DF90CF90BF90A4
:10117000AF909F908F907F906F905F904F903F9037
:101180002F9008953F924F925F926F927F928F922D
:101190009F92AF92BF92CF92DF92EF92FF920F9306
:1011A0001F93CF93DF937C013B01322E1616170657
:1011B000DCF14EC0CE01DD230CF40796FC01F59561
:1011C000E795F595E795F595E795EC0DFD1DEA0D8D
:1011D000FB1DEC56FA4FE491F0E0CE018770907859
:1011E000992324F40197886F9F6F01969F0102C095
:1011F000359527958A95E2F720FF06C06C2F600F82
:10120000812F0E94B30705C06C2F600F812F0E94B1
:10121000D8072196CE15DF0569F63FEF831A930AAA
:101220008614970459F414C0812C912C412C512C14
:1012300084E2849F5001859FB00C11241E141F046A
:1012400064F76401CC0CDD1CE201182D130DB2CF44
:10125000DF91CF911F910F91FF90EF90DF90CF9092
:10126000BF90AF909F908F907F906F905F904F90C6
:101270003F9008955F926F927F928F929F92AF926C
:10128000BF92CF92DF92EF92FF920F931F93CF9373
:10129000DF93582E662EFA01EE53FB4F8491811195
:1012A0003DC050C0CE01DD230CF40796FC01F5953E
:1012B000E795F595E795F595E795E00FF11FEE0DAC
:1012C000FF1DE453FB4FE491F0E09E01277030785E
:1012D000332334F421503109286F3F6F2F5F3F4F84
:1012E000CF0102C0959587952A95E2F780FF06C049
:1012F0006C2F660D872D0E94B30705C06C2F660DFD
:10130000872D0E94D8072196C031D10559F69FEF4D
:10131000C91AD90ACA14DB0474F014C0C12CD12C28
:10132000812C912C84E1849F7001859FF00C112405
:10133000E491AE2EB12C8601000F111FE4017C2C2C
:10134000750CB0CFDF91CF911F910F91FF90EF906F
:10135000DF90CF90BF90AF909F908F907F906F90D5
:101360005F9008952F923F924F925F926F927F927B
:101370008F929F92AF92BF92CF92DF92EF92FF92A5
:101380000F931F93CF93DF93382EFA01E856FE4F49
:10139000849181113DC05CC0CE01DD230CF4079621
:1013A000FC01F595E795F595E795F595E795E00F3F
:1013B000F11FEE0DFF1DEE55FE4FE491F0E0CE0162
:1013C00087709078992324F40197886F9F6F019616
:1013D0009F0102C0359527958A95E2F720FF05C049
:1013E000652D842D0E94B30704C0652D842D0E94B5
:1013F000D80721965394C032D10571F63FEFA31A56
:10140000B30A80E2C80ED11CA614B7048CF020C029
:10141000C12CD12CA12CB12C262E812C912C80E515
:10142000849F7001859FF00C1124E4916E2E712C25
:101430008601DD2014F4095F1F4F1595079515955A
:10144000079515950795522CE4014A2C430CA4CF1F
:10145000DF91CF911F910F91FF90EF90DF90CF9090
:10146000BF90AF909F908F907F906F905F904F90C4
:101470003F902F9008951F920F920FB60F92112454
:101480005F936F937F938F939F93AF93BF93359B9E
:1014900015C081E08093380180912C01882399F058
:1014A0008091490190914A0103966CE370E00E949B
:1014B000651B909302028093010205C0309B03C01C
:1014C00081E080933701BF91AF919F918F917F9180
:1014D0006F915F910F900FBE0F901F9018951F9204
:1014E0000F920FB60F9211242F933F935F936F9338
:1014F0007F938F939F93AF93BF9329B139B1832F7C
:10150000817090E022FF03C0892B19F40CC0892B55
:1015100051F48091390190913A01019690933A01EA
:101520008093390109C08091390190913A01019766
:1015300090933A018093390180912C01882369F0BE
:101540008091490190914A0103966CE370E00E94FA
:10155000651B9093020280930102BF91AF919F910E
:101560008F917F916F915F913F912F910F900FBE5F
:101570000F901F9018951F920F920FB60F92112483
:101580002F933F938F939F93AF93BF9380913D0190
:1015900090913E01A0913F01B09140010196A11DA3
:1015A000B11D80933D0190933E01A0933F01B09304
:1015B00040018C3C9A41A240B105E9F080910001C4
:1015C000882301F18091490190914A0101969093FD
:1015D0004A0180934901CC97C1F4809141019091D7
:1015E00042010196909342018093410110924A0179
:1015F000109249010AC080910001882319F01092CD
:10160000000103C081E08093000180912C018823B8
:1016100071F02091490130914A018091010290912D
:1016200002022817390719F4419810922C01BF9132
:10163000AF919F918F913F912F910F900FBE0F907F
:101640001F9018951F920F920FB60F9211242F938F
:101650003F934F935F936F937F938F939F93AF933A
:10166000BF93EF93FF932DEB37E346E05CE360918C
:1016700033017091340180913501909136010E94BF
:10168000841A6093330170933401809335019093F1
:101690003601FF91EF91BF91AF919F918F917F9113
:1016A0006F915F914F913F912F910F900FBE0F90CF
:1016B0001F9018951F93CF93DF9304976CF0DCE590
:1016C00019C06C2F8D2F0E94D807CF5FC034C9F787
:1016D000DF5FD33119F410C0D0E010E0C12FF1CF9B
:1016E0006C2F8D2F0E94D807CF5FC034C9F7DF5F02
:1016F000DC3611F0C0E3F4CFDF91CF911F91089554
:101700000F931F93CF93DF93EC0180913101909160
:1017100032010E945A0BC430D1059CF48FE08C9F9B
:1017200080018D9F100D11240E5F1F4F22E030E0CD
:1017300047ED51E060E170E080E190E00E942C080C
:101740000CC00FE210E02CE530E047ED51E060E125
:1017500070E080E190E00E942C08D0933201C093A9
:101760003101DF91CF911F910F910895AF92BF92F8
:10177000CF92DF92EF92FF920F931F93CF93DF935D
:101780005B01121613064CF5C42FD52F6901CC0C42
:10179000DD1CCC0EDD1EE82EF92E48815981552323
:1017A00024F483E0E80EF11C14C0FA01E05AFE4F65
:1017B00064918501970170E080E190E00E94C20889
:1017C000E881F981E05AFE4F849190E00196E80E9D
:1017D000F91E2296CC15DD0501F7DF91CF911F91FF
:1017E0000F91FF90EF90DF90CF90BF90AF90089552
:1017F000E4E1F2E084E196E0DF0117971C92DF015B
:1018000016971C92DF0115971C92DF0114971C920A
:10181000DF0113971C92DF0112971C92DF011197D1
:101820001C9210823896E817F90731F70895109244
:10183000330110923401109235011092360116BC1A
:1018400084E085BD089515BC0895E6EBF0E0808145
:10185000806280831092B200E1EBF0E080818560CD
:101860008083E0E7F0E080818160808381E0809385
:101870006E008DBB8093690082E080936800ECE687
:10188000F0E080E280838081816080830895F89415
:101890008091410190914201181619061CF4789428
:1018A00081E00895789480E008950F931F93CF937B
:1018B000DF93CDB7DEB7C854D1090FB6F894DEBFB9
:1018C0000FBECDBFDE01119680E090E0FC01E25C2E
:1018D000F14FE491ED93019688349105B9F702E058
:1018E00010E021E030E0AE014F5F5F4F69E070E053
:1018F00080E190E00E942C08C85BDF4F0FB6F8949F
:10190000DEBF0FBECDBFDF91CF911F910F91089524
:101910007F928F929F92AF92BF92CF92DF92EF927F
:10192000FF920F931F93CF93DF935C01882EE12CDE
:10193000F12C762EC12CD12C3BC09E01DD2314F45A
:10194000295F3F4FF901F595E795F595E795F595F1
:10195000E795E00FF11FE859FF4FE491F0E09E0199
:1019600027703078332334F421503109286F3F6FCA
:101970002F5F3F4FCF0102C0959587952A95E2F7DB
:1019800080FF05C0692D882D0E94B30704C0692D12
:10199000882D0E94D80721969394C032D10569F60C
:1019A00090E2E90EF11C839480EAE816F10471F0EC
:1019B0008701FF2014F4095F1F4F159507951595B2
:1019C000079515950795972CE601B7CF95E0A90ED9
:1019D000B11C8A2D9B2DDF91CF911F910F91FF900C
:1019E000EF90DF90CF90BF90AF909F908F907F90BF
:1019F00008956AE070E00E94651BFC01E856FE4F06
:101A0000249130E02E5F3F4FFB01E856FE4F64917A
:101A1000260F311D822F932F08951F93CF93DF93AD
:101A2000EB010E94F90C182F80932F019093300145
:101A3000CE010E94F90C80932D0190932E01180F76
:101A4000135F8FE790E0811B91090AF40196959549
:101A500087959093440180934301DF91CF911F912B
:101A60000895EF92FF920F931F93CF93DF93E0902F
:101A70004301F09044016AE070E00E94651B8B0115
:101A8000EC01AB0169E070E0C7010E94B209F80106
:101A9000E856FE4F049110E00E5F1F4F0E0D1F1D04
:101AA000AE0169E070E0C8010E94B209FE01E8568B
:101AB000FE4FC4910C0F111D0C5F1F4F802F912FF3
:101AC000DF91CF911F910F91FF90EF900895EF92CA
:101AD000FF920F931F93CF93DF93EC018B018A301A
:101AE00091057CF440E050E069E070E0C8010E949C
:101AF000B209E8E9F1E0849190E00296080F191F1D
:101B000015C06AE070E00E94651B7B01AB0169E0D3
:101B100070E0C8010E94B209F701E856FE4FE49058
:101B2000F12C82E0E80EF11C0E0D1F1DCE016AE0C3
:101B300070E00E94651BAC0169E070E0C8010E9482
:101B4000B209DF91CF911F910F91FF90EF9008950F
:101B50000F931F93CF93DF9300914D0110914E018E
:101B6000C0914B01D0914C01882341F00091470175
:101B700010914801C0914501D0914601BE01C801B4
:101B80000E940D0DC8010E94310D69E070E00E94B5
:101B9000880CBC016C5F7F4FCE010E94670DDF9106
:101BA000CF911F910F91089516161706DCF4A82FF8
:101BB000B92FCB01880F991F8A0F9B1F2FEF3FEF83
:101BC000ED91FD91FF231CF42D5F3F4F07C0E05ABC
:101BD000FE4FE491F0E031962E0F3F1FA817B90792
:101BE00079F702C02FEF3FEF822F932F08959F9236
:101BF000AF92BF92CF92DF92EF92FF920F931F931B
:101C0000CF93DF93E82EF92EC0E0D0E06B018FEF89
:101C1000C81AD80AA62EB72E409105015091060188
:101C2000FA01EE0FFF1FEE0FFF1FEE0FFF1F4E0F0B
:101C30005F1F4C0F5D1FFA01EE0FFF1FE857FF4FAC
:101C4000449150E04633510544F54630510549F082
:101C50004F30510531F04031510519F048315105EF
:101C600019F40C2D1D2D02C00A2D1B2D41305105DC
:101C700019F481E0E81AF108FA01E05AFE4F949055
:101C80009701692D70E080E190E00E94C208692D03
:101C900070E06F5F7F4FE60EF71E2196C930D105C9
:101CA00009F0BACFDF91CF911F910F91FF90EF9084
:101CB000DF90CF90BF90AF909F900895CF92DF922A
:101CC000EF92FF920F931F93CF93DF93EC018B0161
:101CD00040910701509108014A305105CCF0CA01EA
:101CE0006AE070E00E94651B7B016C01AB01B801EA
:101CF000CE010E943A09F701EE53FB4FE491CE0169
:101D00008E0F911DA601B80101960E943A0902C0EA
:101D10000E943A09DF91CF911F910F91FF90EF90B0
:101D2000DF90CF900895CF93DF938091030190913E
:101D3000040118161906ACF42FEF3FEFCAE0D0E00B
:101D4000BE010E94651BFC01EE53FB4F849190E0A5
:101D50000196280F391F862F972F1816190684F31E
:101D600002C02FEF3FEF822F932FDF91CF91089585
:101D70000E94930E2FE730E0A901481B590BCA01BE
:101D800099230CF401969C01359527952F5F3F4FC1
:101D9000822F932F0895CF92DF92EF92FF920F93AD
:101DA0001F93CF93DF930E94B80E7C0180910301B3
:101DB0009091040168EE73E00E94651B8B016C0139
:101DC000AB0168E270E0C7010E943A09F801EE53E6
:101DD000FB4F049110E00F5F1F4F0E0D1F1DC6013A
:101DE00064E670E00E94651BEB017C01AB0168E2D8
:101DF00070E0C8010E943A09FE01EE53FB4FC49106
:101E0000D0E02196C00FD11FC7016AE070E00E94A8
:101E1000651B8B01E82EF92EAB0168E270E0CE0164
:101E20000E943A09F801EE53FB4F049110E0C801FB
:101E300001964E2D5F2D68E270E08C0F9D1F0E9471
:101E40003A09DF91CF911F910F91FF90EF90DF90B2
:101E5000CF900895CF93DF93C0910701D0910801EF
:101E6000CE016AE070E00E94651BFC01EE53FB4F5F
:101E7000249130E0CA30D10574F0CE016AE070E000
:101E80000E94651BFB01EE53FB4F649170E06F5F96
:101E90007F4F260F371F822F932FDF91CF91089509
:101EA000809105019091060120E030E04FEF5FEF57
:101EB000BC01660F771F660F771F660F771F860FAF
:101EC000971FFC01E20FF31FEE0FFF1FE857FF4FB4
:101ED000E491F0E0E533F10539F0E05AFE4FE4918A
:101EE000F0E031964E0F5F1F2F5F3F4F29303105D5
:101EF00041F7842F952F0895CF93DF930E942A0FE7
:101F0000EC010E94500F8C0F9D1F9C012A5F3F4FD8
:101F1000822F932FDF91CF9108950E947C0F2FE79E
:101F200030E0A901481B590BCA0199230CF4019612
:101F30009C01359527952F5F3F4F822F932F089552
:101F40000F931F93CF93DF93462F572FC82FD92F6F
:101F500020E030E019C06991613628F4062F10E0C6
:101F6000075211090BC06B3728F4062F10E00156F9
:101F7000110904C06C3F11F407E310E0FA0101936A
:101F80001193AF012F5F3F4FE82FF92FDF010D9025
:101F90000020E9F71197AE1BBF0B2A173B07D8F2B9
:101FA000DF91CF911F910F9108959F92AF92BF92B1
:101FB000CF92DF92EF92FF920F931F93CF93DF9315
:101FC000CDB7DEB7C057D1090FB6F894DEBF0FBE4C
:101FD000CDBF5C0110E06C0142E1C40ED11C982E13
:101FE0000B2D0FC0E92CF02E6E2D812F0E94D807EB
:101FF0005FEFE51AF50AEC14FD04B1F71F5F103826
:1020000021F0AC14BD0474F3F9CF0E948D0F7C0154
:102010008FE2A816B10409F08DC08091070190915C
:1020200008018E30910511F580910501909106010E
:10203000019709F07FC0DE01119680E090E0FC017D
:10204000EC58F24FE491ED9301968A359105B9F77A
:102050000FE210E02AE230E0AE014F5F5F4F6DE229
:1020600070E080E190E00E942C0882C0049709F0A3
:1020700061C08091050190910601079709F05AC04F
:10208000BE01655A7F4F89E091E00E94A00F6BE08E
:1020900070E0CE01855A9F4F0E94D40D2FE730E0AB
:1020A000A901481B590BCA0199230CF401966C0134
:1020B000D594C79476015FEFE51AF50A2BE030E07E
:1020C000AE01455A5F4F6FE270E0C7010E94B60B48
:1020D000DE01119620E030E0F901EE51F24FE4917B
:1020E000ED932F5F3F4F20323105B1F79601235119
:1020F00031090FE210E0AE014F5F5F4F60E170E029
:1021000080E190E00E942C086BE070E0CE01855ADF
:102110009F4F0E94D40D8E0D9F1D9C012C5F3F4F41
:10212000AE014F5F5F4F60E170E080E190E00E94A0
:102130002C081EC0B501C7010E945E0E0E942A0F26
:10214000E6E9F1E064918E0D9F1D9C012F5F3F4FEA
:10215000850146E350E070E080E190E00E94C20813
:102160000E942A0F8E0D9F1DB50106960E94F70D45
:10217000C059DF4F0FB6F894DEBF0FBECDBFDF9161
:10218000CF911F910F91FF90EF90DF90CF90BF9074
:10219000AF909F900895809107019091080101965A
:1021A0009093080180930701209101013091020171
:1021B0002817390744F581E090E090930801809357
:1021C0000701E0910501F09106013196F0930601B7
:1021D000E0930501E130F10579F4809103019091DC
:1021E000040183709927892B39F48DE190E0909355
:1021F00002018093010107C0E458FF4FE491E0938E
:1022000001011092020180910501909106010C9745
:1022100069F41092060110920501809103019091DA
:102220000401019690930401809303018FE290E0F2
:102230000E94D50F08950F931F93CF93DF93C09102
:102240004301D0914401C038D1056CF00FC0612F1B
:102250008C2F0E94D8071F5F1932C9F72196C0380A
:10226000D10511F403C009E0102FF1CF20914101F5
:102270003091420180914B0190914C01820F931F4C
:1022800090934C0180934B011092420110924101B6
:102290008C3391058CF06CE370E00E94651B909389
:1022A0004C0180934B0180914D0190914E0101961C
:1022B00090934E0180934D0180914D0190914E017C
:1022C000489734F010924E0110924D010E94CB10AD
:1022D00080E00E94A80D0E94FE07DF91CF911F9120
:1022E0000F9108950E94F80B80E00E94A80D8FE2E4
:1022F00090E00E94D50F80913C0181110E94550C05
:102300000E94FE070895FF920F931F93CF93DF93D0
:10231000CDB7DEB7A8970FB6F894DEBF0FBECDBF1E
:102320000E94F80BBE016F5F7F4F85E191E00E9434
:10233000A00F28E030E0AE014F5F5F4F63E070E038
:1023400084E190E00E94B60BBE016F5E7F4F8EE18C
:1023500091E00E94A00F27E030E0AE014F5E5F4F9A
:1023600062E170E084E190E00E94B60BBE01615E24
:102370007F4F86E291E00E94A00F25E030E0AE01A1
:10238000415E5F4F61E270E084E190E00E94B60B35
:10239000E6E9F1E0F49000E310E024E130E046E308
:1023A00050E06F2D70E080E190E00E94C2082AE1C9
:1023B00030E046E350E06F2D70E080E190E00E9455
:1023C000C20820E230E046E350E06F2D70E080E18B
:1023D00090E00E94C2080EE210E02CE630E04FE4EC
:1023E00051E061E170E080E190E00E942C08A89645
:1023F0000FB6F894DEBF0FBECDBFDF91CF911F9116
:102400000F91FF90089580913801811134C080911F
:10241000390190913A01892B71F580913701811131
:102420002AC08091410190914201892B21F5A3EBB3
:10243000B0E021E0E6EBF0E083B7816083BF83B7D3
:10244000866083BF2C93808183FDFDCF889580912A
:102450003801811110C08091390190913A01892B86
:1024600051F480913701811106C080914101909112
:102470004201892B09F30895EF92FF920F931F9366
:10248000CF93DF93F89410923801789480913801BB
:10249000811175C0E12C0F2EFEE1FF2EF02DCFE053
:1024A000D7E28091390190913A01009709F460C018
:1024B0002091030130910401820F931F9093040136
:1024C00080930301F89410923A01109239017894A4
:1024D000809103019091040199232CF4D09304017D
:1024E000C09303014FC0803127E292070CF44AC029
:1024F00080519742909304018093030143C0612F60
:10250000802F0E94D8071F5F1832C9F70F5F00386D
:1025100069F01F2DF4CF612F802F0E94D8071F5F15
:102520001933C9F70F5F0A3511F403C00E2D18E2F5
:10253000F2CF0E94CB0E0E94B80E8C010E94930E27
:10254000282F392F332314F42F5F3F4F35952795CC
:10255000200F311F245031090EE110E047EF51E008
:102560006AE070E088E090E00E942C080E94FE077C
:102570000E94031280913801882309F492CF0E94AF
:10258000031202C00E2DC5CFDF91CF911F910F9185
:10259000FF90EF900895EF92FF920F931F93CF93C8
:1025A000DF93F8941092380178948091380181116A
:1025B0007EC0CCE0D0E0E12CFE2C809139019091DE
:1025C0003A01009709F469C0209105013091060194
:1025D000820F931F9093060180930501F894109247
:1025E0003A01109239017894809105019091060189
:1025F000BE010E94651B99232CF0909306018093E5
:10260000050105C00C969093060180930501E091A9
:102610000501F0910601E458FF4F249130E08091CC
:10262000070190910801281739070CF03EC0E4918A
:10263000E0930701E092080138C0612F802F0E94CB
:10264000D8071F5F1A30C9F70F5F003811F01F2D30
:10265000F4CFCE010E94D50F0E948D0F8C010E94F5
:102660002A0F080F191F0E94500F282F392F3323CC
:1026700014F42F5F3F4F35952795200F311F2450BD
:10268000310902E010E047EF51E06AE070E088E0D5
:1026900090E00E942C080E94FE070E940312809185
:1026A0003801882309F489CF02C00E2DD0CFDF91E5
:1026B000CF911F910F91FF90EF900895EF92FF92AD
:1026C0000F931F93CF93DF93F8941092380178946F
:1026D0008091380181117CC0E12CFE2C8091390160
:1026E00090913A01009709F469C020910701309157
:1026F0000801820F931F9093080180930701F894BB
:1027000010923A01109239017894809107019091CA
:102710000801181619066CF0E0910501F091060108
:10272000E458FF4FE4918E0F911D90930801809320
:102730000701E0910501F0910601E458FF4F249153
:10274000809107019091080130E0281739070CF0BB
:102750003DC0E4918E1B910990930801809307017D
:1027600035C06C2F8D2F0E94D807CF5FCA30C9F7B4
:10277000DF5FD03811F0CF2DF4CF8CE090E00E94D5
:10278000D50F0E948D0FEC010E942A0F282F392FA0
:10279000332314F42F5F3F4F359527952C0F3D1FA2
:1027A0002450310902E010E047EF51E06AE070E0A8
:1027B00088E090E00E942C080E94FE070E9403120D
:1027C00080913801882309F489CF02C0DE2DD3CF50
:1027D000DF91CF911F910F91FF90EF900895AF92ED
:1027E000BF92CF92DF92EF92FF920F931F93CF93FE
:1027F000DF930E94F80B8CE090E00E94D50F0E94BE
:10280000CB0E0EE210E02CE630E04FE451E061E147
:1028100070E080E190E00E942C080E948D0FEC0196
:102820000E942A0F282F392F332314F42F5F3F4F94
:10283000359527952C0F3D1F2450310902E010E0FB
:1028400043E052E06AE070E088E090E00E942C08EB
:102850000E94FE07C0E0D0E0E12CF12CA12CBA2CA4
:10286000DA2C0F2EFEE1CF2EF02DF894A092380135
:102870007894809138018111E2C080913901909162
:102880003A01009709F4D4C08C0F9D1FF894109260
:102890003A0110923901789483709078992324F446
:1028A00001978C6F9F6F0196EC0199230CF424968D
:1028B00081E0E816F10431F11CF4EF28A9F041C0E1
:1028C00082E0E816F10461F183E0E816F104C9F54D
:1028D00035C0612F802F0E94D8071F5F1A30C9F7BB
:1028E0000F5F003811F42DC00B2D1D2DF2CF612F7D
:1028F000802F0E94D8071F5F1A30C9F70F5F00387A
:1029000011F41FC00B2D1D2DF2CF612F802F0E94BF
:10291000D8071F5F1832C9F70F5F003811F411C0D4
:102920000B2D1C2DF2CF612F802F0E94D8071F5F27
:102930001C33C9F70F5F083611F403C00EE514E32A
:10294000F2CFC130D10549F11CF4209751F06DC090
:10295000C230D10509F441C0C330D10509F065C0CA
:1029600058C00E948D0F8C010E942A0F282F392FEA
:10297000332314F42F5F3F4F35952795200F311FD8
:102980002450310902E010E043E052E06AE070E0D8
:1029900088E090E00E942C0848C00E948D0F8C01B6
:1029A0000E942A0F080F191F0E94500F282F392F3D
:1029B000332314F42F5F3F4F35952795200F311F98
:1029C0002450310902E010E043E052E06AE070E098
:1029D00088E090E00E942C0828C00E94B80E8C016C
:1029E0000E94930E282F392F332314F42F5F3F4F6B
:1029F00035952795200F311F245031090EE110E045
:102A000043E052E06AE070E088E090E00E942C0829
:102A10000CC004E310E02EE530E043E052E06AE051
:102A200070E088E090E00E942C080E94FE077E0182
:102A30000E94031280913801882309F41ECFF89474
:102A4000A09238017894C130D10509F442C0C23057
:102A5000D10509F481C0209709F0B9C00E948D0FFB
:102A60008C010E942A0F282F392F332314F42F5F53
:102A70003F4F35952795200F311F2450310902E033
:102A800010E047EF51E06AE070E088E090E00E94DB
:102A90002C080E94FE070E945E130E948D0F8C017D
:102AA0000E942A0F282F392F332314F42F5F3F4F12
:102AB00035952795200F311F2450310902E010E091
:102AC00043E052E06AE070E088E090E00E942C0869
:102AD00085C00E948D0F8C010E942A0F080F191FBC
:102AE0000E94500F282F392F332314F42F5F3F4FAC
:102AF00035952795200F311F2450310902E010E051
:102B000047EF51E06AE070E088E090E00E942C0816
:102B10000E94FE070E94CB120E948D0F8C010E9422
:102B20002A0F080F191F0E94500F282F392F332307
:102B300014F42F5F3F4F35952795200F311F2450F8
:102B4000310902E010E043E052E06AE070E088E022
:102B500090E00E942C0842C00E94B80E8C010E9496
:102B6000930E282F392F332314F42F5F3F4F3595C1
:102B70002795200F311F245031090EE110E047EF57
:102B800051E06AE070E088E090E00E942C080E942A
:102B9000FE070E943C120E94B80E8C010E94930E08
:102BA000282F392F332314F42F5F3F4F3595279566
:102BB000200F311F245031090EE110E043E052E0B4
:102BC0006AE070E088E090E00E942C0807C00E9454
:102BD000FE07C330D10509F048CE03C00E94FE07AE
:102BE00044CEDF91CF911F910F91FF90EF90DF9036
:102BF000CF90BF90AF900895AF92BF92CF92DF92E7
:102C0000EF92FF920F931F93CF93DF937C016B01A1
:102C1000A42E809138018111AFC0B12C809139016F
:102C200090913A01892B09F4A0C0F894F701208112
:102C300031818091390190913A01820F931F9183E4
:102C4000808310923A011092390180819181B601FE
:102C50000E94651B99231CF09183808305C08C0D15
:102C60009D1DF7019183808310924A0110924901C2
:102C70007894C0914301D091440180912F019091AB
:102C800030018C0F9D1F20912D0130912E01820F5C
:102C9000931F0D96C817D907F4F01FC0612F8C2F12
:102CA0000E94D8071F5F1932C9F72196209143016E
:102CB0003091440180912F0190913001280F391FEC
:102CC00060912D0170912E01260F371F235F3F4F1A
:102CD000C217D30714F41B2DE1CF8A2D0E94A80D33
:102CE000FCE3CF16D10421F520914301309144013A
:102CF00080912F0190913001280F391F235F3F4FA2
:102D000080912D0190912E0199230CF401969595B7
:102D10008795280F391F2450310902E010E047EF52
:102D200051E06AE070E088E090E00E942C081BC04F
:102D300080912F019091300199230CF40196959583
:102D400087952091430130914401280F391F245069
:102D5000310902E010E047EF51E06AE070E088E0FE
:102D600090E00E942C080E94FE070E9403128091AE
:102D70003801882309F452CFF894109238017894DE
:102D8000DF91CF911F910F91FF90EF90DF90CF9047
:102D9000BF90AF9008954F925F926F927F928F9203
:102DA0009F92AF92BF92CF92DF92EF92FF920F93DA
:102DB0001F93CF93DF93682E60914B0170914C016C
:102DC00080914D0190914E010E940D0D6620B9F049
:102DD00060914501709146018091470190914801B1
:102DE0000E940D0D0F2EF5E48F2EF1E09F2EF02D99
:102DF0000F2EF7E4AF2EF1E0BF2EF02D0CC00F2EFA
:102E0000FBE48F2EF1E09F2EF02D0F2EFDE4AF2E70
:102E1000F1E0BF2EF02DF8941092380178940E94C2
:102E2000F80B862D0E94A80D0EE210E02CE630E093
:102E30004FE451E061E170E080E190E00E942C08F5
:102E400080914701909148010E94F90C282F392F59
:102E5000332314F42F5F3F4F35952795809143011D
:102E600090914401280F391F2450310902E010E0ED
:102E700043E052E06AE070E088E090E00E942C08B5
:102E80000E94FE07EE24E394F12CC0E0D0E00F2E68
:102E9000F3E0CF2ED12CF02D412C542C68947724C4
:102EA00071F862C12091390130913A012115310543
:102EB00009F49EC0CE01820F931FF89410923A013C
:102EC000109239017894B6010E94651BEC01992398
:102ED0000CF4239681E0E816F10401F182E0E81693
:102EE000F10451F1EF2861F02AC0612F802F0E9478
:102EF000D8071F5F1A30C9F70F5F003811F41FC0E1
:102F0000052D172DF2CF612F802F0E94D8071F5F4C
:102F10001A30C9F70F5F003811F411C0052D172DB5
:102F2000F2CF612F802F0E94D8071F5F1C33C9F793
:102F30000F5F063611F403C00CE514E3F2CFC13085
:102F4000D10519F1C230D10509F443C0209709F029
:102F50004CC080912F019091300199230CF401967F
:102F6000959587952091430130914401280F391F91
:102F70002450310902E010E043E052E06AE070E0E2
:102F800088E090E00E942C0830C0209143013091ED
:102F9000440180912F0190913001280F391F235F48
:102FA0003F4F80912D0190912E0199230CF40196B1
:102FB00095958795280F391F2450310902E010E0BC
:102FC00043E052E06AE070E088E090E00E942C0864
:102FD0000CC004E310E02CE530E043E052E06AE08E
:102FE00070E088E090E00E942C080E94FE077E01BD
:102FF0000E94031280913801882309F453CFF8947A
:10300000409238017894C130D10509F446C0C230ED
:10301000D10509F491C0209709F0A1C080912F013A
:103020009091300199230CF4019695958795209104
:10303000430130914401280F391F2450310902E027
:1030400010E047EF51E06AE070E088E090E00E9415
:103050002C080E94FE07462D68E170E0C5010E9421
:10306000FC1580912F019091300199230CF4019669
:10307000959587952091430130914401280F391F80
:103080002450310902E010E043E052E06AE070E0D1
:1030900088E090E00E942C086DC02091430130919F
:1030A000440180912F0190913001280F391F235F37
:1030B0003F4F80912D0190912E0199230CF40196A0
:1030C00095958795280F391F2450310902E010E0AB
:1030D00047EF51E06AE070E088E090E00E942C0841
:1030E0000E94FE07462D6CE370E0C4010E94FC15AF
:1030F000209143013091440180912F019091300142
:10310000280F391F235F3F4F80912D0190912E0191
:1031100099230CF4019695958795280F391F245013
:10312000310902E010E043E052E06AE070E088E03C
:1031300090E00E942C081EC010924A011092490192
:10314000F8941092B20010923D0110923E0110923C
:103150003F011092400178940E94FE070EC00E9429
:10316000FE07C230D10549F080913801882309F467
:1031700099CE45CF0E94FE07F7CFDF91CF911F91E7
:103180000F91FF90EF90DF90CF90BF90AF909F9006
:103190008F907F906F905F904F90089581E00E9494
:1031A000CB1608950F931F93CF93DF938C01EB0100
:1031B000CB010E94800B0E94FE07F89410923A0106
:1031C0001092390110923801789480913801811160
:1031D00025C02091390130913A01232BC9F0F89490
:1031E0008091390190913A018C0F9D1F10923A0104
:1031F000109239017894B8010E94651BEC01992363
:1032000014F4C00FD11FCE010E94800B0E94FE0754
:103210000E940312809138018823D9F2F894109209
:10322000380178948C2F9D2FDF91CF911F910F91B2
:103230000895CF93DF93C0E0D0E00E9483110E94F5
:10324000FE07BE0185E090E00E94D218EC018230BA
:103250009105A9F034F4009759F081309105A9F453
:103260000AC08330910599F08430910571F40AC049
:103270000E94CE18E2CF80E00E94CB16DECF0E94E3
:10328000EF13DBCF0E94721105C00E947211C4308F
:10329000D1059CF2DF91CF9108952FEF89E698E157
:1032A000215080409040E1F700C000008FEF84B9CA
:1032B000269827988AB95298509887B938985F9A73
:1032C0005E9A299A0E9457070E9498070E947211DD
:1032D0000E94250C78940F2EFCE36F2E712CF02D9C
:1032E0009924939407ED11E00F2EF3E0AF2EF2E056
:1032F000BF2EF02D0F2EF7EFCF2EF1E0DF2EF02DA9
:103300000F2EFFE4EF2EF1E0FF2EF02D809137011C
:10331000882309F469C0419A8091490190914A013A
:103320000396B3010E94651B9093020280930102F1
:1033300090922C010E94170C309B2BC020E030E0B3
:1033400040EC5FE36091330170913401809135016D
:10335000909136010E94E81A8823DCF42FE788E375
:1033600091E0215080409040E1F700C00000309B88
:1033700010C020E030E040EC5FE3609133017091D9
:10338000340180913501909136010E94E81A88231A
:103390002CF30E94230C20E030E040EC5FE36091CE
:1033A00033017091340180913501909136010E9472
:1033B000611B181644F480913C01892580933C01DF
:1033C0000E9472110FC0419A8091490190914A0167
:1033D0000396B3010E94651B909302028093010241
:1033E00090922C01109237018091390190913A010D
:1033F000892B21F010923A01109239010E94470C5A
:10340000882331F080913B01811102C00E941B1181
:1034100080913801882309F473C00E94170C359BF2
:103420002BC020E030E040EC5FE36091330170910D
:10343000340180913501909136010E94E81A882369
:10344000DCF42FE788E391E0215080409040E1F7E1
:1034500000C00000359B10C020E030E040EC5FE38E
:103460006091330170913401809135019091360162
:103470000E94E81A88232CF30E94230C20E030E0FD
:1034800040EC5FE36091330170913401809135012C
:10349000909136010E94611B181674F5D80180E0E6
:1034A00090E0FC01EE51F24FE491ED9301968032F1
:1034B0009105B9F7E501D60180E090E0FC01E85202
:1034C000F24FE491E993FC01E253F24FE491ED9362
:1034D00001968A30910591F7D70180E090E0FC01D8
:1034E000EE5FF14FE491ED93019688389105B9F7BD
:1034F00090923B010E9419191092380110923B01E1
:103500000E94031203CF5058BB27AA270ED09FC09A
:1035100090D030F095D020F031F49F3F11F41EF49C
:1035200085C00EF4E095E7FB7BC0E92FA1D080F3C6
:10353000BA17620773078407950718F071F49EF5B0
:10354000B9C00EF4E0950B2EBA2FA02D0B01B901D6
:1035500090010C01CA01A0011124FF27591B99F009
:10356000593F50F4503E68F11A16F040A22F232F15
:10357000342F4427585FF3CF469537952795A79565
:10358000F0405395C9F77EF41F16BA0B620B730B0C
:10359000840BBAF09150A1F0FF0FBB1F661F771F7D
:1035A000881FC2F70EC0BA0F621F731F841F48F432
:1035B000879577956795B795F7959E3F08F0B3CFB8
:1035C0009395880F08F09927EE0F979587950895A2
:1035D00003D008F481E00895990F0008550FAA0B55
:1035E000E0E8FEEF16161706E807F907C0F0121616
:1035F0001306E407F50798F0621B730B840B950B19
:1036000039F40A2661F0232B242B252B21F408956D
:103610000A2609F4A140A6958FEF811D811D08950A
:1036200097F99F6780E870E060E008959FEF80EC75
:10363000089500240A941616170618060906089518
:1036400000240A9412161306140605060895092E7E
:103650000394000C11F4882352F0BB0F40F4BF2BED
:1036600011F460FF04C06F5F7F4F8F4F9F4F08952D
:1036700057FD9058440F551F59F05F3F71F0479523
:10368000880F97FB991F61F09F3F79F08795089508
:10369000121613061406551FF2CF4695F1DF08C027
:1036A000161617061806991FF1CF86957105610544
:1036B00008940895E894BB2766277727CB0197F9EC
:1036C00008958ADF08F48FEF089597FB072E16F40C
:1036D000009407D077FD09D00E94791B07FC05D024
:1036E0003EF4909581959F4F0895709561957F4F19
:1036F0000895AA1BBB1B51E107C0AA1FBB1FA61739
:10370000B70710F0A61BB70B881F991F5A95A9F78A
:0E37100080959095BC01CD010895F894FFCFEF
:10371E00011E00E00707000400416C6C6573204C2D
:10372E0069656265005765636B7A656974005568F3
:0C373E00727A65697400446174756D0056
:00000001FF
