:100000000C944E070C946B070C946B070C945C0BD0
:100010000C946B070C948F0B0C946B070C946B0770
:100020000C946B070C94D50B0C946B070C946B071A
:100030000C946B070C946B070C946B070C946B0778
:100040000C942A0C0C946B070C946B070C946B07A4
:100050000C946B070C946B070C946B070C946B0758
:100060000C946B070C946B078003C001C007E0037E
:10007000C007E003C007E0038003C0011F1C1F1E70
:100080001F1E1F1F1E1F1E1F230000000D00140037
:10009000000011003500350035001F00040001008C
:1000A0001100140000001100350035002600340056
:1000B00011001900350035003500350035001A00F3
:1000C0000F00110008000B00350035003500350029
:1000D00026000000080035003500350035003500E9
:1000E0003500230014000D000800350035003500F0
:1000F00035003500230014000B00080035003500E2
:100100003500350035001A001400060014001200F6
:1001100013003500350035002C0004000F001300DB
:1001200004000C0001000400110028000A00130064
:100130000E000100040011003500350027000E00FC
:10014000150004000C0001000400110035001D0022
:100150000400190004000C00010004001100350027
:10016000080907090800080A040009040D0A08091B
:10017000000606060A0B0E0A00080D0A000B00090D
:10018000000000050B090E0C0C00000008000C001C
:10019000120000000800020A140E131414121414A2
:1001A000141400F00F0000FFFF07E0FFFF0FF0FF47
:1001B000FF1FF80FF03F7C00007F1E0000780F004B
:1001C00000F0070000E0070000E0070000E0070083
:1001D00000E00F0000F01E0000787C00007FF80FA8
:1001E000F03FF0FFFF1FE0FFFF0F00FFFF0700F0F1
:1001F0000F00100000001000000018000070180030
:1002000000701C0000701C000070FCFFFF7FFEFFF0
:10021000FF7FFEFFFF7FFEFFFF7F000000700000FA
:10022000007000000070000000700000000000007E
:1002300000000000000000000000000000000000BE
:10024000000000000070FC010078FC01007C7E00D2
:10025000007E1E00007F0E00807F0E00C07707002A
:10026000E0730700F0710700F87007007C700E0063
:100270003E701E001F701E800F703CC00770FCF0A7
:100280000370F8FF0170F0FF0070E07F0070000065
:10029000000000000000FC01803FFC01807F7E0028
:1002A000007E1E0000780E8000F006C001E007C04E
:1002B00001E007C001E007E001E00EE001E00EF020
:1002C00001703EFE0370FCFF0778FC9F1F3EF88F15
:1002D000FF3FF003FF1F0000FE0F0000F8030000C7
:1002E0000000000070000000780000007C000000AA
:1002F0007F000080770000E0710000F07000003C9B
:100300007000001E700000077070C0037070E00085
:100310007070F8FFFF7FFCFFFF7FFEFFFF7FFEFF97
:10032000FF7F0000707000007070000070700000AF
:10033000700000000030FEFF0070FEFF0060FEFF56
:1003400000600EF000E00E7000E00E7000E00E7035
:1003500000E00E7000E00EF000600EE000700EE0B5
:1003600001780EC0013C0EC00F3F0E80FF1F0E80B3
:10037000FF0F0E00FF070000FC010000000000005E
:1003800000000000FF0000F0FF0300FCFF0F00FF73
:10039000FF1F80FFFF3FC0FF003FE0770078F07154
:1003A0000070787000F0387000E01C7000E01C7085
:1003B00000E00EF0007006F0017806E0073C07E070
:1003C000FF3F07C0FF1F0280FF0F0000FF07000074
:1003D000FC00FE010000FE010000FE0100C03E0026
:1003E00000F01E0000FC1E0000FF1E0080FF1E002B
:1003F000E0FF1E00F83F1E00FE0F1E80FF011EE002
:100400007F001EF81F001EFE03009EFF0000FE3F3F
:100410000000FE070000FE0100007E0000000E004C
:1004200000000000C003C007F00FF01FF81FF83FE6
:10043000FC3FFC7F7E7E7C7E1F781EFC07700EF0EA
:1004400003E007F001E007E001E007E001E007F06A
:1004500001E00EF003E01EFC07707C7E1F78FC7F3D
:100460007E7EF83FFC3FF01FF81FC007F00F000032
:10047000C003003F0000E0FF0000F0FF0140F8FF74
:1004800003E0FCFF07E03CE007601E800F600E0009
:100490000F7007000E3807000E3807000E1C0F0003
:1004A0000E1E0E008E0F1E00EE07FC00FF03FCFF69
:1004B000FF01F8FFFF00F0FF3F00C0FF0F0000FF4B
:1004C00000000A040808090809080809F001FC07E7
:1004D0001E0F071C03180318071C1E0FFC07F00152
:1004E0000210FF1FFF1F00100000000000000000AE
:1004F00000000000061C071E031F831BC319E7181A
:100500007E183C1800000000060C071C031843105E
:10051000E318E31CBE0F1C0700000000C003E0034B
:10052000300318030C13FE1FFF1F0013000100000F
:100530003F0C7F1C631863106318E31CC30F800714
:1005400000000000F007F80FFC1C6E18261063185E
:10055000E31CC10F8007000007000318031E830778
:10056000E3017B001F000700000000001C07BE0F16
:10057000F319E110E110F3199E0F0C0700000000C1
:100580003C007E10E718C318810CC30EE707FE037A
:10059000FC010000000E601F3019B019B019F00FF7
:1005A000E01F001800000000000000000000000034
:1005B00000000000000000000100FF1FFF1F601886
:1005C00030183018701CE00FC00700000000000059
:1005D000000000000000000000000000C007E00F65
:1005E000701C10103018701C600C0000000000001F
:1005F00000000000000000000000000000000000FB
:100600008007E00F6018301830183108FF1FFF1FF7
:1006100000100000000000000000000000000000CA
:1006200000000000E00FF00FB01D10191011B019FC
:10063000F019E008000000000000000000000000C9
:1006400000000000000000000000000000000000AA
:10065000000000000000000000000000000000009A
:100660000000000000000000000000006076F0FFC5
:1006700098CF088D988DF8CDF8FC08780000000020
:10068000000000000000000000000000000000006A
:100690000110FF1FFF1F6010300030007010E01FBE
:1006A000C01F00100000000000000000000000005B
:1006B000000000001210F71FF21F001000000000E1
:1006C000000000000000000000000000000000002A
:1006D000000000000000000000000000000000001A
:1006E000000000000000000000000000000000000A
:1006F0000000000000000000000000000210FF1FCA
:10070000FF1F00138007E01F601C2018001000006E
:1007100000000000000000000000000000000000D9
:100720000110FF1FFF1F001000000000000000006C
:1007300000000000000000000000000000000000B9
:10074000000000002010F01FF01F6010300070103B
:10075000E01FC01F601030007010E01FC01F0010AD
:1007600000000000000000002010F01FF01F3010FB
:10077000300030007010F01FC01F0010000000009B
:100780000000000000000000000000008007E00FF3
:100790006018301830186018E00F80070000000063
:1007A0000000000000000000000000000000000049
:1007B0001080F8FFF8FF188C1008180C380EF0079E
:1007C000E001000000000000000000000000000048
:1007D0000000000000000000000000000000000019
:1007E0000000000000000000000000000000000009
:1007F00000000000000000001010F01FF01F60104B
:1008000030001000000000000000000000000000A8
:10081000000000000000000000000000C00CF01903
:10082000B0191013301B600E000000000000000023
:1008300000000000000000000000000000000000B8
:100840002000F00FF81F2018200800000000000012
:100850000000000000000000000000000000000098
:10086000000000002000F00FF01F00180010001022
:100870002018F00FF01F0010000000000000000022
:10088000000000000000000010003000F000D00365
:10089000000F001C000FD003F0003000100000001B
:1008A00000000000000000000000000030007000A8
:1008B000F003F00F801F301FF003F003F01F001F44
:1008C000B00FF003700030000000000000000000D6
:1008D00000101018301CF00EC003C003F00E301CC6
:1008E00010180010000000000000000000000000D0
:1008F00000000000000000000000000000000000F8
:1009000000000000000000000000000000000000E7
:1009100000000000000000007018301C301E301B6A
:10092000B019F0187018301C000000000000000022
:10093000000000000000000000000000001000188F
:10094000001EC017F8013E0107013E01F801C01763
:10095000001E001800100000000000000000000051
:100960000318FF1FFF1F6318631863187718DE0C46
:100970008C0F0007000000000000000000000000D5
:100980000000000000000000000000000000000067
:100990000000000000000000000000000000000057
:1009A00000000000000000000318FF1FFF1F0318D5
:1009B000031803180318070C0E0EFC07F8030000B9
:1009C0000000000000000000000000000000000027
:1009D0000000000000000000000000000000000017
:1009E0000000000000000000000000000000000007
:1009F0000110FF1FFF1FC310C300E301030003002A
:100A000007000000000000000000000000000000DF
:100A100000000000000000000000000000000000D6
:100A200000000000000000000000000000000000C6
:100A300000000000000000000000000000000000B6
:100A400000000000000000000000000000000000A6
:100A50000000000000000000000000000000000096
:100A60000000000000000000000000000000000086
:100A70000000000000000000000000000000000076
:100A800000C001E0FF7FFF3F010000000000000008
:100A90000000000000000000000000000000000056
:100AA000000000000110FF1FFF1F6110F0009801FF
:100AB0000D030716031C01180010000000000000C1
:100AC00000000000000000000110FF1FFF1F0118C0
:100AD000001800180018001C001E00000000000094
:100AE0000000000000000000000000000110FF1FD7
:100AF000FF1F7E10F000C003000E000EC003700048
:100B00003E10FF1FFF1F011000000000000000004A
:100B10000110FF1FFF1F1F103C007800F001C003F1
:100B20008107FF1FFF1F0100000000000000000000
:100B300000000000F001BC070E0E0318031801109E
:100B40000110031803180E0EBC07F001000000008E
:100B50000000000000000000000000000000000095
:100B60000000000000000000000000000000000085
:100B70000000000000000000000000000000000075
:100B80000000000000000000000000000000000065
:100B90000000000000000000000000000000000055
:100BA0000000000000000000000000000000000045
:100BB0000000000000000000000000000000000035
:100BC000000000001C0C3E1863186110C110C3190E
:100BD000830F060700000000000000000000000076
:100BE0000000000000000000000000000000000005
:100BF00000000000000000000000000000000000F5
:100C00000000000000000000000000000100FF07DD
:100C1000FF0F010C0018001000100018010CFF0F4E
:100C2000FF070100000000000000000000000000BD
:100C300000000000000000000000000000000000B4
:100C400000000000000000000000000000000000A4
:100C500000000000010003001F00F900C007000EA3
:100C6000011FE3037F007F00E303011F000EC007A5
:100C7000F9001F0003000100000000000000000058
:100C80000000000000000000000000000000000064
:100C90000000000000000000000000000000000054
:100CA0000000000000000000000000000000000044
:100CB0000000000000000000000000000000000034
:100CC0000000000000000000000000000000000024
:100CD0000000000000000000000000000000000014
:100CE00000000000000E601F3419B019B019F40F95
:100CF000E01F0018000000000000000000000000DD
:100D000000000000000000000000000000000000E3
:100D100000000000000000000000000000000000D3
:100D20000000000000000000000000000018001893
:100D300000000000000000000000000000000000B3
:100D400000000000000000000000000000000000A3
:100D50002000F607F60F001C00182018F60FF61FEB
:100D6000001800100000000000000000000000005B
:100D70000000000031392D272300342C2400FF010E
:100D800080FF0380FF0380FF0380FF0380FF038059
:100D9000FF0380FF0380FF03C0FF07E0FF0FF0FFAA
:100DA0001FF8FF3FFCFF3FFEFF7FFEFFFFFEFFFF40
:100DB00000000080000180EF0380FF0310FE087038
:100DC000001CF0831FC6FF471EFFF17C007CF8C3A8
:100DD0003FE0FF0F00FF0100000000018003B01B97
:100DE000701DF01EF01EF01EF01EF01E700E40076B
:100DF000800180018001800180018001800180C12B
:100E000080718079803D801D800F8003800180018A
:100E100080018001800183018E019E01BC01B80127
:100E2000F001C0018001800180018001800180010A
:100E3000800180010E1F3F7E00007E3F1F0E000ECE
:100E40001F3F7E7E3F1F0E0000007000FC01FC0370
:100E5000FE07FE0FFC1FF83FFC1FFE0FFE07FC0302
:100E6000FC0170000000000000020007001F007E6F
:100E700000780078003E000F8007C001E0003000DD
:100E800018000C00060002000000004000E000F026
:100E900000F0FE7F1E0010002000C00711241FBEBE
:100EA000CFEFD8E0DEBFCDBF11E0A0E0B1E0EEE9CA
:100EB000F5E402C005900D92A236B107D9F725E0FE
:100EC000A2E6B1E001C01D92A03EB207E1F70E9488
:100ED000CE200C94CD220C940000449828E030E001
:100EE0004198409888230CF4409A419A880F2150E9
:100EF0003109B1F7449A4098089580E40E946D0743
:100F000081EA0E946D0780EC0E946D0786EA0E94CC
:100F10006D0782EA0E946D078FE20E946D0788EFDD
:100F20000E946D0780E00E946D0787E20E946D07B6
:100F300081E80E946D0786E10E946D078CEA0E949D
:100F40006D0780E00E946D078FEA0E946D0708958B
:100F5000429A0E946D0742980895CF93C82F8F70D0
:100F60000E946D078C2F82958F7080610E946D07A3
:100F7000CF91089580550E946D0708951F93CF93D8
:100F8000DF93D0E010E00FC08C2F0E94BA078D2FA6
:100F90000E94AD07812F0E94A807CF5FC830A1F73C
:100FA000DF5FD03811F0C12FEFCFDF91CF911F91CC
:100FB0000895262F26952695269530E0F90198E08C
:100FC000899FE00DF11D1124E052FE4F31952195CE
:100FD0003109220F331F220F331F220F331F260F19
:100FE000311D81E090E002C0880F991F2A95E2F739
:100FF0009081892B80830895262F26952695269506
:1010000030E0F90198E0899FE00DF11D1124E052D4
:10101000FE4F319521953109220F331F220F331FC7
:10102000220F331F260F311D81E090E002C0880F90
:10103000991F2A95E2F780959081892380830895EE
:10104000DF92EF92FF920F931F93CF93DF930F2EB8
:10105000F0EEEF2EF1E0FF2EF02DD0E0D12C14C0F9
:101060008C2F0E94BA078D2F0E94AD07F801819145
:101070008F010E94A807CF5FC83091F7F8E0EF0E0C
:10108000F11CDF5FD03819F08701CD2DE9CFDF915A
:10109000CF911F910F91FF90EF90DF9008952F92C5
:1010A0003F924F925F926F927F928F929F92AF92F8
:1010B000BF92CF92DF92EF92FF920F931F93CF9345
:1010C000DF9300D000D01F92CDB7DEB77C013B018B
:1010D0004A013B832A83161617060CF058C02A8053
:1010E0002C01C12CD12CA12CB12C09833AC0C801F0
:1010F00011230CF407969595879595958795959569
:101100008795EC81FD81E80FF91F808190E09801BF
:1011100027703078332334F421503109286F3F6F22
:101120002F5F3F4F02C0959587952A95E2F780FF84
:1011300005C0632D822D0E94D90704C0632D822D26
:101140000E94FC070F5F1F4F33940E151F0579F6A1
:101150002FEFA21AB20A2394C40CD51CA614B7040C
:10116000B1F01E141F04A4F7C601DD200CF407968D
:10117000959587959595879595958795398000E004
:1011800010E0FC01E80DF91DFD83EC83B0CF8A81EE
:101190009B81860D971D0F900F900F900F900F90D1
:1011A000DF91CF911F910F91FF90EF90DF90CF9043
:1011B000BF90AF909F908F907F906F905F904F9077
:1011C0003F902F9008953F924F925F926F927F923F
:1011D0008F929F92AF92BF92CF92DF92EF92FF9247
:1011E0000F931F93CF93DF93161617060CF04FC083
:1011F0007C01522E3B01660C771C812C912C312CEA
:10120000412C84E2849F5001859FB00C112437C08B
:10121000FE01DD230CF43796F595E795F595E795F6
:10122000F595E795EC0DFD1DEA0DFB1DEC56FA4F0B
:10123000E491F0E0CE0187709078992324F401972F
:10124000886F9F6F019602C0F595E7958A95E2F742
:10125000E0FF05C0612F852D0E94D90704C0612FD2
:10126000852D0E94FC0721961F5FCE15DF0581F6B4
:10127000539482E0880E911C8614970441F01E144A
:101280001F04B4F76401102FC32DD42DC1CFDF91FB
:10129000CF911F910F91FF90EF90DF90CF90BF9073
:1012A000AF909F908F907F906F905F904F903F9006
:1012B00008952F923F924F925F926F927F928F92FA
:1012C0009F92AF92BF92CF92DF92EF92FF920F93D5
:1012D0001F93CF93DF939A012E533B4F4901F9019E
:1012E0009491992309F45EC0682EC12CD12CA12CB5
:1012F000B12C262E6894552454F8560E312C412CCE
:1013000084E1849F7001859FF00C11243CC0FE0194
:10131000DD230CF43796F595E795F595E795F5956A
:10132000E795E00FF11FEE0DFF1DE453FB4FE49135
:10133000F0E0CE0187709078992324F40197886FAC
:101340009F6F019602C0F595E7958A95E2F7E0FF59
:1013500005C0672D862D0E94D90704C0672D862DF4
:101360000E94FC07219673947510D1CFFFEFAF1A3E
:10137000BF0AF4018491F0E1CF0ED11C639490E098
:10138000A816B9067CF48601DD2014F4095F1F4F0E
:10139000159507951595079515950795722CC32DED
:1013A000D42DB5CFDF91CF911F910F91FF90EF908A
:1013B000DF90CF90BF90AF909F908F907F906F9075
:1013C0005F904F903F902F9008952F923F924F92B1
:1013D0005F926F927F928F929F92AF92BF92CF92C5
:1013E000DF92EF92FF920F931F93CF93DF939A01B7
:1013F00028563E4F4901F9019491992309F45EC0A2
:10140000682EC12CD12CA12CB12C262E68945524E9
:1014100055F8560E312C412C80E5849F7001859F34
:10142000F00C11243CC0FE01DD230CF43796F59539
:10143000E795F595E795F595E795E00FF11FEE0D2A
:10144000FF1DEE55FE4FE491F0E0CE0187709078DD
:10145000992324F40197886F9F6F019602C0F59538
:10146000E7958A95E2F7E0FF05C0672D862D0E947B
:10147000D90704C0672D862D0E94FC07219673941E
:101480007510D1CFFFEFAF1ABF0AF4018491F0E2DB
:10149000CF0ED11C639490E0A816B9067CF48601A7
:1014A000DD2014F4095F1F4F1595079515950795D5
:1014B00015950795722CC32DD42DB5CFDF91CF9103
:1014C0001F910F91FF90EF90DF90CF90BF90AF9062
:1014D0009F908F907F906F905F904F903F902F9054
:1014E0000895843099F028F4813051F0833059F018
:1014F0000895873089F0883089F0863081F409C0FA
:10150000529A5A980895519A59980895539A5B9807
:101510000895509A589A08955F9A0895289A0895C0
:1015200088E00E94710A2FEF81EE94E02150804004
:101530009040E1F700C00000089587E00E94710A22
:101540000895843099F028F4813051F0833059F0B7
:101550000895873089F0883089F0863081F409C099
:101560005A9A52980895599A519808955B9A5398A7
:1015700008955898509808955F9808952898089568
:1015800088E00E94A10A089587E00E94A10A0895B8
:101590000E94C40A0E94900A2FEF81EE94E021502D
:1015A00080409040E1F700C000000E949D0A08952D
:1015B0000E94C40A2FEF81EE94E0215080409040B9
:1015C000E1F700C000000E94C00A089586E00E9472
:1015D000710A2FEF83ED90E3215080409040E1F7B6
:1015E00000C0000086E00E94A10A2FEF81E19AE787
:1015F000215080409040E1F700C00000089581E054
:101600000E94710A2FE785EB91E0215080409040C5
:10161000E1F700C0000081E00E94A10A2FE785EBFE
:1016200091E0215080409040E1F700C00000089513
:1016300086E00E94710A2FE785EB91E021508040FF
:101640009040E1F700C0000086E00E94A10A2FE769
:1016500085EB91E0215080409040E1F700C0000010
:101660000895882381F084E00E94710A2FE785EBBA
:1016700091E0215080409040E1F700C0000084E0FC
:101680000E94A10A0FC083E00E94710A2FE785EB38
:1016900091E0215080409040E1F700C0000083E0DD
:1016A0000E94A10A2FE785EB91E0215080409040F5
:1016B000E1F700C0000008951F920F920FB60F923D
:1016C00011245F936F937F938F939F93AF93BF93F7
:1016D0001A9B14C081E080936E018091620188237F
:1016E00069F0809184019091850105966CE370E02A
:1016F0000E94A5229093D5018093D401199B03C029
:1017000081E080936D01BF91AF919F918F917F9107
:101710006F915F910F900FBE0F901F9018951F92C1
:101720000F920FB60F9211245F936F937F938F9355
:101730009F93AF93BF9389B199B196FB992790F985
:1017400085FB882780F998130AC080916F019091DA
:10175000700101969093700180936F0109C0809190
:101760006F019091700101979093700180936F01C8
:1017700080916201882369F08091840190918501B4
:1017800005966CE370E00E94A5229093D5018093AA
:10179000D401BF91AF919F918F917F916F915F9194
:1017A0000F900FBE0F901F9018951F920F920FB6BB
:1017B0000F9211242F933F938F939F93AF93BF93D7
:1017C0008091730190917401A0917501B09176019F
:1017D0000196A11DB11D8093730190937401A09394
:1017E0007501B093760180918401909185010196F5
:1017F0009093850180938401CC9769F4809177015F
:1018000090917801019690937801809377011092DE
:1018100085011092840180916201882381F02091DA
:101820008401309185018091D4019091D5012817D0
:10183000390729F445982B982C9810926201BF9192
:10184000AF919F918F913F912F910F900FBE0F906D
:101850001F9018951F920F920FB60F9211242F937D
:101860003F934F935F936F937F938F939F93AF9328
:10187000BF93EF93FF932DEB37E346E05CE360917A
:10188000690170916A0180916B0190916C010E94D5
:10189000BA216093690170936A0180936B01909300
:1018A0006C01FF91EF91BF91AF919F918F917F91CB
:1018B0006F915F914F913F912F910F900FBE0F90BD
:1018C0001F9018958FEF84B9219822982698279811
:1018D000289887B98AB95098519852985398549833
:1018E000559856985F98439A449A419A0895E6EB22
:1018F000F0E08081806280831092B200E1EBF0E042
:10190000808185608083E0E7F0E080818160808372
:1019100081E080936E00E8E6F0E08083ABE6B0E023
:1019200082E08C938C9184608C938081846080832E
:1019300080E280936D0008958091820190918301EF
:1019400090937E0180937D0180918001909181012F
:1019500090937C0180937B01809108019091090113
:101960006CE370E00E94A5222091860130918701EE
:10197000820F931F9093810180938001059754F407
:1019800080910A0190910B010196909383018093BD
:101990008201089580910A0190910B019093830137
:1019A0008093820108951F93CF93DF938617970743
:1019B0006CF0DCE519C06C2F8D2F0E94FC07CF5F07
:1019C000C034C9F7DF5FD33119F410C0D0E010E0A4
:1019D000C12FF1CF6C2F8D2F0E94FC07CF5FC03439
:1019E000C9F7DF5FDC3611F0C0E3F4CFDF91CF91B0
:1019F0001F9108950F931F93CF93DF93EC018B01F9
:101A000080916701909168010E94D30CC017D107A3
:101A10009CF48FE08C9F80018D9F100D11240E5F30
:101A20001F4F22E030E04AEA51E060E170E080E1DF
:101A300090E00E944F080CC00FE210E02CE530E06F
:101A40004AEA51E060E170E080E190E00E944F08D6
:101A5000D0936801C0936701DF91CF911F910F91DF
:101A60000895AF92BF92CF92DF92EF92FF920F93C1
:101A70001F93CF93DF937C015B011216130634F59D
:101A8000EA01220F331F6A01C20ED31E4881598119
:101A9000552324F483E0E80EF11C14C0FA01E05A47
:101AA000FE4F649170E08501970180E190E00E9413
:101AB000E308E881F981E05AFE4FE491F0E03196C5
:101AC000EE0EFF1E2296CC15DD0501F7DF91CF91BA
:101AD0001F910F91FF90EF90DF90CF90BF90AF904C
:101AE0000895E0EEF1E020EE35E008C01192E8172D
:101AF000F907E1F7FC012817390719F0CF0108961B
:101B0000F5CF08951092690110926A0110926B014D
:101B100010926C0116BC84E085BD0895F894809104
:101B2000770190917801181619061CF4789481E0D9
:101B30000895789480E008951F93CF93DF93D1E0C8
:101B400011E00AC06C2F8D2F0E94FC07CF5FC131BE
:101B5000C9F7DF5FDA3011F0C12FF4CFDF91CF91F9
:101B60001F9108950F931F93CF93DF93CDB7DEB7E7
:101B700062970FB6F894DEBF0FBECDBFEAE8FEE075
:101B8000DE0111969E012D5E3F4F84918D9331961B
:101B9000A217B307D1F701E010E021E030E0AE0179
:101BA0004F5F5F4F69E070E080E190E00E944F0876
:101BB00062960FB6F894DEBF0FBECDBFDF91CF9116
:101BC0001F910F9108951F93CF93DF93D1E011E000
:101BD0000AC06C2F8D2F0E94FC07CF5FCC30C9F755
:101BE000DF5FD93011F0C12FF4CFDF91CF911F917A
:101BF00008950F931F93CF93DF93CDB7DEB7299747
:101C00000FB6F894DEBF0FBECDBFE4E7FDE0DE0106
:101C100011969E01265F3F4F84918D933196A217B6
:101C2000B307D1F701E010E021E030E0AE014F5FF3
:101C30005F4F69E070E088E090E00E944F082996CD
:101C40000FB6F894DEBF0FBECDBFDF91CF911F91CD
:101C50000F9108956F927F928F929F92AF92BF9251
:101C6000CF92DF92EF92FF920F931F93CF93DF9368
:101C70006C01A82EE12CF12C662E6894992495F81D
:101C8000960E712C812C35C0FE01DD230CF43796A5
:101C9000F595E795F595E795F595E795E00FF11F33
:101CA000E859FF4FE491F0E0CE01877090789923D6
:101CB00024F40197886F9F6F019602C0F595E79510
:101CC0008A95E2F7E0FF05C06B2D8A2D0E94D907A7
:101CD00004C06B2D8A2D0E94FC072196B394B91085
:101CE000D3CF80E2E80EF11CA39480EAE816F10459
:101CF00079F08701FF2014F4095F1F4F15950795B0
:101D00001595079515950795B62CC72DD82DBCCFE1
:101D1000C6010596DF91CF911F910F91FF90EF9033
:101D2000DF90CF90BF90AF909F908F907F906F90FB
:101D300008956AE070E00E94A522FC01E856FE4F7B
:101D4000849190E00296FB01E856FE4F6491860F65
:101D5000911D0895CF93DF93EB010E94990E90930C
:101D6000660180936501CE010E94990E8093630104
:101D70009093640190916501935F890F2FE730E0A4
:101D8000281B3109C90199230CF401969595879573
:101D900090937A0180937901DF91CF910895EF922A
:101DA000FF920F931F93CF93DF93009179011091CE
:101DB0007A016AE070E00E94A522EB017C01AB0190
:101DC00069E070E0C8010E94E509FE01E856FE4F97
:101DD000C491D0E02296C00FD11FA70169E070E046
:101DE000CE010E94E509F701E856FE4FE491CE01CD
:101DF0008E0F911D0496DF91CF911F910F91FF904F
:101E0000EF900895EF92FF920F931F93CF93DF937C
:101E10007C018B018AE0E816F1047CF440E050E09C
:101E200069E070E0C8010E94E509E8E9F1E0E491A9
:101E3000F0E032960E0F1F1F14C0C7016AE070E079
:101E40000E94A522EB01AB0169E070E0C8010E948D
:101E5000E509FE01E856FE4FE491F0E032960E0FE0
:101E60001F1FC7016AE070E00E94A522AC0169E073
:101E700070E0C8010E94E509DF91CF911F910F9199
:101E8000FF90EF9008950F931F93CF93DF930091EE
:101E90000A0110910B01C0918601D091870188231E
:101EA00041F00091820110918301C0918001D09195
:101EB0008101BE01C8010E94AA0EC8010E94CF0E76
:101EC00069E070E00E942A0EBC016C5F7F4FCE017A
:101ED0000E94020FDF91CF911F910F910895161666
:101EE0001706C4F4DC01660F771F680F791F8FEFA8
:101EF0009FEFED91FD91FF2314F4039607C0E05A84
:101F0000FE4FE491F0E031968E0F9F1FA617B707A2
:101F100081F708958FEF9FEF08958F929F92AF9270
:101F2000BF92CF92DF92EF92FF920F931F93CF93C6
:101F3000DF937C01C0E0D0E06B018FEFC81AD80AB4
:101F4000A62EB72E4091040150910501FA01EE0F23
:101F5000FF1FEE0FFF1FEE0FFF1FE40FF51FEC0F2B
:101F6000FD1FEE0FFF1FE857FF4FE4914E2F50E08B
:101F7000463351053CF54630510531F0EF50E23023
:101F800018F04831510519F40C2D1D2D02C00A2DF1
:101F90001B2D4130510519F491E0E91AF108FA01BD
:101FA000E05AFE4F4F01649170E0970180E190E0AC
:101FB0000E94E308F4018490912CFFEF8F1A9F0A8E
:101FC000E80CF91C2196C930D10509F0BBCFDF918F
:101FD000CF911F910F91FF90EF90DF90CF90BF9026
:101FE000AF909F908F900895CF92DF92EF92FF92E3
:101FF0000F931F93CF93DF93EC017B014091060178
:10200000509107014A305105CCF0CA016AE070E0F6
:102010000E94A5228B016C01AB01B701CE010E9489
:102020005909F801EE53FB4FE491CE018E0F911D3B
:10203000A601B70101960E94590902C00E945909E0
:10204000DF91CF911F910F91FF90EF90DF90CF9094
:102050000895CF93DF9380910201909103011816A8
:102060001906ACF42FEF3FEFCAE0D0E0BE010E94AA
:10207000A522FC01EE53FB4FE491F0E031962E0FC8
:102080003F1F862F972F1816190684F302C02FEFD3
:102090003FEFC901DF91CF9108950E9429102FE7EA
:1020A00030E0281B390BC90199230CF40196959552
:1020B000879501960895CF92DF92EF92FF920F934A
:1020C0001F93CF93DF930E944D106C01809102010A
:1020D0009091030168EE73E00E94A522EB017C0160
:1020E000AB0168E270E0C6010E945909FE01EE539F
:1020F000FB4F049110E00F5F1F4F0C0D1D1DC7011A
:1021000064E670E00E94A522EB017C01AB0168E26D
:1021100070E0C8010E945909FE01EE53FB4FC491C3
:10212000D0E021960C0F1D1FC7016AE070E00E94ED
:10213000A522EB017C01AB0168E270E0C8010E94BE
:102140005909FE01EE53FB4FC491D0E0CE01019638
:10215000A70168E270E0800F911F0E945909F70102
:10216000EE53FB4FE491DF91CF911F910F91FF90C0
:10217000EF90DF90CF900895CF93DF93C091060149
:10218000D0910701CE016AE070E00E94A522FC0117
:10219000EE53FB4FE4912E2F30E0CA30D1056CF0A6
:1021A000CE016AE070E00E94A522FB01EE53FB4FD6
:1021B000E491F0E031962E0F3F1FC901DF91CF91DE
:1021C00008956091040170910501660F771FCB019E
:1021D000880F991F880F991F880F991F680F791F03
:1021E000AB0148575F4F66567F4F8FEF9FEFFA0165
:1021F000249130E02533310549F0F901E05AFE4FD2
:10220000249130E02F5F3F4F820F931F4E5F5F4F4F
:102210004617570761F70895CF93DF930E94BC10CC
:10222000EC010E94E1108C0F9D1F0696DF91CF916B
:1022300008950E940C112FE730E0281B390BC901CB
:1022400099230CF4019695958795019608951F930F
:10225000CF93DF93DC01EC0140E050E01FEF9FEFF4
:1022600030C029918FEB820F8A3120F430E0275261
:10227000310921C08FE9820F8A3120F430E02156E4
:10228000310919C02E3261F018F4203261F00EC00D
:10229000243E19F02C3F69F009C024E330E00BC064
:1022A00026E330E008C0212F392F05C0212F392F18
:1022B00002C027E330E0FB0121933193BF014F5F60
:1022C0005F4FFD0101900020E9F73197EA1BFB0BFE
:1022D0004E175F0730F2DF91CF911F9108954F9213
:1022E0005F926F927F928F929F92AF92BF92CF92A6
:1022F000DF92EF92FF920F931F93CF93DF93CDB7AF
:10230000DEB74C015B016A0179016DB67EB60E94B1
:10231000710DF40101900020E9F731978F01081940
:102320001909000F111F8DB79EB7801B910B0FB6B7
:10233000F8949EBF0FBE8DBF01962C01BC01C40155
:102340000E942711980136952795A20163E070E05D
:1023500084E190E00E94310DF50101900020E9F741
:1023600031978F010A191B09000F111F8DB79EB7F6
:10237000801B910B0FB6F8949EBF0FBE8DBF0196C8
:102380004C01BC01C5010E94271198013695279583
:10239000A40162E170E084E190E00E94310DF60159
:1023A00001900020E9F73197EC19FD095F01AA0CB3
:1023B000BB1C8DB79EB78A199B090FB6F8949EBFB8
:1023C0000FBE8DBF0DB71EB70F5F1F4FB801C601FF
:1023D0000E942711950136952795A80161E270E0CA
:1023E00084E190E00E94310DF70101900020E9F7AF
:1023F0003197EE19FF096F01CC0CDD1C8DB79EB72C
:102400008C199D090FB6F8949EBF0FBE8DBF0DB7F6
:102410001EB70F5F1F4FB801C7010E942711960119
:1024200036952795A80160E370E084E190E00E9472
:10243000310D0EE210E02CE630E048E851E061E1B9
:1024400070E080E190E00E944F080FB6F8947EBEE5
:102450000FBE6DBEDF91CF911F910F91FF90EF9056
:10246000DF90CF90BF90AF909F908F907F906F90B4
:102470005F904F900895AF92BF92CF92DF92EF920C
:10248000FF920F931F93CF93DF93CDB7DEB7C05763
:10249000D1090FB6F894DEBF0FBECDBF6C0100E0CE
:1024A0005C0182E1A80EB11CEC2C0F2EF2E1FF2E94
:1024B000F02DFC0C0AC0612F802F0E94FC071F5FCB
:1024C0001F11F9CF0F5F003829F0CA14DB04D4F7CD
:1024D0001E2DF1CF0E9419117C018FE2C816D10484
:1024E00009F08AC080910601909107018E30910514
:1024F00011F58091040190910501019709F07CC0CC
:10250000EAEDFDE0DE011196CE01855A9F4F249140
:102510002D933196A817B907D1F70FE210E02AE200
:1025200030E0AE014F5F5F4F6DE270E080E190E020
:102530000E944F087FC0049709F05EC0809104019B
:1025400090910501079709F057C0BE01655A7F4F6A
:102550008CE091E00E9427116BE070E0CE01855A7B
:102560009F4F0E946F0F2FE730E0281B390BC901E6
:1025700099230CF401968C011595079578018FEF3E
:10258000E81AF80A2BE030E0AE01455A5F4F6FE2DF
:1025900070E0C7010E94310DE8E4FEE0DE01119613
:1025A000CE01819624912D933196A817B907D1F7C2
:1025B0009801235131090FE210E0AE014F5F5F4FE8
:1025C00060E170E080E190E00E944F086BE070E015
:1025D000CE01855A9F4F0E946F0F8E0D9F1D9C014B
:1025E0002C5F3F4FAE014F5F5F4F60E170E080E1D5
:1025F00090E00E944F081EC0B601C7010E94F40F70
:102600000E94BC10E6E9F1E064918E0D9F1D9C01D3
:102610002F5F3F4F70E0860146E350E080E190E09D
:102620000E94E3080E94BC108E0D9F1DB601069605
:102630000E948D0FC059DF4F0FB6F894DEBF0FBE5A
:10264000CDBFDF91CF911F910F91FF90EF90DF9061
:10265000CF90BF90AF9008950E94710D80E00E94CE
:10266000430F8FE290E00E943B1280917201811132
:102670000E94B20D0E942008089580916D01882368
:1026800009F476C00E94820D199B2BC020E030E037
:1026900040EC5FE36091690170916A0180916B0188
:1026A00090916C010E9426228823DCF42FE788E3B6
:1026B00091E0215080409040E1F700C00000199B5C
:1026C00010C020E030E040EC5FE360916901709160
:1026D0006A0180916B0190916C010E9426228823EF
:1026E0002CF315BC20E030E040EC5FE36091690121
:1026F00070916A0180916B0190916C010E94A022FF
:102700001816FCF48091710181111BC09091720127
:1027100081E0892780937201811110C080917D0131
:1027200090917E01909383018093820180917B013F
:1027300090917C0190938101809380010E942C13E1
:1027400013C0459A2B9A2C9A80918401909185010F
:1027500005966CE370E00E94A5229093D5018093CA
:10276000D40181E080936201F89410926D01789415
:1027700008958091060190910701019690930701B9
:10278000809306012091000130910101281739073B
:102790004CF581E090E09093070180930601E09171
:1027A0000401F09105013196F0930501E0930401D5
:1027B000E130F10579F48091020190910301837079
:1027C0009927892B39F48DE190E090930101809352
:1027D000000108C0E458FF4FE491F0E0F0930101DC
:1027E000E093000180910401909105010C9769F438
:1027F0001092050110920401809102019091030151
:10280000019690930301809302018FE290E00E9471
:102810003B1208950F931F93CF93DF93009179019B
:1028200010917A010038110574F010C06C2F802FC0
:102830000E94FC07CF5FC932C9F70F5F1F4F0038F6
:10284000110511F403C0D9E0CD2FF0CF209177010D
:10285000309178018091860190918701820F931FBA
:1028600090938701809386011092780110927701EE
:102870008C3391058CF06CE370E00E94A52290935C
:1028800087018093860180910A0190910B01019646
:1028900090930B0180930A0180910A0190910B01A2
:1028A000489734F010920B0110920A010E94B9135C
:1028B00080E00E94430F0E942008DF91CF911F917A
:1028C0000F91089580916E01811134C080916F0144
:1028D00090917001892B71F580916D0181112AC051
:1028E0008091770190917801892B21F5A3EBB0E0DD
:1028F00021E0E6EBF0E083B7816083BF83B78660B9
:1029000083BF2C93808183FDFDCF889580916E01DC
:10291000811110C080916F0190917001892B51F449
:1029200080916D01811106C08091770190917801AD
:10293000892B09F30895CF93DF930E94E60A8091D3
:102940007F01811102C00E94FF0A0E94180B2FEF25
:1029500089E698E1215080409040E1F700C00000F6
:102960000E94C80A459A2C9A2B9AC0918401D09152
:1029700085016E9610C00E9462140E948E0D0E9406
:102980000A148091840190918501C817D90719F420
:1029900045982C982B9880916D0181110AC08091E7
:1029A0006F0190917001892B21F480916E01882331
:1029B00011F345982C982B9880917F0181115EC06E
:1029C00080916D01882309F44DC00E94820D199BEE
:1029D0002BC020E030E040EC5FE360916901709132
:1029E0006A0180916B0190916C010E9426228823DC
:1029F000DCF42FE788E391E0215080409040E1F73C
:102A000000C00000199B10C020E030E040EC5FE304
:102A10006091690170916A0180916B0190916C01E4
:102A20000E94262288232CF315BC20E030E040ECE5
:102A30005FE36091690170916A0180916B019091EF
:102A40006C010E94A02288230CF067C00E949C0D9C
:102A50000E94F90D0E9420080E949C0C81E0809346
:102A60007F015BC00E949C0D0E94F90D0E9420080E
:102A70000E949C0C81E080937F014FC00E946214F1
:102A80000E948E0D81110E940A140E94820D199BD2
:102A90004BC020E030E040EC5FE360916901709151
:102AA0006A0180916B0190916C010E94262288231B
:102AB000DCF52FE788E391E0215080409040E1F77A
:102AC00000C00000199B30C020E030E040EC5FE324
:102AD0006091690170916A0180916B0190916C0124
:102AE0000E94262288232CF31FC0109272010E949C
:102AF0009C0D0E94E30D10927F0180917D019091C9
:102B00007E01909383018093820180917B0190915B
:102B10007C0190938101809380010E94180B0E9498
:102B2000D80A0E94E60A13C015BC20E030E040EC51
:102B30005FE36091690170916A0180916B019091EE
:102B40006C010E94A02288230CF498CFCECFDF9195
:102B5000CF910895EF92FF920F931F93CF93DF933E
:102B60008C01EB01BC01CE010E94FA0C0E942008EE
:102B7000F8941092700110926F0110926E01789487
:102B800080916E0181112CC078018FEFE81AF80A4C
:102B900080916F0190917001892BD1F0F894809110
:102BA0006F01909170018C0F9D1F10927001109217
:102BB0006F017894B7010E94A522EC01992314F4C7
:102BC000CE0DDF1DB801CE010E94FA0C0E94200834
:102BD0000E9462140E943D1390916E019923C1F2EC
:102BE000F89410926E017894CE01DF91CF911F91ED
:102BF0000F91FF90EF900895BF92CF92DF92EF92E6
:102C0000FF920F931F93CF93DF9320916E012111B9
:102C1000B6C0B42E6B017C01D0E080916F01909121
:102C20007001892B09F4A2C0F894F7012081318149
:102C300080916F0190917001820F931F9183808327
:102C40001092700110926F0180819181B6010E94F3
:102C5000A52299231CF09183808305C08C0D9D1DB6
:102C6000F7019183808310928501109284017894FA
:102C70000091790110917A0180916501909166012E
:102C8000800F911F2091630130916401820F931F87
:102C90000D9608171907FCF020C06C2F802F0E949A
:102CA000FC07CF5FC932C9F70F5F1F4F2091790131
:102CB00030917A018091650190916601280F391F4A
:102CC0004091630150916401240F351F235F3F4FF2
:102CD0000217130714F4CD2FE0CF8B2D0E94430F62
:102CE000FCE3CF16D10421F52091790130917A01CE
:102CF0008091650190916601280F391F235F3F4F36
:102D0000809163019091640199230CF4019695954B
:102D10008795280F391F2450310902E010E04AEC52
:102D200051E06AE070E088E090E00E944F081CC02B
:102D30002091650130916601332314F42F5F3F4FDA
:102D4000359527958091790190917A01280F391F47
:102D50002450310902E010E04AEC51E06AE070E0F2
:102D600088E090E00E944F080E9420080E946214B0
:102D70000E943D1380916E01882309F44ECFF89490
:102D800010926E017894DF91CF911F910F91FF9077
:102D9000EF90DF90CF90BF9008954F925F926F9227
:102DA0007F928F929F92AF92BF92CF92DF92EF92DB
:102DB000FF920F931F93CF93DF93C82E60918601EC
:102DC0007091870180910A0190910B010E94AA0ED7
:102DD000CC20B9F0609180017091810180918201D5
:102DE000909183010E94AA0E0F2EF0E84F2EF1E081
:102DF0005F2EF02D0F2EF2E86F2EF1E07F2EF02DDA
:102E00000CC00F2EF6E84F2EF1E05F2EF02D0F2EA6
:102E1000FAE06F2EF1E07F2EF02DF89410926E0103
:102E200078940E94710D8C2D0E94430F0EE210E0E9
:102E30002CE630E048E851E061E170E080E190E0AC
:102E40000E944F0880918201909183010E94990E07
:102E500099230CF4019695958795209179013091ED
:102E60007A01820F931F9C012450310902E010E087
:102E700046ED51E06AE070E088E090E00E944F0883
:102E80000E942008C1E0D0E0E12CF12C0F2EF3E0ED
:102E90008F2E912CF02DA12CBA2C6894DD24D1F822
:102EA00069C180916F0190917001009709F49AC0F7
:102EB0008E0D9F1DF8941092700110926F017894FE
:102EC000B4010E94A5227C0199230CF058C123E093
:102ED000E20EF11C54C16C2F8D2F0E94FC07CF5FB6
:102EE000CA30C9F7DF5FD03811F41FC0DB2DCD2DFC
:102EF000F2CF6C2F8D2F0E94FC07CF5FCA30C9F72D
:102F0000DF5FD03811F411C0DB2DCD2DF2CF6C2F47
:102F10008D2F0E94FC07CF5FCC33C9F7DF5FD63619
:102F200011F403C0DCE5C4E3F2CF81E0E816F1045C
:102F300031F122E0E216F10409F445C0E114F10494
:102F400009F04DC0809165019091660199230CF4C0
:102F50000196959587952091790130917A01820F9C
:102F6000931F9C012450310902E010E046ED51E02E
:102F70006AE070E088E090E00E944F0830C0209145
:102F8000790130917A018091650190916601280F55
:102F9000391F235F3F4F8091630190916401992312
:102FA0000CF4019695958795280F391F2450310907
:102FB00002E010E046ED51E06AE070E088E090E069
:102FC0000E944F080CC004E310E02CE530E046ED11
:102FD00051E06AE070E088E090E00E944F080E94B3
:102FE0002008E7010E9462140E943D1380916E0147
:102FF000882309F456CFF894A0926E01789481E06A
:10300000E816F10409F44AC022E0E216F10409F4DA
:1030100094C0E114F10409F0A7C08091650190917A
:10302000660199230CF40196959587952091790175
:1030300030917A01820F931F9C012450310902E0E4
:1030400010E04AEC51E06AE070E088E090E00E9415
:103050004F080E9420084C2D68E170E0C3010E94D7
:10306000FC15809165019091660199230CF40196FD
:10307000959587952091790130917A01820F931F60
:103080009C012450310902E010E046ED51E06AE075
:1030900070E088E090E00E944F087DC020917901A7
:1030A00030917A018091650190916601280F391F56
:1030B000235F3F4F809163019091640199230CF449
:1030C000019695958795280F391F2450310902E004
:1030D00010E04AEC51E06AE070E088E090E00E9485
:1030E0004F080E9420084C2D6CE370E0C2010E9442
:1030F000FC152091790130917A01809165019091C0
:103100006601280F391F235F3F4F80916301909123
:10311000640199230CF4019695958795280F391F22
:103120002450310902E010E046ED51E06AE070E021
:1031300088E090E00E944F082EC010928501109206
:103140008401F8941092B2001092730110927401ED
:103150001092750110927601109278011092770109
:1031600078940E9420081AC00E94200882E0E81685
:10317000F104A1F080916E0181113DCF92CEC1305A
:10318000D10509F4C1CEC230D10509F4CBCECD2B87
:1031900009F0CBCEABCE0E942008ECCFDF91CF91CF
:1031A0001F910F91FF90EF90DF90CF90BF90AF9065
:1031B0009F908F907F906F905F904F90089581E0E7
:1031C0000E94CD160895EF92FF920F931F93CF9315
:1031D000DF93F89410926E01789480916E018111C2
:1031E0007CC0E12CFE2C80916F01909170010097C2
:1031F00009F467C02091060130910701820F931FE7
:103200009093070180930601F89410927001109238
:103210006F017894809106019091070118161906A4
:103220006CF0E0910401F0910501E458FF4FE49146
:103230008E0F911D9093070180930601E091040188
:10324000F0910501E458FF4F24918091060190917F
:10325000070130E0281739070CF03DC0E4918E1BC0
:103260009109909307018093060135C06C2F8D2F33
:103270000E94FC07CF5FCA30C9F7DF5FD03811F07A
:10328000CF2DF4CF8CE090E00E943B120E941911E8
:10329000EC010E94BC1099230CF401969C01359519
:1032A00027952C0F3D1F2450310902E010E04AEC15
:1032B00051E06AE070E088E090E00E944F080E94D0
:1032C00020080E9462140E943D1380916E018823A1
:1032D00009F489CF02C0DE2DD3CFDF91CF911F91AA
:1032E0000F91FF90EF900895CF92DF92EF92FF92AF
:1032F0000F931F93CF93DF93F89410926E017894FD
:1033000080916E01811182C00F2EFCE0CF2ED12C56
:10331000F02DE12CFE2C80916F01909170010097AF
:1033200009F468C02091040130910501820F931FB8
:103330009093050180930401F8941092700110920B
:103340006F0178948091040190910501B6010E946B
:10335000A52299232CF0909305018093040105C0C8
:103360000C969093050180930401E0910401F09183
:103370000501E458FF4F849190E0209106013091BF
:103380000701821793070CF03FC0849190E090935F
:1033900007018093060138C06C2F8D2F0E94FC0717
:1033A000CF5FCA30C9F7DF5FD03811F0CF2DF4CF2F
:1033B000C6010E943B120E941911EC010E94BC1030
:1033C000C80FD91F0E94E11099230CF4019695951E
:1033D00087959E01280F391F2450310902E010E023
:1033E0004AEC51E06AE070E088E090E00E944F080B
:1033F0000E9420080E9462140E943D1380916E0179
:10340000882309F488CF02C0DE2DD0CFDF91CF9181
:103410001F910F91FF90EF90DF90CF900895CF9282
:10342000DF92EF92FF920F931F93CF93DF93F89465
:1034300010926E01789480916E0181117AC0E12C16
:103440000F2EFEE1FF2EF02D0F2EFFE0CF2EF7E224
:10345000DF2EF02D80916F0190917001009709F49B
:103460005FC02091020130910301820F931F90935E
:10347000030180930201F8941092700110926F0181
:103480007894809102019091030199232CF4D092B9
:103490000301C092020118C0803127E29207A4F014
:1034A0008051974290930301809302010DC06C2FCD
:1034B0008D2F0E94FC07CF5FC832C9F7DF5FD0387D
:1034C00021F41E2DDC2F0DC0DE2DCF2DF0CF6C2F63
:1034D000812F0E94FC07CF5FC933C9F71F5F1A35E0
:1034E00011F0CD2FF4CF0E945B100E944D10EC0123
:1034F0000E94291099230CF401969C01359527957B
:103500002C0F3D1F245031090EE110E04AEC51E030
:103510006AE070E088E090E00E944F080E94200876
:103520000E9462140E943D1380916E01882309F469
:1035300091CF0E9462140E943D13DF91CF911F91A1
:103540000F91FF90EF90DF90CF900895AF92BF92D0
:10355000CF92DF92EF92FF920F931F93CF93DF935F
:103560000E94710D8CE090E00E943B120E945B1063
:103570000EE210E02CE630E048E851E061E170E056
:1035800080E190E00E944F080E941911EC010E9416
:10359000BC1099230CF401969C01359527952C0FAE
:1035A0003D1F2450310902E010E046ED51E06AE091
:1035B00070E088E090E00E944F080E942008E12C13
:1035C000F12CC0E0D0E0A12CBA2C0F2EFEE1CF2EC2
:1035D000F02DDA2CF894A0926E01789480916E010F
:1035E0008111D4C080916F0190917001009709F40E
:1035F000C4C08E0D9F1DF8941092700110926F013F
:10360000789483709078992324F401978C6F9F6F3E
:1036100001967C0199230CF080C124E0E20EF11C9C
:103620007CC16C2F8D2F0E94FC07CF5FCA30C9F779
:10363000DF5FD03811F42DC0DB2DCD2DF2CF6C2FF4
:103640008D2F0E94FC07CF5FCA30C9F7DF5FD038EB
:1036500011F41FC0DB2DCD2DF2CF6C2F8D2F0E94CA
:10366000FC07CF5FC832C9F7DF5FD03811F411C053
:10367000DB2DCC2DF2CF6C2F8D2F0E94FC07CF5F5E
:10368000CC33C9F7DF5FD83611F403C0DEE5C4E3FD
:10369000F2CF81E0E816F10449F124F4E114F104D9
:1036A00059F068C082E0E816F104F1F123E0E21677
:1036B000F10409F453C05EC00E941911EC010E948C
:1036C000BC1099230CF401969C01359527952C0F7D
:1036D0003D1F2450310902E010E046ED51E06AE060
:1036E00070E088E090E00E944F0844C00E941911E9
:1036F000EC010E94BC10C80FD91F0E94E110992351
:103700000CF401969C01359527952C0F3D1F2450F4
:10371000310902E010E046ED51E06AE070E088E037
:1037200090E00E944F0826C00E944D10EC010E94BC
:10373000291099230CF401969C01359527952C0F9F
:103740003D1F245031090EE110E046ED51E06AE0E2
:1037500070E088E090E00E944F080CC004E310E0A5
:103760002EE530E046ED51E06AE070E088E090E060
:103770000E944F080E942008E7010E9462140E94E4
:103780003D1380916E01882309F42CCFF894A09208
:103790006E01789481E0E816F10409F440C022E05B
:1037A000E216F10409F47AC0E114F10409F0ADC0A5
:1037B0000E9419118C010E94BC1099230CF40196EF
:1037C0009C0135952795200F311F2450310902E0C7
:1037D00010E04AEC51E06AE070E088E090E00E947E
:1037E0004F080E9420080E94E3180E9419118C01C2
:1037F0000E94BC1099230CF401969C0135952795E5
:10380000200F311F2450310902E010E046ED51E055
:103810006AE070E088E090E00E944F088FC00E944C
:1038200019118C010E94BC10080F191F0E94E11091
:1038300099230CF401969C0135952795200F311F93
:103840002450310902E010E04AEC51E06AE070E0F7
:1038500088E090E00E944F080E9420080E9474199E
:103860000E9419118C010E94BC10080F191F0E94A0
:10387000E11099230CF401969C0135952795200FB2
:10388000311F2450310902E010E046ED51E06AE0BA
:1038900070E088E090E00E944F0850C00E944D10F8
:1038A0008C010E94291099230CF401969C013595F6
:1038B0002795200F311F245031090EE110E04AEC0A
:1038C00051E06AE070E088E090E00E944F080E94BA
:1038D00020080E940F1A0E944D108C010E9429108E
:1038E00099230CF401969C0135952795200F311FE3
:1038F000245031090EE110E046ED51E06AE070E03D
:1039000088E090E00E944F0819C00E94200883E0E0
:10391000E816F10409F05ECE14C0C130D10509F4F7
:1039200099CE24F4CD2B09F487CEB3CEC230D10585
:1039300009F49ECE239709F4A9CEABCE0E942008AD
:1039400049CEDF91CF911F910F91FF90EF90DF90C3
:10395000CF90BF90AF900895CF92DF92EF92FF92F9
:103960000F931F93CF93DF93CDB7DEB7C557D10920
:103970000FB6F894DEBF0FBECDBF10926E010E944D
:10398000710D0E94BE070EE210E02CE630E048E820
:1039900051E061E170E080E190E00E944F08BE01DB
:1039A0006F5F7F4F88E191E00E9427112CE030E0AB
:1039B000AE014F5F5F4F60E170E084E190E00E94F4
:1039C000310D0E9420080E94E60A0E94180B2FEF7A
:1039D00089E698E1215080409040E1F700C0000066
:1039E0000E94C80AEDE7FDE0DE0159969E012A58C3
:1039F0003F4F84918D933196A217B307D1F70E9460
:103A0000710D0E94BE070EE210E02CE630E048E89F
:103A100051E061E170E080E190E00E944F0804E134
:103A200010E020E330E0AE01475E5F4F6FE170E0F1
:103A300088E190E00E944F081092700110926F018F
:103A4000E12CF12C6894CC24C1F8DC2CA9C0809125
:103A50006F0190917001E80EF91EC7018170907896
:103A6000992324F401978E6F9F6F01967C0199230F
:103A70000CF0B1C022E0E20EF11CADC0612F8CE36E
:103A80000E94FC071F5F1B30C9F702E010E02CE327
:103A900030E046ED51E06AE070E088E090E00E949E
:103AA0004F080CE50AC0612F802F0E94FC071F5FA2
:103AB0001034C9F70F5F0C36E1F01FE2F4CF0FE2CC
:103AC00010E02CE530E04AEA51E060E170E080E18E
:103AD00090E00E944F0808E30AC0612F802F0E94E7
:103AE000FC071F5F1B30C9F70F5F083411F01D2D55
:103AF000F4CF0E9420080E9462140E943D1380911E
:103B00006E01882309F4A3CF10926E0108E30AC066
:103B1000612F802F0E94FC071F5F1B30C9F70F5FCA
:103B2000083411F01C2DF4CFE114F104A9F502E0E2
:103B300010E02BE330E04AEC51E06AE070E088E00E
:103B400090E00E944F080E94200810926E01809120
:103B50006E0181111EC00E94621480916F019091CC
:103B600070011816190644F481E00E94310B10927E
:103B7000700110926F0107C080E00E94310B10921B
:103B8000700110926F010E943D1380916E01882395
:103B900011F310926E0104C081E0E816F10429F0DF
:103BA00080916E018111B0CF52CF0E94710D0E94A1
:103BB000BE072CE030E0AE014F5F5F4F60E170E088
:103BC00084E190E00E94310D0E9420080E94D80AF2
:103BD0000E94E60A12C01092700110926F01E11467
:103BE000F10409F06CCF1C2D612F8BE30E94FC07C0
:103BF0001F5F1B30C9F71C2D41CFCB58DF4F0FB6CD
:103C0000F894DEBF0FBECDBFDF91CF911F910F9112
:103C1000FF90EF90DF90CF9008950F931F93CF9375
:103C2000DF93CDB7DEB7C854D1090FB6F894DEBF25
:103C30000FBECDBF0E94C80A0E94BE070E94710D30
:103C4000EAE8FEE0DE0111969E01275B3F4F84917A
:103C50008D933196A217B307D1F708E110E027E35F
:103C600030E0AE014F5F5F4F69E070E080E190E0CF
:103C70000E944F080EE210E02CE630E048E851E0E8
:103C800061E170E080E190E00E944F080FE210E0F7
:103C90002CE530E04AEA51E060E170E080E190E03C
:103CA0000E944F080E94200880916E01811108C077
:103CB0000E9462140E943D1380916E018823C1F31B
:103CC0000E94D80AC85BDF4F0FB6F894DEBF0FBE64
:103CD000CDBFDF91CF911F910F910895EF92FF9289
:103CE0000F931F93CF93DF93209108013091090127
:103CF000C9016AE070E00E94A522FC01E856FE4F6F
:103D0000E491EE2EF12C2A3031055CF0C9016AE015
:103D100070E00E94A522FB01E856FE4FE491EE0EF2
:103D2000F11CD0E019E00AC06C2F8D2F0E94FC0717
:103D3000CF5FC932C9F7DF5FD03811F0C12FF4CFA0
:103D400080910801909109018A3091055CF19701F9
:103D5000FF2014F42F5F3F4F35952795C0E4D0E046
:103D6000C21BD30B0AE010E0B8010E94A522AB01F0
:103D700069E070E0CE010E94E50980910801909110
:103D80000901B8010E94A522FB01E856FE4F64918B
:103D9000C60FD11DAC0169E070E0CE0102960E9411
:103DA000E50910C09701FF2014F42F5F3F4F3595B0
:103DB0002795AC0169E070E080E490E0821B930BF2
:103DC0000E94E509DF91CF911F910F91FF90EF9035
:103DD00008952F923F924F925F926F927F928F92AF
:103DE0009F92AF92BF92CF92DF92EF92FF920F938A
:103DF0001F93CF93DF9300D000D000D0CDB7DEB7B4
:103E000010926E010E94710D0E94BE070EE210E03A
:103E10002CE630E048E851E061E170E080E190E0BC
:103E20000E944F08C12CD12C0F2EFAE04F2E512C9E
:103E3000F02D6894EE24E1F8FE2C6894882486F82E
:103E4000912C0F2EF3E62F2E312CF02D0F2EF9E0B2
:103E50007F2EF02D2091080130910901C901B20196
:103E60000E94A522FC01E856FE4FE491AE2EB12C33
:103E70002A30310554F0C901B2010E94A522FB018C
:103E8000E856FE4FE491AE0EB11C0E946E1E80916A
:103E90006E0181115AC080916F0190917001C80E1E
:103EA000D91EC60181709078992324F401978E6FF2
:103EB0009F6F01966C0199231CF422E0C20ED11C65
:103EC0001092700110926F01C114D104C9F402E084
:103ED00010E02CE330E046ED51E0B20188E090E0E4
:103EE0000E944F080CE50AC0612F802F0E94FC073A
:103EF0001F5F1034C9F70F5F0C36E1F01FE2F4CFFB
:103F00000FE210E02CE530E04AEA51E060E170E0B9
:103F100080E190E00E944F0808E30AC0612F802FE3
:103F20000E94FC071F5F1B30C9F70F5F083411F0B8
:103F30001F2DF4CF0E9420080E9462140E943D139E
:103F400080916E01882309F4A6CF10926E0108E3D8
:103F50000AC0612F802F0E94FC071F5F1B30C9F72A
:103F60000F5F083411F01E2DF4CFC114D10409F0F5
:103F700071C002E010E02BE330E04AEC51E0B20106
:103F800088E090E00E944F080E94200880916E0116
:103F900081115DC0C50199230CF401969595879513
:103FA0005401A81AB90AFC01E05CFF4FFA83E983C7
:103FB0006A2C0B2D80916F0190917001892BD1F1AA
:103FC00029813A81A216B3069CF016C0612F8D811B
:103FD0000E94FC071F5F1932C9F78D819E810196EF
:103FE0009E838D83E981FA818E179F071CF004C0A0
:103FF0006D820E83172DEACF2091080130910901BF
:1040000080916F0190917001820F931FB1010E9406
:10401000A52299232CF0909309018093080106C0F2
:104020008D599F4F90930901809308011092700160
:1040300010926F010E946E1E0E9420080E9462145E
:104040000E943D1380916E01882309F4B3CF109232
:104050006E0100CFF1E0CF16D10409F0FBCE269619
:104060000FB6F894DEBF0FBECDBFDF91CF911F9189
:104070000F91FF90EF90DF90CF90BF90AF909F9007
:104080008F907F906F905F904F903F902F9008950A
:10409000CF93DF93C1E0D0E017C00E94E91E14C0A7
:1040A0000E94AC1C11C00E940D1E0EC00E942C1359
:1040B00006C00E942C13CE010197039728F081E0DF
:1040C000CD2B19F180E021C025E231E04DE251E035
:1040D00068E371E084E491E00E946F110E9420087F
:1040E000BE0184E090E00E94AA15EC0182309105A7
:1040F000B9F22CF4009719F3019779F2DACF8330F3
:10410000910589F2049791F2D4CFDF91CF91089570
:104110001F93CF93DF93C0E0D0E011E024E431E0BF
:104120004AE451E060E571E088E591E00E946F119A
:104130000E942008BE0184E090E00E94AA15EC01D4
:1041400082309105A9F02CF4009749F0019759F0BD
:1041500019C08330910581F0049789F013C00E9443
:10416000DF18812F15C080E00E94CD16812F10C06E
:104170000E94A61A812F0CC00E94482009C00E94EC
:104180002C1308C00E942C13C430D1053CF202C08D
:104190008111C4CFDF91CF911F9108952FEF89E650
:1041A00098E1215080409040E1F700C000000E945B
:1041B000620C0E94770C0E947D070E94BE070E943D
:1041C0002C1378940F2EF8E4CF2EFEE0DF2EF02D86
:1041D0000F2EFAEAEF2EF1E0FF2EF02D0AEC11E09F
:1041E0000F2EF6ED8F2EF1E09F2EF02D0F2EFAEC14
:1041F000AF2EF1E0BF2EF02D0F2EF8E66F2EFEE071
:104200007F2EF02D0F2EF8E84F2EF1E05F2EF02DCF
:10421000CAEAD1E03324339480916D0181110E9468
:104220003D1380916F0190917001892B21F01092C4
:10423000700110926F010E948E0D882309F1809108
:104240007101811102C00E940A1420910A0130916B
:104250000B0180918201909183012817390781F425
:104260002091860130918701809180019091810198
:104270002817390729F48091720181110E949B143B
:1042800080916E01882309F45DC00E94820D1A9B03
:104290005CC020E030E040EC5FE360916901709128
:1042A0006A0180916B0190916C010E942622882303
:1042B0000CF04BC0EFE7F8E321E0E150F040204084
:1042C000E1F700C000001A9B40C020E030E040EC65
:1042D0005FE36091690170916A0180916B01909137
:1042E0006C010E94262288232CF32FC084918D9389
:1042F0003196A017B107D1F79401D50180E090E085
:10430000FC01E25CF14F4491F90141939F01FC01F2
:10431000EC5CF14FE491ED9301968A30910581F7C1
:10432000F301D20184918D933196AC17BD07D1F77B
:104330003092710181E090E00E94882010926E011D
:10434000109271010E94621467CF15BC20E030E02A
:1043500040EC5FE36091690170916A0180916B01AB
:1043600090916C010E94A022181644F7F601D70123
:10437000BDCF5058BB27AA270E94D1210C9466229A
:104380000E94582238F00E945F2220F039F49F3FAB
:1043900019F426F40C9455220EF4E095E7FB0C94E6
:1043A0004F22E92F0E94772258F3BA17620773074A
:1043B0008407950720F079F4A6F50C9499220EF461
:1043C000E0950B2EBA2FA02D0B01B90190010C0125
:1043D000CA01A0011124FF27591B99F0593F50F43D
:1043E000503E68F11A16F040A22F232F342F442795
:1043F000585FF3CF469537952795A795F04053958D
:10440000C9F77EF41F16BA0B620B730B840BBAF05C
:104410009150A1F0FF0FBB1F661F771F881FC2F7C7
:104420000EC0BA0F621F731F841F48F487957795DB
:104430006795B795F7959E3F08F0B0CF9395880F95
:1044400008F09927EE0F9795879508950E942B22E3
:1044500008F481E00895990F0008550FAA0BE0E8D1
:10446000FEEF16161706E807F907C0F01216130636
:10447000E407F50798F0621B730B840B950B39F476
:104480000A2661F0232B242B252B21F408950A26DC
:1044900009F4A140A6958FEF811D811D089597F91C
:1044A0009F6780E870E060E008959FEF80EC0895DA
:1044B00000240A9416161706180609060895002403
:1044C0000A9412161306140605060895092E03947D
:1044D000000C11F4882352F0BB0F40F4BF2B11F4F1
:1044E00060FF04C06F5F7F4F8F4F9F4F089557FD50
:1044F0009058440F551F59F05F3F71F04795880F52
:1045000097FB991F61F09F3F79F0879508951216E8
:1045100013061406551FF2CF4695F1DF08C0161694
:1045200017061806991FF1CF869571056105089445
:104530000895E894BB2766277727CB0197F908955C
:104540000E942B2208F48FEF089597FB072E16F494
:10455000009407D077FD09D00E94B92207FC05D04E
:104560003EF4909581959F4F0895709561957F4F8A
:104570000895AA1BBB1B51E107C0AA1FBB1FA617AA
:10458000B70710F0A61BB70B881F991F5A95A9F7FC
:0E45900080959095BC01CD010895F894FFCF61
:10459E001F00DF070B00180005000E00416C6C6554
:1045AE0073204C6965626500426974746520776199
:1045BE007274656E00426F6F6D626F78004C61753C
:1045CE00747374E4726B6500536E6F6F7A65646119
:1045DE00756572002E202E202E00446174756D00BC
:1045EE005568727A656974005765636B7A6569748C
:0245FE000000BB
:00000001FF
