:100000000C9428070C94700A0C9445070C9445072F
:100010000C943C0A0C9445070C9445070C94450736
:100020000C9445070C94BC0A0C9445070C944507A6
:100030000C9445070C9445070C9445070C94450710
:100040000C94230B0C9445070C9445070C9445071E
:100050000C9445070C9445070C9445070C944507F0
:100060000C9445070C9445078003C001C007E003CA
:10007000C007E003C007E0038003C0011F1C1F1E70
:100080001F1E1F1F1E1F1E1F230000000D00140037
:10009000000011003500350035001F00040001008C
:1000A0001100140000001100350035002600340056
:1000B00011001900350035003500350035001A00F3
:1000C0000F00110008000B00350035003500350029
:1000D00026000000080035003500350035003500E9
:1000E0003500230014000D000800350035003500F0
:1000F00035003500230014000B00080035003500E2
:100100003500350035001A001400060014001200F6
:1001100013003500350035002C0004000F001300DB
:1001200004000C0001000400110028000A00130064
:100130000E000100040011003500350027000E00FC
:10014000150004000C0001000400110035001D0022
:100150000400190004000C00010004001100350027
:10016000080907090800080A040009040D0A08091B
:10017000000606060A0B000A00080D0A000B00091B
:10018000000000050B090E0C0C00000008000C001C
:10019000120000000800020A140E131414121414A2
:1001A000141400F00F0000FFFF07E0FFFF0FF0FF47
:1001B000FF1FF80FF03F7C00007F1E0000780F004B
:1001C00000F0070000E0070000E0070000E0070083
:1001D00000E00F0000F01E0000787C00007FF80FA8
:1001E000F03FF0FFFF1FE0FFFF0F00FFFF0700F0F1
:1001F0000F00100000001000000018000070180030
:1002000000701C0000701C000070FCFFFF7FFEFFF0
:10021000FF7FFEFFFF7FFEFFFF7F000000700000FA
:10022000007000000070000000700000000000007E
:1002300000000000000000000000000000000000BE
:10024000000000000070FC010078FC01007C7E00D2
:10025000007E1E00007F0E00807F0E00C07707002A
:10026000E0730700F0710700F87007007C700E0063
:100270003E701E001F701E800F703CC00770FCF0A7
:100280000370F8FF0170F0FF0070E07F0070000065
:10029000000000000000FC01803FFC01807F7E0028
:1002A000007E1E0000780E8000F006C001E007C04E
:1002B00001E007C001E007E001E00EE001E00EF020
:1002C00001703EFE0370FCFF0778FC9F1F3EF88F15
:1002D000FF3FF003FF1F0000FE0F0000F8030000C7
:1002E0000000000070000000780000007C000000AA
:1002F0007F000080770000E0710000F07000003C9B
:100300007000001E700000077070C0037070E00085
:100310007070F8FFFF7FFCFFFF7FFEFFFF7FFEFF97
:10032000FF7F0000707000007070000070700000AF
:10033000700000000030FEFF0070FEFF0060FEFF56
:1003400000600EF000E00E7000E00E7000E00E7035
:1003500000E00E7000E00EF000600EE000700EE0B5
:1003600001780EC0013C0EC00F3F0E80FF1F0E80B3
:10037000FF0F0E00FF070000FC010000000000005E
:1003800000000000FF0000F0FF0300FCFF0F00FF73
:10039000FF1F80FFFF3FC0FF003FE0770078F07154
:1003A0000070787000F0387000E01C7000E01C7085
:1003B00000E00EF0007006F0017806E0073C07E070
:1003C000FF3F07C0FF1F0280FF0F0000FF07000074
:1003D000FC00FE010000FE010000FE0100C03E0026
:1003E00000F01E0000FC1E0000FF1E0080FF1E002B
:1003F000E0FF1E00F83F1E00FE0F1E80FF011EE002
:100400007F001EF81F001EFE03009EFF0000FE3F3F
:100410000000FE070000FE0100007E0000000E004C
:1004200000000000C003C007F00FF01FF81FF83FE6
:10043000FC3FFC7F7E7E7C7E1F781EFC07700EF0EA
:1004400003E007F001E007E001E007E001E007F06A
:1004500001E00EF003E01EFC07707C7E1F78FC7F3D
:100460007E7EF83FFC3FF01FF81FC007F00F000032
:10047000C003003F0000E0FF0000F0FF0140F8FF74
:1004800003E0FCFF07E03CE007601E800F600E0009
:100490000F7007000E3807000E3807000E1C0F0003
:1004A0000E1E0E008E0F1E00EE07FC00FF03FCFF69
:1004B000FF01F8FFFF00F0FF3F00C0FF0F0000FF4B
:1004C00000000A040808090809080809F001FC07E7
:1004D0001E0F071C03180318071C1E0FFC07F00152
:1004E0000210FF1FFF1F00100000000000000000AE
:1004F00000000000061C071E031F831BC319E7181A
:100500007E183C1800000000060C071C031843105E
:10051000E318E31CBE0F1C0700000000C003E0034B
:10052000300318030C13FE1FFF1F0013000100000F
:100530003F0C7F1C631863106318E31CC30F800714
:1005400000000000F007F80FFC1C6E18261063185E
:10055000E31CC10F8007000007000318031E830778
:10056000E3017B001F000700000000001C07BE0F16
:10057000F319E110E110F3199E0F0C0700000000C1
:100580003C007E10E718C318810CC30EE707FE037A
:10059000FC010000000E601F3019B019B019F00FF7
:1005A000E01F001800000000000000000000000034
:1005B00000000000000000000100FF1FFF1F601886
:1005C00030183018701CE00FC00700000000000059
:1005D000000000000000000000000000C007E00F65
:1005E000701C10103018701C600C0000000000001F
:1005F00000000000000000000000000000000000FB
:100600008007E00F6018301830183108FF1FFF1FF7
:1006100000100000000000000000000000000000CA
:1006200000000000E00FF00FB01D10191011B019FC
:10063000F019E008000000000000000000000000C9
:1006400000000000000000000000000000000000AA
:10065000000000000000000000000000000000009A
:100660000000000000000000000000006076F0FFC5
:1006700098CF088D988DF8CDF8FC08780000000020
:10068000000000000000000000000000000000006A
:100690000110FF1FFF1F6010300030007010E01FBE
:1006A000C01F00100000000000000000000000005B
:1006B000000000001210F71FF21F001000000000E1
:1006C000000000000000000000000000000000002A
:1006D000000000000000000000000000000000001A
:1006E000000000000000000000000000000000000A
:1006F0000000000000000000000000000210FF1FCA
:10070000FF1F00138007E01F601C2018001000006E
:1007100000000000000000000000000000000000D9
:100720000110FF1FFF1F001000000000000000006C
:1007300000000000000000000000000000000000B9
:10074000000000002010F01FF01F6010300070103B
:10075000E01FC01F601030007010E01FC01F0010AD
:1007600000000000000000002010F01FF01F3010FB
:10077000300030007010F01FC01F0010000000009B
:100780000000000000000000000000008007E00FF3
:100790006018301830186018E00F80070000000063
:1007A0000000000000000000000000000000000049
:1007B0001080F8FFF8FF188C1008180C380EF0079E
:1007C000E001000000000000000000000000000048
:1007D0000000000000000000000000000000000019
:1007E0000000000000000000000000000000000009
:1007F00000000000000000001010F01FF01F60104B
:1008000030001000000000000000000000000000A8
:10081000000000000000000000000000C00CF01903
:10082000B0191013301B600E000000000000000023
:1008300000000000000000000000000000000000B8
:100840002000F00FF81F2018200800000000000012
:100850000000000000000000000000000000000098
:10086000000000002000F00FF01F00180010001022
:100870002018F00FF01F0010000000000000000022
:10088000000000000000000010003000F000D00365
:10089000000F001C000FD003F0003000100000001B
:1008A0000000000000000000000000000000000048
:1008B0000000000000000000000000000000000038
:1008C0000000000000000000000000000000000028
:1008D00000101018301CF00EC003C003F00E301CC6
:1008E00010180010000000000000000000000000D0
:1008F00000000000000000000000000000000000F8
:1009000000000000000000000000000000000000E7
:1009100000000000000000007018301C301E301B6A
:10092000B019F0187018301C000000000000000022
:10093000000000000000000000000000001000188F
:10094000001EC017F8013E0107013E01F801C01763
:10095000001E001800100000000000000000000051
:100960000318FF1FFF1F6318631863187718DE0C46
:100970008C0F0007000000000000000000000000D5
:100980000000000000000000000000000000000067
:100990000000000000000000000000000000000057
:1009A00000000000000000000318FF1FFF1F0318D5
:1009B000031803180318070C0E0EFC07F8030000B9
:1009C0000000000000000000000000000000000027
:1009D0000000000000000000000000000000000017
:1009E0000000000000000000000000000000000007
:1009F0000110FF1FFF1FC310C300E301030003002A
:100A000007000000000000000000000000000000DF
:100A100000000000000000000000000000000000D6
:100A200000000000000000000000000000000000C6
:100A300000000000000000000000000000000000B6
:100A400000000000000000000000000000000000A6
:100A50000000000000000000000000000000000096
:100A60000000000000000000000000000000000086
:100A70000000000000000000000000000000000076
:100A800000C001E0FF7FFF3F010000000000000008
:100A90000000000000000000000000000000000056
:100AA000000000000110FF1FFF1F6110F0009801FF
:100AB0000D030716031C01180010000000000000C1
:100AC00000000000000000000110FF1FFF1F0118C0
:100AD000001800180018001C001E00000000000094
:100AE0000000000000000000000000000110FF1FD7
:100AF000FF1F7E10F000C003000E000EC003700048
:100B00003E10FF1FFF1F011000000000000000004A
:100B10000110FF1FFF1F1F103C007800F001C003F1
:100B20008107FF1FFF1F0100000000000000000000
:100B300000000000F001BC070E0E0318031801109E
:100B40000110031803180E0EBC07F001000000008E
:100B50000000000000000000000000000000000095
:100B60000000000000000000000000000000000085
:100B70000000000000000000000000000000000075
:100B80000000000000000000000000000000000065
:100B90000000000000000000000000000000000055
:100BA0000000000000000000000000000000000045
:100BB0000000000000000000000000000000000035
:100BC000000000001C0C3E1863186110C110C3190E
:100BD000830F060700000000000000000000000076
:100BE0000000000000000000000000000000000005
:100BF00000000000000000000000000000000000F5
:100C00000000000000000000000000000100FF07DD
:100C1000FF0F010C0018001000100018010CFF0F4E
:100C2000FF070100000000000000000000000000BD
:100C300000000000000000000000000000000000B4
:100C400000000000000000000000000000000000A4
:100C500000000000010003001F00F900C007000EA3
:100C6000011FE3037F007F00E303011F000EC007A5
:100C7000F9001F0003000100000000000000000058
:100C80000000000000000000000000000000000064
:100C90000000000000000000000000000000000054
:100CA0000000000000000000000000000000000044
:100CB0000000000000000000000000000000000034
:100CC0000000000000000000000000000000000024
:100CD0000000000000000000000000000000000014
:100CE00000000000000E601F3419B019B019F40F95
:100CF000E01F0018000000000000000000000000DD
:100D000000000000000000000000000000000000E3
:100D100000000000000000000000000000000000D3
:100D20000000000000000000000000000018001893
:100D300000000000000000000000000000000000B3
:100D400000000000000000000000000000000000A3
:100D50002000F607F60F001C00182018F60FF61FEB
:100D6000001800100000000000000000000000005B
:100D70000000000000018003B01B701DF01EF01E7B
:100D8000F01EF01EF01E700E4007800180018001F1
:100D9000800180018001800180C180718079803D67
:100DA000801D800F8003800180018001800180010F
:100DB00083018E019E01BC01B801F001C0018001D8
:100DC00080018001800180018001800180010E1F6F
:100DD0003F7E00007E3F1F0E000E1F3F7E7E3F1FA6
:100DE0000E0000007000FC01FC03FE07FE0FFC1F5C
:100DF000F83FFC1FFE0FFE07FC03FC017000000023
:100E0000000000020007001F007E00780078003E0E
:100E1000000F8007C001E000300018000C00060041
:100E200002000000000000000000000000000000C0
:100E30000000000000000000000000000000004072
:100E400000E000F000F0FE7F1E0010002000C00750
:100E500011241FBECFEFD8E0DEBFCDBF11E0A0E070
:100E6000B1E0EAEBFCE302C005900D92A834B107B3
:100E7000D9F726E0A8E4B1E001C01D92A932B2077B
:100E8000E1F70E946E1C0C945B1E0C9400005E98AF
:100E900028E030E029985D9888230CF45D9A299A1F
:100EA000880F21503109B1F75E9A5D98089580E46A
:100EB0000E94470781EA0E94470780EC0E9447078B
:100EC00086EA0E94470782EA0E9447078FE20E9453
:100ED000470788EF0E94470780E00E94470787E2A4
:100EE0000E94470781E80E94470786E10E94470762
:100EF0008CEA0E94470780E00E9447078FEA0E9421
:100F000047070895289A0E94470728980895CF9385
:100F1000C82F8F700E9447078C2F82958F70806139
:100F20000E944707CF91089580550E944707089572
:100F30001F93CF93DF93D0E010E00FC08C2F0E945F
:100F400094078D2F0E948707812F0E948207CF5F11
:100F5000C830A1F7DF5FD03811F0C12FEFCFDF919C
:100F6000CF911F910895262F26952695269530E03E
:100F7000F90198E0899FE00DF11D1124E75DFD4F17
:100F8000319521953109220F331F220F331F220F74
:100F9000331F260F311D81E090E002C0880F991F9A
:100FA0002A95E2F79081892B80830895262F269534
:100FB0002695269530E0F90198E0899FE00DF11D16
:100FC0001124E75DFD4F319521953109220F331F23
:100FD000220F331F220F331F260F311D81E090E0B7
:100FE00002C0880F991F2A95E2F780959081892386
:100FF00080830895DF92EF92FF920F931F93CF9318
:10100000DF930F2EF9E2EF2EF2E0FF2EF02DD0E06D
:10101000D12C14C08C2F0E9494078D2F0E9487071B
:10102000F80181918F010E948207CF5FC83091F74C
:10103000F8E0EF0EF11CDF5FD03819F08701CD2DFD
:10104000E9CFDF91CF911F910F91FF90EF90DF904B
:1010500008952F923F924F925F926F927F928F925C
:101060009F92AF92BF92CF92DF92EF92FF920F9337
:101070001F93CF93DF9300D000D01F92CDB7DEB780
:101080007C013B014A013B832A83161617060CF0AC
:1010900058C02A802C01C12CD12CA12CB12C098341
:1010A0003AC0C80111230CF407969595879595953C
:1010B000879595958795EC81FD81E80FF91F8081D3
:1010C00090E0980127703078332334F421503109AF
:1010D000286F3F6F2F5F3F4F02C0959587952A95E8
:1010E000E2F780FF05C0632D822D0E94B30704C084
:1010F000632D822D0E94D6070F5F1F4F33940E156C
:101100001F0579F62FEFA21AB20A2394C40CD51C3E
:10111000A614B704B1F01E141F04A4F7C601DD2005
:101120000CF4079695958795959587959595879550
:10113000398000E010E0FC01E80DF91DFD83EC832F
:10114000B0CF8A819B81860D971D0F900F900F90D5
:101150000F900F90DF91CF911F910F91FF90EF9023
:10116000DF90CF90BF90AF909F908F907F906F90C7
:101170005F904F903F902F9008953F924F925F92D3
:101180006F927F928F929F92AF92BF92CF92DF9297
:10119000EF92FF920F931F93CF93DF9316161706CC
:1011A0000CF04FC07C01522E3B01660C771C812C49
:1011B000912C312C412C84E2849F5001859FB00CEE
:1011C000112437C0FE01DD230CF43796F595E79521
:1011D000F595E795F595E795EC0DFD1DEA0DFB1DE1
:1011E000EC56FA4FE491F0E0CE01877090789923A5
:1011F00024F40197886F9F6F019602C0F595E795DB
:101200008A95E2F7E0FF05C0612F852D0E94B307A4
:1012100004C0612F852D0E94D60721961F5FCE1531
:10122000DF0581F6539482E0880E911C86149704A2
:1012300041F01E141F04B4F76401102FC32DD42DE8
:10124000C1CFDF91CF911F910F91FF90EF90DF9071
:10125000CF90BF90AF909F908F907F906F905F9056
:101260004F903F9008954F925F926F927F928F922E
:101270009F92AF92BF92CF92DF92EF92FF920F9325
:101280001F93CF93DF939A012E533B4F5901F901DE
:101290009491992309F453C0882EC12CD12C462E49
:1012A0006894772474F8760E512C612C84E1849F25
:1012B0007001859FF00C11243BC09E01DD2314F4C6
:1012C000295F3F4FF901F595E795F595E795F59578
:1012D000E795E00FF11FEE0DFF1DE453FB4FE49186
:1012E000F0E0CE0187709078992324F40197886FFD
:1012F0009F6F019602C0F595E7958A95E2F7E0FFAA
:1013000005C0692D882D0E94B30704C0692D882D62
:101310000E94D607219693949710CFCFFFEFCF1A54
:10132000DF0AF5018491839490E0C816D9063CF455
:101330008601000F111F942CC52DD62DBECFDF9135
:10134000CF911F910F91FF90EF90DF90CF90BF90C2
:10135000AF909F908F907F906F905F904F90089587
:101360002F923F924F925F926F927F928F929F92B5
:10137000AF92BF92CF92DF92EF92FF920F931F93A3
:10138000CF93DF939A0128563E4F4901F90194917A
:10139000992309F45EC0682EC12CD12CA12CB12C4C
:1013A000262E6894552455F8560E312C412C80E594
:1013B000849F7001859FF00C11243CC0FE01DD2349
:1013C0000CF43796F595E795F595E795F595E7953E
:1013D000E00FF11FEE0DFF1DEE55FE4FE491F0E022
:1013E000CE0187709078992324F40197886F9F6FBE
:1013F000019602C0F595E7958A95E2F7E0FF05C0F2
:10140000672D862D0E94B30704C0672D862D0E948C
:10141000D607219673947510D1CFFFEFAF1ABF0A8C
:10142000F4018491F0E2CF0ED11C639490E0A816F1
:10143000B9067CF48601DD2014F4095F1F4F159571
:1014400007951595079515950795722CC32DD42DE5
:10145000B5CFDF91CF911F910F91FF90EF90DF906B
:10146000CF90BF90AF909F908F907F906F905F9044
:101470004F903F902F9008951F920F920FB60F92AA
:1014800011245F936F937F938F939F93AF93BF9339
:10149000359B15C081E080935401809148018823D9
:1014A00099F0809165019091660103966CE370E07C
:1014B0000E94331E90931E0280931D0205C0309B34
:1014C00003C081E080935301BF91AF919F918F91B1
:1014D0007F916F915F910F900FBE0F901F901895A5
:1014E0001F920F920FB60F9211242F933F935F9389
:1014F0006F937F938F939F93AF93BF9329B139B12C
:10150000832F817090E022FF03C0892B19F40CC057
:10151000892B51F480915501909156010196909339
:1015200056018093550109C0809155019091560153
:10153000019790935601809355018091480188232B
:1015400069F0809165019091660103966CE370E00B
:101550000E94331E90931E0280931D02BF91AF9193
:101560009F918F917F916F915F913F912F910F90FC
:101570000FBE0F901F9018951F920F920FB60F92EB
:1015800011242F933F938F939F93AF93BF93809199
:10159000590190915A01A0915B01B0915C010196B3
:1015A000A11DB11D8093590190935A01A0935B0135
:1015B000B0935C018C3C9A41A240B105E9F0809166
:1015C0000001882301F180916501909166010196E7
:1015D0009093660180936501CC97C1F480915D0181
:1015E00090915E01019690935E0180935D0110924F
:1015F0006601109265010AC080910001882319F0EC
:101600001092000103C081E08093000180914801A5
:10161000882371F0209165013091660180911D024F
:1016200090911E022817390719F441981092480129
:10163000BF91AF919F918F913F912F910F900FBECE
:101640000F901F9018951F920F920FB60F921124B2
:101650002F933F934F935F936F937F938F939F93BA
:10166000AF93BF93EF93FF932DEB37E346E05CE33B
:1016700060914F0170915001809151019091520100
:101680000E94481D60934F01709350018093510157
:1016900090935201FF91EF91BF91AF919F918F91E4
:1016A0007F916F915F914F913F912F910F900FBE5E
:1016B0000F901F9018951F93CF93DF9304976CF0B2
:1016C000DCE519C06C2F8D2F0E94D607CF5FC03488
:1016D000C9F7DF5FD33119F410C0D0E010E0C12F9B
:1016E000F1CF6C2F8D2F0E94D607CF5FC034C9F782
:1016F000DF5FDC3611F0C0E3F4CFDF91CF911F91B3
:1017000008950F931F93CF93DF93EC018B0180918A
:101710004D0190914E010E945B0BC017D1079CF4C4
:101720008FE08C9F80018D9F100D11240E5F1F4F45
:1017300022E030E043EF51E060E170E080E190E0D2
:101740000E9429080CC00FE210E02CE530E043EFC6
:1017500051E060E170E080E190E00E942908D093C0
:101760004E01C0934D01DF91CF911F910F910895CC
:10177000AF92BF92CF92DF92EF92FF920F931F939F
:10178000CF93DF937C015B011216130634F5EA0157
:10179000220F331F6A01C20ED31E4881598155237F
:1017A00024F483E0E80EF11C14C0FA01E05AFE4F65
:1017B000649170E08501970180E190E00E94BD088E
:1017C000E881F981E05AFE4FE491F0E03196EE0EA7
:1017D000FF1E2296CC15DD0501F7DF91CF911F91F9
:1017E0000F91FF90EF90DF90CF90BF90AF90089552
:1017F000E9E2F2E029E236E008C01192E817F907C1
:10180000E1F7FC012817390719F0CF010896F5CF49
:10181000089510924F0110925001109251011092B0
:10182000520116BC84E085BD0895E6EBF0E08081AE
:10183000806280831092B200E1EBF0E080818560ED
:101840008083E0E7F0E080818160808381E08093A5
:101850006E008DBB8093690082E080936800ECE6A7
:10186000F0E080E280838081816080830895F89435
:1018700080915D0190915E01181619061CF4789410
:1018800081E00895789480E008950F931F93CF939B
:10189000DF93CDB7DEB7C854D1090FB6F894DEBFD9
:1018A0000FBECDBFEEE3FEE0DE0111969E01275B89
:1018B0003F4F84918D933196A217B307D1F702E081
:1018C00010E021E030E0AE014F5F5F4F69E070E073
:1018D00080E190E00E942908C85BDF4F0FB6F894C2
:1018E000DEBF0FBECDBFDF91CF911F910F91089545
:1018F0006F927F928F929F92AF92BF92CF92DF9220
:10190000EF92FF920F931F93CF93DF936C01A82E5A
:10191000E12CF12C662E6894992495F8960E712C82
:10192000812C35C0FE01DD230CF43796F595E79543
:10193000F595E795F595E795E00FF11FE859FF4F0D
:10194000E491F0E0CE0187709078992324F4019718
:10195000886F9F6F019602C0F595E7958A95E2F72B
:10196000E0FF05C06B2D8A2D0E94B30704C06B2DCC
:101970008A2D0E94D6072196B394B910D3CF80E266
:10198000E80EF11CA39480EAE816F10479F08701CF
:10199000FF2014F4095F1F4F1595079515950795BE
:1019A00015950795B62CC72DD82DBCCFC601059629
:1019B000DF91CF911F910F91FF90EF90DF90CF902B
:1019C000BF90AF909F908F907F906F9008956AE046
:1019D00070E00E94331EFC01E856FE4F849190E0B7
:1019E0000296FB01E856FE4F6491860F911D089503
:1019F000CF93DF93EB010E94E70C90934C0180930F
:101A00004B01CE010E94E70C8093490190934A015B
:101A100090914B01935F890F2FE730E0281B31092C
:101A2000C90199230CF401969595879590936001CF
:101A300080935F01DF91CF910895EF92FF920F9312
:101A40001F93CF93DF9300915F01109160016AE0D3
:101A500070E00E94331EEB017C01AB0169E070E095
:101A6000C8010E94B009FE01E856FE4FC491D0E0C3
:101A70002296C00FD11FA70169E070E0CE010E943D
:101A8000B009F701E856FE4FE491CE018E0F911D8B
:101A90000496DF91CF911F910F91FF90EF900895E1
:101AA000EF92FF920F931F93CF93DF937C018B01F3
:101AB0008AE0E816F1047CF440E050E069E070E070
:101AC000C8010E94B009E8E9F1E0E491F0E0329643
:101AD0000E0F1F1F14C0C7016AE070E00E94331E82
:101AE000EB01AB0169E070E0C8010E94B009FE01A2
:101AF000E856FE4FE491F0E032960E0F1F1FC7012B
:101B00006AE070E00E94331EAC0169E070E0C80139
:101B10000E94B009DF91CF911F910F91FF90EF903C
:101B200008950F931F93CF93DF9300916901109154
:101B30006A01C0916701D0916801882341F000914A
:101B4000630110916401C0916101D0916201BE01F5
:101B5000C8010E94F80CC8010E941D0D69E070E0E8
:101B60000E94780CBC016C5F7F4FCE010E94500D2B
:101B7000DF91CF911F910F91089516161706C4F4A7
:101B8000DC01660F771F680F791F8FEF9FEFED91D4
:101B9000FD91FF2314F4039607C0E05AFE4FE49131
:101BA000F0E031968E0F9F1FA617B70781F70895B3
:101BB0008FEF9FEF08958F929F92AF92BF92CF9237
:101BC000DF92EF92FF920F931F93CF93DF937C01ED
:101BD000C0E0D0E06B018FEFC81AD80AA62EB72E4E
:101BE0004091050150910601FA01EE0FFF1FEE0F23
:101BF000FF1FEE0FFF1FE40FF51FEC0FFD1FEE0F91
:101C0000FF1FE857FF4FE4914E2F50E04633510538
:101C10003CF54630510531F0EF50E23018F04831D4
:101C2000510519F40C2D1D2D02C00A2D1B2D41301C
:101C3000510519F491E0E91AF108FA01E05AFE4F52
:101C40004F01649170E0970180E190E00E94BD082F
:101C5000F4018490912CFFEF8F1A9F0AE80CF91C75
:101C60002196C930D10509F0BBCFDF91CF911F91EB
:101C70000F91FF90EF90DF90CF90BF90AF909F902B
:101C80008F900895CF92DF92EF92FF920F931F9360
:101C9000CF93DF93EC017B01409107015091080144
:101CA0004A305105CCF0CA016AE070E00E94331E50
:101CB0008B016C01AB01B701CE010E943309F80121
:101CC000EE53FB4FE491CE018E0F911DA601B7019B
:101CD00001960E94330902C00E943309DF91CF911F
:101CE0001F910F91FF90EF90DF90CF900895CF93C9
:101CF000DF93809103019091040118161906ACF44A
:101D00002FEF3FEFCAE0D0E0BE010E94331EFC017E
:101D1000EE53FB4FE491F0E031962E0F3F1F862FDC
:101D2000972F1816190684F302C02FEF3FEFC90151
:101D3000DF91CF9108950E94770E2FE730E0281BA6
:101D4000390BC90199230CF4019695958795019655
:101D50000895CF92DF92EF92FF920F931F93CF934C
:101D6000DF930E949B0E6C0180910301909104010E
:101D700068EE73E00E94331EEB017C01AB0168E268
:101D800070E0C6010E943309FE01EE53FB4F04913F
:101D900010E00F5F1F4F0C0D1D1DC70164E670E0C2
:101DA0000E94331EEB017C01AB0168E270E0C801C8
:101DB0000E943309FE01EE53FB4FC491D0E02196FF
:101DC0000C0F1D1FC7016AE070E00E94331EEB017B
:101DD0007C01AB0168E270E0C8010E943309FE019A
:101DE000EE53FB4FC491D0E0CE010196A70168E20B
:101DF00070E0800F911F0E943309F701EE53FB4FF3
:101E0000E491DF91CF911F910F91FF90EF90DF90C0
:101E1000CF900895CF93DF93C0910701D09108012F
:101E2000CE016AE070E00E94331EFC01EE53FB4FCE
:101E3000E4912E2F30E0CA30D1056CF0CE016AE07B
:101E400070E00E94331EFB01EE53FB4FE491F0E083
:101E500031962E0F3F1FC901DF91CF9108956091F8
:101E6000050170910601660F771FCB01880F991F3E
:101E7000880F991F880F991F680F791FAB0148576A
:101E80005F4F66567F4F8FEF9FEFFA01249130E04E
:101E90002533310549F0F901E05AFE4F249130E035
:101EA0002F5F3F4F820F931F4E5F5F4F46175707BD
:101EB00061F70895CF93DF930E940A0FEC010E940F
:101EC0002F0F8C0F9D1F0696DF91CF9108950E94D2
:101ED0005A0F2FE730E0281B390BC90199230CF466
:101EE000019695958795019608951F93CF93DF935B
:101EF000DC01EC0140E050E01FEF9FEF23C029918F
:101F00008FEB820F8A3120F430E02752310914C060
:101F10008FE9820F8A3120F430E0215631090CC05C
:101F20002E3229F02C3F31F0212F392F05C026E326
:101F300030E002C027E330E0FB0121933193BF0181
:101F40004F5F5F4FFD0101900020E9F73197EA1BD9
:101F5000FB0B4E175F0798F2DF91CF911F91089509
:101F60004F925F926F927F928F929F92AF92BF92A9
:101F7000CF92DF92EF92FF920F931F93CF93DF9355
:101F8000CDB7DEB74C015B016A0179016DB67EB653
:101F90000E94F80BF40101900020E9F731978F01BE
:101FA00008191909000F111F8DB79EB7801B910BDF
:101FB0000FB6F8949EBF0FBE8DBF01962C01BC01D9
:101FC000C4010E94750F980136952795A20163E020
:101FD00070E084E190E00E94B80BF50101900020D0
:101FE000E9F731978F010A191B09000F111F8DB7EF
:101FF0009EB7801B910B0FB6F8949EBF0FBE8DBF8E
:1020000001964C01BC01C5010E94750F98013695DF
:102010002795A40162E170E084E190E00E94B80B92
:10202000F60101900020E9F73197EC19FD095F01F5
:10203000AA0CBB1C8DB79EB78A199B090FB6F894E2
:102040009EBF0FBE8DBF0DB71EB70F5F1F4FB801EC
:10205000C6010E94750F950136952795A80161E28A
:1020600070E084E190E00E94B80BF701019000203D
:10207000E9F73197EE19FF096F01CC0CDD1C8DB724
:102080009EB78C199D090FB6F8949EBF0FBE8DBFE9
:102090000DB71EB70F5F1F4FB801C7010E94750F24
:1020A000960136952795A80160E370E084E190E001
:1020B0000E94B80B0EE210E02CE630E04BE651E057
:1020C00061E170E080E190E00E9429080FB6F89489
:1020D0007EBE0FBE6DBEDF91CF911F910F91FF901D
:1020E000EF90DF90CF90BF90AF909F908F907F90B8
:1020F0006F905F904F900895AF92BF92CF92DF9212
:10210000EF92FF920F931F93CF93DF93CDB7DEB77C
:10211000C057D1090FB6F894DEBF0FBECDBF6C011A
:1021200000E05C0182E1A80EB11CEC2C0F2EF2E164
:10213000FF2EF02DFC0C0AC0612F802F0E94D607C5
:102140001F5F1F11F9CF0F5F003829F0CA14DB049D
:10215000D4F71E2DF1CF0E94670F7C018FE2C816C5
:10216000D10409F08AC080910701909108018E3056
:10217000910511F58091050190910601019709F0F3
:102180007CC0E4E7FDE0DE011196CE01855A9F4F49
:1021900024912D933196A817B907D1F70FE210E0DB
:1021A0002AE230E0AE014F5F5F4F6DE270E080E108
:1021B00090E00E9429087FC0049709F05EC08091DA
:1021C000050190910601079709F057C0BE01655AB5
:1021D0007F4F8BE091E00E94750F6BE070E0CE01C5
:1021E000855A9F4F0E94BD0D2FE730E0281B390B09
:1021F000C90199230CF401968C0115950795780176
:102200008FEFE81AF80A2BE030E0AE01455A5F4F35
:102210006FE270E0C7010E94B80BE2EEFDE0DE0164
:102220001196CE01819624912D933196A817B90766
:10223000D1F79801235131090FE210E0AE014F5F51
:102240005F4F60E170E080E190E00E9429086BE060
:1022500070E0CE01855A9F4F0E94BD0D8E0D9F1DCF
:102260009C012C5F3F4FAE014F5F5F4F60E170E01C
:1022700080E190E00E9429081EC0B601C7010E94BB
:10228000420E0E940A0FE6E9F1E064918E0D9F1D57
:102290009C012F5F3F4F70E0860146E350E080E1F4
:1022A00090E00E94BD080E940A0F8E0D9F1DB6018E
:1022B00006960E94DB0DC059DF4F0FB6F894DEBFC3
:1022C0000FBECDBFDF91CF911F910F91FF90EF9087
:1022D000DF90CF90BF90AF9008950E94F80B80E000
:1022E0000E94910D8FE290E00E947C108091580135
:1022F00081110E94450C0E94FA07089580915301B4
:10230000882309F460C00E94090C309B2BC020E098
:1023100030E040EC5FE360914F017091500180919B
:102320005101909152010E94B41D8823DCF42FE7E3
:1023300088E391E0215080409040E1F700C0000028
:10234000309B10C020E030E040EC5FE360914F0133
:102350007091500180915101909152010E94B41DE1
:1023600088232CF315BC20E030E040EC5FE3609163
:102370004F017091500180915101909152010E9442
:102380002E1E18166CF480915701811109C090918E
:10239000580181E08927809358010E946D1111C076
:1023A000419A809165019091660103966CE370E01B
:1023B0000E94331E90931E0280931D0281E0809341
:1023C00048011092530108958091070190910801EE
:1023D00001969093080180930701209101013091AB
:1023E0000201281739074CF581E090E0909308012D
:1023F00080930701E0910501F09106013196F09379
:102400000601E0930501E130F10579F480910301C3
:102410009091040183709927892B39F48DE190E024
:10242000909302018093010108C0E458FF4FE491AA
:10243000F0E0F0930201E093010180910501909199
:1024400006010C9769F41092060110920501809123
:10245000030190910401019690930401809303017C
:102460008FE290E00E947C1008950F931F93CF930A
:10247000DF9300915F01109160010038110574F045
:1024800010C06C2F802F0E94D607CF5FC932C9F7CA
:102490000F5F1F4F0038110511F403C0D9E0CD2F95
:1024A000F0CF20915D0130915E01809167019091A4
:1024B0006801820F931F90936801809367011092C7
:1024C0005E0110925D018C3391058CF06CE370E03D
:1024D0000E94331E90936801809367018091690187
:1024E00090916A01019690936A01809369018091AD
:1024F000690190916A01489734F010926A01109234
:1025000069010E94E41180E00E94910D0E94FA0787
:10251000DF91CF911F910F91089580915401811106
:1025200034C08091550190915601892B71F58091AD
:10253000530181112AC080915D0190915E01892B28
:1025400021F5A3EBB0E021E0E6EBF0E083B781609A
:1025500083BF83B7866083BF2C93808183FDFDCFCB
:10256000889580915401811110C0809155019091FE
:102570005601892B51F480915301811106C080913D
:102580005D0190915E01892B09F30895EF92FF920E
:102590000F931F93CF93DF938C01EB01BC01CE010E
:1025A0000E94810B0E94FA07F89410925601109233
:1025B00055011092540178948091540181112CC0DE
:1025C00078018FEFE81AF80A809155019091560131
:1025D000892BD1F0F89480915501909156018C0F80
:1025E0009D1F10925601109255017894B7010E94D8
:1025F000331EEC01992314F4C00FD11FB801CE0192
:102600000E94810B0E94FA070E948D120E947E1187
:10261000909154019923C1F2F89410925401789446
:10262000CE01DF91CF911F910F91FF90EF90089510
:10263000BF92CF92DF92EF92FF920F931F93CF93AF
:10264000DF93209154012111B6C0B42E6B017C019F
:10265000D0E08091550190915601892B09F4A2C0D8
:10266000F894F701208131818091550190915601B4
:10267000820F931F9183808310925601109255010F
:1026800080819181B6010E94331E99231CF09183B1
:10269000808305C08C0D9D1DF7019183808310926E
:1026A000660110926501789400915F0110916001BC
:1026B00080914B0190914C01800F911F2091490115
:1026C00030914A01820F931F0D9608171907FCF0ED
:1026D00020C06C2F802F0E94D607CF5FC932C9F768
:1026E0000F5F1F4F20915F013091600180914B017E
:1026F00090914C01280F391F4091490150914A0196
:10270000240F351F235F3F4F0217130714F4CD2FFB
:10271000E0CF8B2D0E94910DFCE3CF16D10421F563
:1027200020915F013091600180914B0190914C01AB
:10273000280F391F235F3F4F8091490190914A0133
:1027400099230CF4019695958795280F391F2450ED
:10275000310902E010E043E152E06AE070E088E015
:1027600090E00E9429081CC020914B0130914C013F
:10277000332314F42F5F3F4F3595279580915F01E8
:1027800090916001280F391F2450310902E010E0B8
:1027900043E152E06AE070E088E090E00E9429089E
:1027A0000E94FA070E948D120E947E1180915401AE
:1027B000882309F44ECFF894109254017894DF9155
:1027C000CF911F910F91FF90EF90DF90CF90BF902E
:1027D00008954F925F926F927F928F929F92AF92E5
:1027E000BF92CF92DF92EF92FF920F931F93CF93FE
:1027F000DF93C82E60916701709168018091690133
:1028000090916A010E94F80CCC20B9F060916101AE
:102810007091620180916301909164010E94F80CB3
:102820000F2EF1E64F2EF1E05F2EF02D0F2EF3E686
:102830006F2EF1E07F2EF02D0CC00F2EF7E64F2EFD
:10284000F1E05F2EF02D0F2EF9E66F2EF1E07F2ED6
:10285000F02DF8941092540178940E94F80B8C2D6E
:102860000E94910D0EE210E02CE630E04BE651E0C4
:1028700061E170E080E190E00E94290880916301AD
:10288000909164010E94E70C99230CF401969595B0
:10289000879520915F0130916001820F931F9C0109
:1028A0002450310902E010E04FE152E06AE070E0AC
:1028B00088E090E00E9429080E94FA07C1E0D0E079
:1028C000E12CF12C0F2EF3E08F2E912CF02DA12C6A
:1028D000BA2C6894DD24D1F865C18091550190919E
:1028E0005601009709F49AC08E0D9F1DF89410921E
:1028F0005601109255017894B4010E94331E7C0158
:1029000099230CF054C123E0E20EF11C50C16C2F4E
:102910008D2F0E94D607CF5FCA30C9F7DF5FD0384E
:1029200011F41FC0DB2DCD2DF2CF6C2F8D2F0E9407
:10293000D607CF5FCA30C9F7DF5FD03811F411C0B6
:10294000DB2DCD2DF2CF6C2F8D2F0E94D607CF5FC0
:10295000CC33C9F7DF5FD63611F403C0DCE5C4E33E
:10296000F2CF81E0E816F10431F122E0E216F10441
:1029700009F445C0E114F10409F04DC080914B0108
:1029800090914C0199230CF401969595879520918F
:102990005F0130916001820F931F9C012450310927
:1029A00002E010E04FE152E06AE070E088E090E081
:1029B0000E94290830C020915F0130916001809110
:1029C0004B0190914C01280F391F235F3F4F80919D
:1029D000490190914A0199230CF4019695958795A8
:1029E000280F391F2450310902E010E04FE152E076
:1029F0006AE070E088E090E00E9429080CC004E3DF
:102A000010E02CE530E04FE152E06AE070E088E051
:102A100090E00E9429080E94FA07E7010E948D12A7
:102A20000E947E1180915401882309F456CFF894B6
:102A3000A0925401789481E0E816F10409F44AC0A8
:102A400022E0E216F10409F494C0E114F10409F063
:102A5000A3C080914B0190914C0199230CF40196F5
:102A60009595879520915F0130916001820F931FAA
:102A70009C012450310902E010E043E152E06AE099
:102A800070E088E090E00E9429080E94FA074C2D2F
:102A900068E170E0C3010E94181380914B0190918E
:102AA0004C0199230CF401969595879520915F012F
:102AB00030916001820F931F9C012450310902E084
:102AC00010E04FE152E06AE070E088E090E00E94A0
:102AD000290879C020915F013091600180914B01FC
:102AE00090914C01280F391F235F3F4F809149017E
:102AF00090914A0199230CF4019695958795280F9A
:102B0000391F2450310902E010E043E152E06AE04D
:102B100070E088E090E00E9429080E94FA074C2D9E
:102B20006CE370E0C2010E94181320915F013091A4
:102B3000600180914B0190914C01280F391F235F58
:102B40003F4F8091490190914A0199230CF40196DD
:102B500095958795280F391F2450310902E010E020
:102B60004FE152E06AE070E088E090E00E942908BE
:102B70002AC01092660110926501F8941092B2007A
:102B80001092590110925A0110925B0110925C014F
:102B900078940E94FA071AC00E94FA0782E0E816A9
:102BA000F104A1F080915401811141CF96CEC13042
:102BB000D10509F4C5CEC230D10509F4CFCECD2B55
:102BC00009F0CFCEAFCE0E94FA07ECCFDF91CF91C4
:102BD0001F910F91FF90EF90DF90CF90BF90AF903B
:102BE0009F908F907F906F905F904F90089581E0BD
:102BF0000E94E9130895EF92FF920F931F93CF93D2
:102C0000DF93F894109254017894809154018111CB
:102C10007CC0E12CFE2C80915501909156010097CB
:102C200009F467C02091070130910801820F931FBA
:102C30009093080180930701F89410925601109226
:102C40005501789480910701909108011816190692
:102C50006CF0E0910501F0910601E458FF4FE4911A
:102C60008E0F911D9093080180930701E09105015B
:102C7000F0910601E458FF4F249180910701909153
:102C8000080130E0281739070CF03DC0E4918E1B95
:102C90009109909308018093070135C06C2F8D2F07
:102CA0000E94D607CF5FCA30C9F7DF5FD03811F076
:102CB000CF2DF4CF8CE090E00E947C100E94670F33
:102CC000EC010E940A0F99230CF401969C013595A2
:102CD00027952C0F3D1F2450310902E010E043E1FD
:102CE00052E06AE070E088E090E00E9429080E94CB
:102CF000FA070E948D120E947E1180915401882350
:102D000009F489CF02C0DE2DD3CFDF91CF911F917F
:102D10000F91FF90EF900895CF92DF92EF92FF9284
:102D20000F931F93CF93DF93F894109254017894EC
:102D300080915401811182C00F2EFCE0CF2ED12C46
:102D4000F02DE12CFE2C80915501909156010097B9
:102D500009F468C02091050130910601820F931F8C
:102D60009093060180930501F894109256011092F9
:102D7000550178948091050190910601B6010E9459
:102D8000331E99232CF0909306018093050105C012
:102D90000C969093060180930501E0910501F09156
:102DA0000601E458FF4F849190E020910701309193
:102DB0000801821793070CF03FC0849190E0909334
:102DC00008018093070138C06C2F8D2F0E94D60711
:102DD000CF5FCA30C9F7DF5FD03811F0CF2DF4CF05
:102DE000C6010E947C100E94670FEC010E940A0F2E
:102DF000C80FD91F0E942F0F99230CF401969595A7
:102E000087959E01280F391F2450310902E010E0F8
:102E100043E152E06AE070E088E090E00E94290817
:102E20000E94FA070E948D120E947E118091540127
:102E3000882309F488CF02C0DE2DD0CFDF91CF9157
:102E40001F910F91FF90EF90DF90CF900895CF9258
:102E5000DF92EF92FF920F931F93CF93DF93F8943B
:102E60001092540178948091540181117AC0E12C20
:102E70000F2EFEE1FF2EF02D0F2EFFE0CF2EF7E2FA
:102E8000DF2EF02D8091550190915601009709F4A5
:102E90005FC02091030130910401820F931F909332
:102EA000040180930301F894109256011092550189
:102EB0007894809103019091040199232CF4D0928D
:102EC0000401C092030118C0803127E29207A4F0E8
:102ED0008051974290930401809303010DC06C2FA1
:102EE0008D2F0E94D607CF5FC832C9F7DF5FD03879
:102EF00021F41E2DDC2F0DC0DE2DCF2DF0CF6C2F39
:102F0000812F0E94D607CF5FC933C9F71F5F1A35DB
:102F100011F0CD2FF4CF0E94A90E0E949B0EEC0160
:102F20000E94770E99230CF401969C013595279504
:102F30002C0F3D1F245031090EE110E043E152E017
:102F40006AE070E088E090E00E9429080E94FA0799
:102F50000E948D120E947E1180915401882309F4F1
:102F600091CF0E948D120E947E11DF91CF911F910F
:102F70000F91FF90EF90DF90CF900895AF92BF92A6
:102F8000CF92DF92EF92FF920F931F93CF93DF9335
:102F90000E94F80B8CE090E00E947C100E94A90E29
:102FA0000EE210E02CE630E04BE651E061E170E02B
:102FB00080E190E00E9429080E94670FEC010E94C6
:102FC0000A0F99230CF401969C01359527952C0F37
:102FD0003D1F2450310902E010E04FE152E06AE069
:102FE00070E088E090E00E9429080E94FA07E12C36
:102FF000F12CC0E0D0E0A12CBA2C0F2EFEE1CF2E98
:10300000F02DDA2CF894A092540178948091540118
:103010008111D4C08091550190915601009709F417
:10302000C4C08E0D9F1DF894109256011092550148
:10303000789483709078992324F401978C6F9F6F14
:1030400001967C0199230CF080C124E0E20EF11C72
:103050007CC16C2F8D2F0E94D607CF5FCA30C9F775
:10306000DF5FD03811F42DC0DB2DCD2DF2CF6C2FCA
:103070008D2F0E94D607CF5FCA30C9F7DF5FD038E7
:1030800011F41FC0DB2DCD2DF2CF6C2F8D2F0E94A0
:10309000D607CF5FC832C9F7DF5FD03811F411C04F
:1030A000DB2DCC2DF2CF6C2F8D2F0E94D607CF5F5A
:1030B000CC33C9F7DF5FD83611F403C0DEE5C4E3D3
:1030C000F2CF81E0E816F10449F124F4E114F104AF
:1030D00059F068C082E0E816F104F1F123E0E2164D
:1030E000F10409F453C05EC00E94670FEC010E9416
:1030F0000A0F99230CF401969C01359527952C0F06
:103100003D1F2450310902E010E04FE152E06AE037
:1031100070E088E090E00E94290844C00E94670F98
:10312000EC010E940A0FC80FD91F0E942F0F99238C
:103130000CF401969C01359527952C0F3D1F2450CA
:10314000310902E010E04FE152E06AE070E088E00F
:1031500090E00E94290826C00E949B0EEC010E946C
:10316000770E99230CF401969C01359527952C0F29
:103170003D1F245031090EE110E04FE152E06AE0BA
:1031800070E088E090E00E9429080CC004E310E0A1
:103190002EE530E04FE152E06AE070E088E090E038
:1031A0000E9429080E94FA07E7010E948D120E94DE
:1031B0007E1180915401882309F42CCFF894A092B9
:1031C0005401789481E0E816F10409F440C022E04B
:1031D000E216F10409F47AC0E114F10409F0ADC07B
:1031E0000E94670F8C010E940A0F99230CF401962C
:1031F0009C0135952795200F311F2450310902E09D
:1032000010E043E152E06AE070E088E090E00E9464
:1032100029080E94FA070E94FB150E94670F8C0183
:103220000E940A0F99230CF401969C01359527956D
:10323000200F311F2450310902E010E04FE152E02D
:103240006AE070E088E090E00E9429088FC00E9448
:10325000670F8C010E940A0F080F191F0E942F0F81
:1032600099230CF401969C0135952795200F311F69
:103270002450310902E010E043E152E06AE070E0DE
:1032800088E090E00E9429080E94FA070E948C16AC
:103290000E94670F8C010E940A0F080F191F0E94DD
:1032A0002F0F99230CF401969C0135952795200F3B
:1032B000311F2450310902E010E04FE152E06AE092
:1032C00070E088E090E00E94290850C00E949B0EA8
:1032D0008C010E94770E99230CF401969C01359580
:1032E0002795200F311F245031090EE110E043E1F2
:1032F00052E06AE070E088E090E00E9429080E94B5
:10330000FA070E9427170E949B0E8C010E94770EDD
:1033100099230CF401969C0135952795200F311FB8
:10332000245031090EE110E04FE152E06AE070E014
:1033300088E090E00E94290819C00E94FA0783E003
:10334000E816F10409F05ECE14C0C130D10509F4CD
:1033500099CE24F4CD2B09F487CEB3CEC230D1055B
:1033600009F49ECE239709F4A9CEABCE0E94FA07AA
:1033700049CEDF91CF911F910F91FF90EF90DF9099
:10338000CF90BF90AF9008950F931F93CF93DF938B
:10339000CDB7DEB7C854D1090FB6F894DEBF0FBE63
:1033A000CDBF0E9498070E94F80BEEE3FEE0DE011D
:1033B00011969E01275B3F4F84918D933196A21702
:1033C000B307D1F708E110E027E330E0AE014F5F2B
:1033D0005F4F69E070E080E190E00E9429080EE212
:1033E00010E02CE630E04BE651E061E170E080E176
:1033F00090E00E9429080FE210E02CE530E043EF56
:1034000051E060E170E080E190E00E9429080E94B4
:10341000FA0780915401811108C00E948D120E9408
:103420007E11809154018823C1F3C85BDF4F0FB632
:10343000F894DEBF0FBECDBFDF91CF911F910F91EA
:103440000895EF92FF920F931F93CF93DF932091F4
:10345000090130910A01C9016AE070E00E94331E3F
:10346000FC01E856FE4FE491EE2EF12C2A30310596
:103470005CF0C9016AE070E00E94331EFB01E8566F
:10348000FE4FE491EE0EF11CD0E019E00AC06C2F63
:103490008D2F0E94D607CF5FC932C9F7DF5FD038C2
:1034A00011F0C12FF4CF8091090190910A018A3067
:1034B00091055CF19701FF2014F42F5F3F4F359584
:1034C0002795C0E4D0E0C21BD30B0AE010E0B8019E
:1034D0000E94331EAB0169E070E0CE010E94B0098A
:1034E0008091090190910A01B8010E94331EFB01ED
:1034F000E856FE4F6491C60FD11DAC0169E070E043
:10350000CE0102960E94B00910C09701FF2014F46A
:103510002F5F3F4F35952795AC0169E070E080E45F
:1035200090E0821B930B0E94B009DF91CF911F9115
:103530000F91FF90EF9008952F923F924F925F92DC
:103540006F927F928F929F92AF92BF92CF92DF92B3
:10355000EF92FF920F931F93CF93DF9300D000D091
:1035600000D0CDB7DEB7109254010E94F80B0E9434
:1035700098070EE210E02CE630E04BE651E061E106
:1035800070E080E190E00E942908C12CD12C0F2E20
:10359000FAE04F2E512CF02D6894EE24E1F8FE2C29
:1035A0006894882486F8912C0F2EF3E62F2E312C68
:1035B000F02D0F2EF9E07F2EF02D20910901309192
:1035C0000A01C901B2010E94331EFC01E856FE4FF8
:1035D000E491AE2EB12C2A30310554F0C901B2016C
:1035E0000E94331EFB01E856FE4FE491AE0EB11C63
:1035F0000E94211A8091540181115AC08091550175
:1036000090915601C80ED91EC601817090789923F9
:1036100024F401978E6F9F6F01966C0199231CF41F
:1036200022E0C20ED11C1092560110925501C11415
:10363000D104C9F402E010E02CE330E04FE152E0A5
:10364000B20188E090E00E9429080CE50AC0612FD1
:10365000802F0E94D6071F5F1034C9F70F5F0C360A
:10366000E1F01FE2F4CF0FE210E02CE530E043EF91
:1036700051E060E170E080E190E00E94290808E3F9
:103680000AC0612F802F0E94D6071F5F1B30C9F729
:103690000F5F083411F01F2DF4CF0E94FA070E942B
:1036A0008D120E947E1180915401882309F4A6CFC7
:1036B0001092540108E30AC0612F802F0E94D607A0
:1036C0001F5F1B30C9F70F5F083411F01E2DF4CFB8
:1036D000C114D10409F071C002E010E02BE330E026
:1036E00043E152E0B20188E090E00E9429080E9484
:1036F000FA078091540181115DC0C50199230CF432
:103700000196959587955401A81AB90AFC01E05CC9
:10371000FF4FFA83E9836A2C0B2D8091550190911C
:103720005601892BD1F129813A81A216B3069CF06A
:1037300016C0612F8D810E94D6071F5F1932C9F70D
:103740008D819E8101969E838D83E981FA818E17FA
:103750009F071CF004C06D820E83172DEACF2091C5
:10376000090130910A018091550190915601820F13
:10377000931FB1010E94331E99232CF090930A01EC
:103780008093090106C08D599F4F90930A01809341
:10379000090110925601109255010E94211A0E94AF
:1037A000FA070E948D120E947E1180915401882395
:1037B00009F4B3CF1092540100CFF1E0CF16D10439
:1037C00009F0FBCE26960FB6F894DEBF0FBECDBF34
:1037D000DF91CF911F910F91FF90EF90DF90CF90ED
:1037E000BF90AF909F908F907F906F905F904F9021
:1037F0003F902F900895CF93DF93C1E0D0E00FC0AA
:103800000E949C1A0CC00E94C41909C00E946D112C
:1038100025C00E946D11CE0101970297F8F420E3B4
:1038200031E047E151E06FE171E08BE291E00E940D
:10383000B00F0E94FA07BE0183E090E00E94C6121A
:10384000EC0181309105E1F21CF4892B39F0E1CFD4
:1038500082309105C1F20397C9F2DBCFDF91CF919E
:103860000895CF93DF93C0E0D0E02BE231E041E355
:1038700051E067E371E08FE391E00E94B00F0E9496
:10388000FA07BE0184E090E00E94C612EC0182308B
:10389000910599F02CF4009749F0019751F016C06A
:1038A0008330910569F0049771F010C00E94F715FC
:1038B000DCCF80E00E94E913D8CF0E94BE17D5CF9D
:1038C0000E94FB1BD2CF0E946D1105C00E946D119A
:1038D000C430D10554F2DF91CF9108952FEF89E6DE
:1038E00098E1215080409040E1F700C000008FEF48
:1038F00084B9269827988AB95298509887B93898E9
:103900005F9A5E9A299A0E9457070E9498070E9420
:103910006D110E94150C78940F2EF2EECF2EFDE063
:10392000DF2EF02D0F2EF3EFEF2EF1E0FF2EF02D16
:1039300003E112E00F2EFFE18F2EF2E09F2EF02D1B
:103940000F2EF3E1AF2EF2E0BF2EF02D0F2EF2E09E
:103950006F2EFEE07F2EF02D0F2EFBE64F2EF1E0B6
:103960005F2EF02DC3EFD1E03324339480915301C7
:1039700081110E947E118091550190915601892BF1
:1039800021F010925601109255010E94370C8823A5
:1039900031F080915701811102C00E94351280914F
:1039A0005401882309F45CC00E94090C359B5BC05C
:1039B00020E030E040EC5FE360914F0170915001F6
:1039C00080915101909152010E94B41D88230CF006
:1039D0004AC0EFE7F8E321E0E150F0402040E1F792
:1039E00000C00000359B3FC020E030E040EC5FE3CA
:1039F00060914F017091500180915101909152015D
:103A00000E94B41D88232CF32EC084918D9331968F
:103A1000A017B107D1F79401D50180E090E0FC0137
:103A2000E852F24F4491F90141939F01FC01E253A6
:103A3000F24FE491ED9301968A30910581F7F301FD
:103A4000D20184918D933196AC17BD07D1F7309296
:103A50005701832D0E94311C10925401109257017E
:103A60000E948D1283CF15BC20E030E040EC5FE374
:103A700060914F01709150018091510190915201DC
:103A80000E942E1E181644F7F601D701BECF5058DB
:103A9000BB27AA270E945F1D0C94F41D0E94E61DFF
:103AA00038F00E94ED1D20F039F49F3F19F426F400
:103AB0000C94E31D0EF4E095E7FB0C94DD1DE92F5B
:103AC0000E94051E58F3BA1762077307840795070B
:103AD00020F079F4A6F50C94271E0EF4E0950B2E39
:103AE000BA2FA02D0B01B90190010C01CA01A00150
:103AF0001124FF27591B99F0593F50F4503E68F1AB
:103B00001A16F040A22F232F342F4427585FF3CFEB
:103B1000469537952795A795F0405395C9F77EF4BC
:103B20001F16BA0B620B730B840BBAF09150A1F005
:103B3000FF0FBB1F661F771F881FC2F70EC0BA0F8B
:103B4000621F731F841F48F4879577956795B79513
:103B5000F7959E3F08F0B0CF9395880F08F099270E
:103B6000EE0F9795879508950E94B91D08F481E09E
:103B70000895990F0008550FAA0BE0E8FEEF1616FE
:103B80001706E807F907C0F012161306E407F50751
:103B900098F0621B730B840B950B39F40A2661F0C5
:103BA000232B242B252B21F408950A2609F4A14068
:103BB000A6958FEF811D811D089597F99F6780E875
:103BC00070E060E008959FEF80EC089500240A946F
:103BD0001616170618060906089500240A941216E8
:103BE0001306140605060895092E0394000C11F41B
:103BF000882352F0BB0F40F4BF2B11F460FF04C0C8
:103C00006F5F7F4F8F4F9F4F089557FD9058440F20
:103C1000551F59F05F3F71F04795880F97FB991F2B
:103C200061F09F3F79F087950895121613061406E8
:103C3000551FF2CF4695F1DF08C016161706180675
:103C4000991FF1CF86957105610508940895E89450
:103C5000BB2766277727CB0197F908950E94B91DE6
:103C600008F48FEF089597FB072E16F4009407D001
:103C700077FD09D00E94471E07FC05D03EF49095C1
:103C800081959F4F0895709561957F4F0895AA1B68
:103C9000BB1B51E107C0AA1FBB1FA617B70710F037
:103CA000A61BB70B881F991F5A95A9F78095909569
:0A3CB000BC01CD010895F894FFCF88
:103CBA00011E00E007070004000500416C6C6573F3
:103CCA00204C6965626500426F6F6D626F780053C0
:103CDA006E6F6F7A656461756572002E202E202ED4
:103CEA0000446174756D005568727A65697400578D
:083CFA0065636B7A65697400D3
:00000001FF
