S01100004541444F474C3132382E73726563CC
S11300000C9458070C9475070C9475070C94660BA4
S11300100C9475070C94990B0C9475070C94750744
S11300200C9475070C94DF0B0C9475070C947507EE
S11300300C9475070C9475070C9475070C9475074C
S11300400C94340C0C9475070C9475070C94750778
S11300500C9475070C9475070C9475070C9475072C
S11300600C9475070C9475078003C001C007E00366
S1130070C007E003C007E0038003C0011F1C1F1E6C
S11300801F1E1F1F1E1F1E1F230000000D00140033
S1130090000011003500350035001F000400010088
S11300A01100140000001100350035002600340052
S11300B011001900350035003500350035001A00EF
S11300C00F00110008000B00350035003500350025
S11300D026000000080035003500350035003500E5
S11300E03500230014000D000800350035003500EC
S11300F035003500230014000B00080035003500DE
S11301003500350035001A001400060014001200F2
S113011013003500350035002C0004000F001300D7
S113012004000C0001000400110028000A00130060
S11301300E000100040011003500350027000E00F8
S1130140150004000C0001000400110035001D001E
S11301500400190004000C00010004001100350023
S1130160080907090800080A040009040D0A080917
S1130170000606060A0B0E0A00080D0A000B000909
S1130180000000050B090E0C0C00000008000C0018
S1130190120000000800020A140E1314141214149E
S11301A0141400F00F0000FFFF07E0FFFF0FF0FF43
S11301B0FF1FF80FF03F7C00007F1E0000780F0047
S11301C000F0070000E0070000E0070000E007007F
S11301D000E00F0000F01E0000787C00007FF80FA4
S11301E0F03FF0FFFF1FE0FFFF0F00FFFF0700F0ED
S11301F00F0010000000100000001800007018002C
S113020000701C0000701C000070FCFFFF7FFEFFEC
S1130210FF7FFEFFFF7FFEFFFF7F000000700000F6
S1130220007000000070000000700000000000007A
S113023000000000000000000000000000000000BA
S1130240000000000070FC010078FC01007C7E00CE
S1130250007E1E00007F0E00807F0E00C077070026
S1130260E0730700F0710700F87007007C700E005F
S11302703E701E001F701E800F703CC00770FCF0A3
S11302800370F8FF0170F0FF0070E07F0070000061
S1130290000000000000FC01803FFC01807F7E0024
S11302A0007E1E0000780E8000F006C001E007C04A
S11302B001E007C001E007E001E00EE001E00EF01C
S11302C001703EFE0370FCFF0778FC9F1F3EF88F11
S11302D0FF3FF003FF1F0000FE0F0000F8030000C3
S11302E00000000070000000780000007C000000A6
S11302F07F000080770000E0710000F07000003C97
S11303007000001E700000077070C0037070E00081
S11303107070F8FFFF7FFCFFFF7FFEFFFF7FFEFF93
S1130320FF7F0000707000007070000070700000AB
S1130330700000000030FEFF0070FEFF0060FEFF52
S113034000600EF000E00E7000E00E7000E00E7031
S113035000E00E7000E00EF000600EE000700EE0B1
S113036001780EC0013C0EC00F3F0E80FF1F0E80AF
S1130370FF0F0E00FF070000FC010000000000005A
S113038000000000FF0000F0FF0300FCFF0F00FF6F
S1130390FF1F80FFFF3FC0FF003FE0770078F07150
S11303A00070787000F0387000E01C7000E01C7081
S11303B000E00EF0007006F0017806E0073C07E06C
S11303C0FF3F07C0FF1F0280FF0F0000FF07000070
S11303D0FC00FE010000FE010000FE0100C03E0022
S11303E000F01E0000FC1E0000FF1E0080FF1E0027
S11303F0E0FF1E00F83F1E00FE0F1E80FF011EE0FE
S11304007F001EF81F001EFE03009EFF0000FE3F3B
S11304100000FE070000FE0100007E0000000E0048
S113042000000000C003C007F00FF01FF81FF83FE2
S1130430FC3FFC7F7E7E7C7E1F781EFC07700EF0E6
S113044003E007F001E007E001E007E001E007F066
S113045001E00EF003E01EFC07707C7E1F78FC7F39
S11304607E7EF83FFC3FF01FF81FC007F00F00002E
S1130470C003003F0000E0FF0000F0FF0140F8FF70
S113048003E0FCFF07E03CE007601E800F600E0005
S11304900F7007000E3807000E3807000E1C0F00FF
S11304A00E1E0E008E0F1E00EE07FC00FF03FCFF65
S11304B0FF01F8FFFF00F0FF3F00C0FF0F0000FF47
S11304C000000A040808090809080809F001FC07E3
S11304D01E0F071C03180318071C1E0FFC07F0014E
S11304E00210FF1FFF1F00100000000000000000AA
S11304F000000000061C071E031F831BC319E71816
S11305007E183C1800000000060C071C031843105A
S1130510E318E31CBE0F1C0700000000C003E00347
S1130520300318030C13FE1FFF1F0013000100000B
S11305303F0C7F1C631863106318E31CC30F800710
S113054000000000F007F80FFC1C6E18261063185A
S1130550E31CC10F8007000007000318031E830774
S1130560E3017B001F000700000000001C07BE0F12
S1130570F319E110E110F3199E0F0C0700000000BD
S11305803C007E10E718C318810CC30EE707FE0376
S1130590FC010000000E601F3019B019B019F00FF3
S11305A0E01F001800000000000000000000000030
S11305B000000000000000000100FF1FFF1F601882
S11305C030183018701CE00FC00700000000000055
S11305D0000000000000000000000000C007E00F61
S11305E0701C10103018701C600C0000000000001B
S11305F000000000000000000000000000000000F7
S11306008007E00F6018301830183108FF1FFF1FF3
S113061000100000000000000000000000000000C6
S113062000000000E00FF00FB01D10191011B019F8
S1130630F019E008000000000000000000000000C5
S113064000000000000000000000000000000000A6
S11306500000000000000000000000000000000096
S11306600000000000000000000000006076F0FFC1
S113067098CF088D988DF8CDF8FC0878000000001C
S11306800000000000000000000000000000000066
S11306900110FF1FFF1F6010300030007010E01FBA
S11306A0C01F001000000000000000000000000057
S11306B0000000001210F71FF21F001000000000DD
S11306C00000000000000000000000000000000026
S11306D00000000000000000000000000000000016
S11306E00000000000000000000000000000000006
S11306F00000000000000000000000000210FF1FC6
S1130700FF1F00138007E01F601C2018001000006A
S113071000000000000000000000000000000000D5
S11307200110FF1FFF1F0010000000000000000068
S113073000000000000000000000000000000000B5
S1130740000000002010F01FF01F60103000701037
S1130750E01FC01F601030007010E01FC01F0010A9
S113076000000000000000002010F01FF01F3010F7
S1130770300030007010F01FC01F00100000000097
S11307800000000000000000000000008007E00FEF
S11307906018301830186018E00F8007000000005F
S11307A00000000000000000000000000000000045
S11307B01080F8FFF8FF188C1008180C380EF0079A
S11307C0E001000000000000000000000000000044
S11307D00000000000000000000000000000000015
S11307E00000000000000000000000000000000005
S11307F000000000000000001010F01FF01F601047
S113080030001000000000000000000000000000A4
S1130810000000000000000000000000C00CF019FF
S1130820B0191013301B600E00000000000000001F
S113083000000000000000000000000000000000B4
S11308402000F00FF81F201820080000000000000E
S11308500000000000000000000000000000000094
S1130860000000002000F00FF01F0018001000101E
S11308702018F00FF01F001000000000000000001E
S1130880000000000000000010003000F000D00361
S1130890000F001C000FD003F00030001000000017
S11308A000000000000000000000000030007000A4
S11308B0F003F00F801F301FF003F003F01F001F40
S11308C0B00FF003700030000000000000000000D2
S11308D000101018301CF00EC003C003F00E301CC2
S11308E010180010000000000000000000000000CC
S11308F000000000000000000000000000000000F4
S113090000000000000000000000000000000000E3
S113091000000000000000007018301C301E301B66
S1130920B019F0187018301C00000000000000001E
S1130930000000000000000000000000001000188B
S1130940001EC017F8013E0107013E01F801C0175F
S1130950001E00180010000000000000000000004D
S11309600318FF1FFF1F6318631863187718DE0C42
S11309708C0F0007000000000000000000000000D1
S11309800000000000000000000000000000000063
S11309900000000000000000000000000000000053
S11309A000000000000000000318FF1FFF1F0318D1
S11309B0031803180318070C0E0EFC07F8030000B5
S11309C00000000000000000000000000000000023
S11309D00000000000000000000000000000000013
S11309E00000000000000000000000000000000003
S11309F00110FF1FFF1FC310C300E3010300030026
S1130A0007000000000000000000000000000000DB
S1130A1000000000000000000000000000000000D2
S1130A2000000000000000000000000000000000C2
S1130A3000000000000000000000000000000000B2
S1130A4000000000000000000000000000000000A2
S1130A500000000000000000000000000000000092
S1130A600000000000000000000000000000000082
S1130A700000000000000000000000000000000072
S1130A8000C001E0FF7FFF3F010000000000000004
S1130A900000000000000000000000000000000052
S1130AA0000000000110FF1FFF1F6110F0009801FB
S1130AB00D030716031C01180010000000000000BD
S1130AC000000000000000000110FF1FFF1F0118BC
S1130AD0001800180018001C001E00000000000090
S1130AE00000000000000000000000000110FF1FD3
S1130AF0FF1F7E10F000C003000E000EC003700044
S1130B003E10FF1FFF1F0110000000000000000046
S1130B100110FF1FFF1F1F103C007800F001C003ED
S1130B208107FF1FFF1F01000000000000000000FC
S1130B3000000000F001BC070E0E0318031801109A
S1130B400110031803180E0EBC07F001000000008A
S1130B500000000000000000000000000000000091
S1130B600000000000000000000000000000000081
S1130B700000000000000000000000000000000071
S1130B800000000000000000000000000000000061
S1130B900000000000000000000000000000000051
S1130BA00000000000000000000000000000000041
S1130BB00000000000000000000000000000000031
S1130BC0000000001C0C3E1863186110C110C3190A
S1130BD0830F060700000000000000000000000072
S1130BE00000000000000000000000000000000001
S1130BF000000000000000000000000000000000F1
S1130C000000000000000000000000000100FF07D9
S1130C10FF0F010C0018001000100018010CFF0F4A
S1130C20FF070100000000000000000000000000B9
S1130C3000000000000000000000000000000000B0
S1130C4000000000000000000000000000000000A0
S1130C5000000000010003001F00F900C007000E9F
S1130C60011FE3037F007F00E303011F000EC007A1
S1130C70F9001F0003000100000000000000000054
S1130C800000000000000000000000000000000060
S1130C900000000000000000000000000000000050
S1130CA00000000000000000000000000000000040
S1130CB00000000000000000000000000000000030
S1130CC00000000000000000000000000000000020
S1130CD00000000000000000000000000000000010
S1130CE000000000000E601F3419B019B019F40F91
S1130CF0E01F0018000000000000000000000000D9
S1130D0000000000000000000000000000000000DF
S1130D1000000000000000000000000000000000CF
S1130D20000000000000000000000000001800188F
S1130D3000000000000000000000000000000000AF
S1130D40000000000000000000000000000000009F
S1130D502000F607F60F001C00182018F60FF61FE7
S1130D600018001000000000000000000000000057
S1130D7000000000800680058004000190015001FD
S1130D80300110016000710059004D00470043001C
S1130D9000FF0180FF0380FF0380FF0380FF0380C7
S1130DA0FF0380FF0380FF0380FF03C0FF07E0FF12
S1130DB00FF0FF1FF8FF3FFCFF3FFEFF7FFEFFFF2A
S1130DC0FEFFFF00000080000180EF0380FF03109E
S1130DD0FE0870001CF0831FC6FF471EFFF17C0055
S1130DE07CF8C33FE0FF0F00FF010000000001801A
S1130DF003B01B701DF01EF01EF01EF01EF01E70DE
S1130E000E40078001800180018001800180018003
S1130E100180C180718079803D801D800F800380B6
S1130E2001800180018001800183018E019E01BC4B
S1130E3001B801F001C001800180018001800180BE
S1130E40018001800180010E1F3F7E00007E3F1F54
S1130E500E000E1F3F7E7E3F1F0E0000007000FC40
S1130E6001FC03FE07FE0FFC1FF83FFC1FFE0FFEF4
S1130E7007FC03FC017000000000000002000700F2
S1130E801F007E00780078003E000F8007C001E05C
S1130E9000300018000C00060002000000004000B2
S1130EA0E000F000F0FE7F1E0010002000C00700EC
S1130EB011241FBECFEFD8E0DEBFCDBF11E0A0E00C
S1130EC0B1E0E2E3F5E402C005900D92A236B10769
S1130ED0D9F725E0A2E6B1E001C01D92AC3DB2070E
S1130EE0E1F70E9498200C9497220C9400004498F7
S1130EF028E030E04198409888230CF4409A419AC5
S1130F00880F21503109B1F7449A4098089580E43C
S1130F100E94770781EA0E94770780EC0E94770796
S1130F2086EA0E94770782EA0E9477078FE20E948E
S1130F30770788EF0E94770780E00E94770787E2AF
S1130F400E94770781E80E94770786E10E9477076D
S1130F508CEA0E94770780E00E9477078FEA0E945C
S1130F6077070895429A0E94770742980895CF938D
S1130F70C82F8F700E9477078C2F82958F708061A5
S1130F800E947707CF91089580550E9477070895AE
S1130F901F93CF93DF93D0E010E00FC08C2F0E94FB
S1130FA0C4078D2F0E94B707812F0E94B207CF5F1D
S1130FB0C830A1F7DF5FD03811F0C12FEFCFDF9138
S1130FC0CF911F910895262F26952695269530E0DA
S1130FD0F90198E0899FE00DF11D1124E452FE4FC0
S1130FE0319521953109220F331F220F331F220F10
S1130FF0331F260F311D81E090E002C0880F991F36
S11310002A95E2F79081892B80830895262F2695CF
S11310102695269530E0F90198E0899FE00DF11DB1
S11310201124E452FE4F319521953109220F331FCB
S1131030220F331F220F331F260F311D81E090E052
S113104002C0880F991F2A95E2F780959081892321
S113105080830895DF92EF92FF920F931F93CF93B3
S1131060DF930F2EFCEDEF2EF1E0FF2EF02DD0E0FC
S1131070D12C14C08C2F0E94C4078D2F0E94B70757
S1131080F80181918F010E94B207CF5FC83091F7B8
S1131090F8E0EF0EF11CDF5FD03819F08701CD2D99
S11310A0E9CFDF91CF911F910F91FF90EF90DF90E7
S11310B008952F923F924F925F926F927F928F92F8
S11310C09F92AF92BF92CF92DF92EF92FF920F93D3
S11310D01F93CF93DF9300D000D01F92CDB7DEB71C
S11310E07C013B014A013B832A83161617060CF048
S11310F058C02A802C01C12CD12CA12CB12C0983DD
S11311003AC0C80111230CF40796959587959595D7
S1131110879595958795EC81FD81E80FF91F80816E
S113112090E0980127703078332334F4215031094A
S1131130286F3F6F2F5F3F4F02C0959587952A9583
S1131140E2F780FF05C0632D822D0E94E30704C0EF
S1131150632D822D0E9406080F5F1F4F33940E15D6
S11311601F0579F62FEFA21AB20A2394C40CD51CDA
S1131170A614B704B1F01E141F04A4F7C601DD20A1
S11311800CF40796959587959595879595958795EC
S1131190398000E010E0FC01E80DF91DFD83EC83CB
S11311A0B0CF8A819B81860D971D0F900F900F9071
S11311B00F900F90DF91CF911F910F91FF90EF90BF
S11311C0DF90CF90BF90AF909F908F907F906F9063
S11311D05F904F903F902F9008953F924F925F926F
S11311E06F927F928F929F92AF92BF92CF92DF9233
S11311F0EF92FF920F931F93CF93DF931616170668
S11312000CF04FC07C01522E3B01660C771C812CE4
S1131210912C312C412C84E2849F5001859FB00C89
S1131220112437C0FE01DD230CF43796F595E795BC
S1131230F595E795F595E795EC0DFD1DEA0DFB1D7C
S1131240EC56FA4FE491F0E0CE0187709078992340
S113125024F40197886F9F6F019602C0F595E79576
S11312608A95E2F7E0FF05C0612F852D0E94E30710
S113127004C0612F852D0E94060821961F5FCE159C
S1131280DF0581F6539482E0880E911C861497043E
S113129041F01E141F04B4F76401102FC32DD42D84
S11312A0C1CFDF91CF911F910F91FF90EF90DF900D
S11312B0CF90BF90AF909F908F907F906F905F90F2
S11312C04F903F9008952F923F924F925F926F926A
S11312D07F928F929F92AF92BF92CF92DF92EF92C2
S11312E0FF920F931F93CF93DF939A012E533B4F9B
S11312F04901F9019491992309F45EC0682EC12C27
S1131300D12CA12CB12C262E6894552454F8560EB9
S1131310312C412C84E1849F7001859FF00C1124B1
S11313203CC0FE01DD230CF43796F595E795F59561
S1131330E795F595E795E00FF11FEE0DFF1DE453DA
S1131340FB4FE491F0E0CE0187709078992324F468
S11313500197886F9F6F019602C0F595E7958A956E
S1131360E2F7E0FF05C0672D862D0E94E30704C065
S1131370672D862D0E940608219673947510D1CF8F
S1131380FFEFAF1ABF0AF4018491F0E1CF0ED11C34
S1131390639490E0A816B9067CF48601DD2014F469
S11313A0095F1F4F15950795159507951595079591
S11313B0722CC32DD42DB5CFDF91CF911F910F91F6
S11313C0FF90EF90DF90CF90BF90AF909F908F9061
S11313D07F906F905F904F903F902F9008952F9241
S11313E03F924F925F926F927F928F929F92AF92B1
S11313F0BF92CF92DF92EF92FF920F931F93CF93FE
S1131400DF939A0128563E4F4901F901949199239B
S113141009F45EC0682EC12CD12CA12CB12C262E2F
S11314206894552455F8560E312C412C80E5849F40
S11314307001859FF00C11243CC0FE01DD230CF4E7
S11314403796F595E795F595E795F595E795E00FCA
S1131450F11FEE0DFF1DEE55FE4FE491F0E0CE01BD
S113146087709078992324F40197886F9F6F019671
S113147002C0F595E7958A95E2F7E0FF05C0672D70
S1131480862D0E94E30704C0672D862D0E9406085E
S1131490219673947510D1CFFFEFAF1ABF0AF401F0
S11314A08491F0E2CF0ED11C639490E0A816B906A3
S11314B07CF48601DD2014F4095F1F4F1595079510
S11314C01595079515950795722CC32DD42DB5CF79
S11314D0DF91CF911F910F91FF90EF90DF90CF900C
S11314E0BF90AF909F908F907F906F905F904F9040
S11314F03F902F900895843099F028F4813051F072
S1131500833059F00895873089F0883089F0863027
S113151081F409C0529A5A980895519A5998089595
S1131520539A5B980895509A589A08955F9A08952B
S1131530289A089588E00E947B0A2FEF81EE94E0B8
S1131540215080409040E1F700C00000089587E0FA
S11315500E947B0A0895843099F028F4813051F078
S1131560833059F00895873089F0883089F08630C7
S113157081F409C05A9A52980895599A5198089535
S11315805B9A539808955898509808955F980895D1
S11315902898089588E00E94AB0A089587E00E9485
S11315A0AB0A08950E94CE0A0E949A0A2FEF81EE98
S11315B094E0215080409040E1F700C000000E9478
S11315C0A70A08950E94CE0A2FEF81EE94E02150DD
S11315D080409040E1F700C000000E94CA0A0895CC
S11315E086E00E947B0A2FEF83ED90E32150804038
S11315F09040E1F700C0000086E00E94AB0A2FEFA4
S113160081E19AE7215080409040E1F700C000005A
S1131610089581E00E947B0A2FE785EB91E0215039
S113162080409040E1F700C0000081E00E94AB0AD6
S11316302FE785EB91E0215080409040E1F700C016
S11316400000089586E00E947B0A2FE785EB91E075
S1131650215080409040E1F700C0000086E00E94E5
S1131660AB0A2FE785EB91E0215080409040E1F7F1
S113167000C000000895882381F084E00E947B0A62
S11316802FE785EB91E0215080409040E1F700C0C6
S1131690000084E00E94AB0A0FC083E00E947B0A32
S11316A02FE785EB91E0215080409040E1F700C0A6
S11316B0000083E00E94AB0A2FE785EB91E0215004
S11316C080409040E1F700C0000008951F920F92FF
S11316D00FB60F9211245F936F937F938F939F9311
S11316E0AF93BF931A9B14C081E080936E018091E5
S11316F06201882369F080918001909181010396B1
S11317006CE370E00E946F229093D1018093D0012A
S1131710199B03C081E080936D01BF91AF919F91AC
S11317208F917F916F915F910F900FBE0F901F90DB
S113173018951F920F920FB60F9211245F936F9317
S11317407F938F939F93AF93BF9389B199B196FB86
S1131750992790F985FB882780F998130AC080910E
S11317606F019091700101969093700180936F01C5
S113177009C080916F01909170010197909370015D
S113178080936F0180916201882369F080918001C8
S11317909091810103966CE370E00E946F22909314
S11317A0D1018093D001BF91AF919F918F917F918F
S11317B06F915F910F900FBE0F901F9018951F921D
S11317C00F920FB60F9211242F933F938F939F93F1
S11317D0AF93BF938091730190917401A0917501AF
S11317E0B09176010196A11DB11D80937301909370
S11317F07401A0937501B09376018091800190915A
S1131800810101969093810180938001CC9769F4C2
S1131810809177019091780101969093780180935B
S113182077011092810110928001809162018823D6
S113183081F020918001309181018091D0019091BB
S1131840D1012817390729F445982B982C98109220
S11318506201BF91AF919F918F913F912F910F9012
S11318600FBE0F901F9018951F920F920FB60F92F4
S113187011242F933F934F935F936F937F938F9391
S11318809F93AF93BF93EF93FF932DEB37E346E022
S11318905CE36091690170916A0180916B019091A0
S11318A06C010E9484216093690170936A018093A2
S11318B06B0190936C01FF91EF91BF91AF919F9158
S11318C08F917F916F915F914F913F912F910F90E5
S11318D00FBE0F901F9018958FEF84B9219822980E
S11318E026982798289887B98AB950985198529879
S11318F053985498559856985F98439A449A419AA5
S11319000895E6EBF0E08081806280831092B2005B
S1131910E1EBF0E0808185608083E0E7F0E08081A6
S11319208160808381E080936E00E8E6F0E080834C
S1131930ABE6B0E082E08C938C9184608C938081E0
S11319408460808380E280936D0008958091080113
S1131950909109016CE370E00E946F222091820152
S113196030918301820F931F90937D0180937C01BA
S1131970059754F480910A0190910B01019690937C
S11319807F0180937E01089580910A0190910B015B
S113199090937F0180937E0108951F93CF93DF93EB
S11319A0861797076CF0DCE519C06C2F8D2F0E9409
S11319B00608CF5FC034C9F7DF5FD33119F410C014
S11319C0D0E010E0C12FF1CF6C2F8D2F0E940608BC
S11319D0CF5FC034C9F7DF5FDC3611F0C0E3F4CF6A
S11319E0DF91CF911F9108950F931F93CF93DF93AE
S11319F0EC018B0180916701909168010E94CD0CEC
S1131A00C017D1079CF48FE08C9F80018D9F100D2F
S1131A1011240E5F1F4F22E030E046EA51E060E1FE
S1131A2070E080E190E00E9459080CC00FE210E0E1
S1131A302CE530E046EA51E060E170E080E190E0BE
S1131A400E945908D0936801C0936701DF91CF9138
S1131A501F910F910895AF92BF92CF92DF92EF92B0
S1131A60FF920F931F93CF93DF937C015B011216B8
S1131A70130634F5EA01220F331F6A01C20ED31E86
S1131A8048815981552324F483E0E80EF11C14C0E5
S1131A90FA01E05AFE4F649170E08501970180E1FC
S1131AA090E00E94ED08E881F981E05AFE4FE4914C
S1131AB0F0E03196EE0EFF1E2296CC15DD0501F7FF
S1131AC0DF91CF911F910F91FF90EF90DF90CF9016
S1131AD0BF90AF900895ECEDF1E02CED35E008C037
S1131AE01192E817F907E1F7FC012817390719F0F3
S1131AF0CF010896F5CF08951092690110926A01FA
S1131B0010926B0110926C0116BC84E085BD08959F
S1131B10F8948091770190917801181619061CF4B5
S1131B20789481E00895789480E008951F93CF938A
S1131B30DF93D1E011E00AC06C2F8D2F0E940608BC
S1131B40CF5FC131C9F7DF5FDA3011F0C12FF4CFB5
S1131B50DF91CF911F9108950F931F93CF93DF933C
S1131B60CDB7DEB7C854D1090FB6F894DEBF0FBEA7
S1131B70CDBFEDE9FEE0DE0111969E01275B3F4FEC
S1131B8084918D933196A217B307D1F701E010E049
S1131B9021E030E0AE014F5F5F4F69E070E080E12B
S1131BA090E00E945908C85BDF4F0FB6F894DEBF7F
S1131BB00FBECDBFDF91CF911F910F9108951F9359
S1131BC0CF93DF93D1E011E00AC06C2F8D2F0E94D8
S1131BD00608CF5FCC30C9F7DF5FDE3011F0C12FCC
S1131BE0F4CFDF91CF911F9108950F931F93CF935B
S1131BF0DF93CDB7DEB72E970FB6F894DEBF0FBED6
S1131C00CDBFE4E7FDE0DE0111969E01215F3F4F69
S1131C1084918D933196A217B307D1F701E010E0B8
S1131C2021E030E0AE014F5F5F4F6EE070E08BE08B
S1131C3090E00E9459082E960FB6F894DEBF0FBEAE
S1131C40CDBFDF91CF911F910F9108956F927F9235
S1131C508F929F92AF92BF92CF92DF92EF92FF92B8
S1131C600F931F93CF93DF936C01A82EE12CF12CDB
S1131C70662E6894992495F8960E712C812C35C0A3
S1131C80FE01DD230CF43796F595E795F595E79578
S1131C90F595E795E00FF11FE859FF4FE491F0E067
S1131CA0CE0187709078992324F40197886F9F6FF1
S1131CB0019602C0F595E7958A95E2F7E0FF05C025
S1131CC06B2D8A2D0E94E30704C06B2D8A2D0E9480
S1131CD006082196B394B910D3CF80E2E80EF11C24
S1131CE0A39480EAE816F10479F08701FF2014F444
S1131CF0095F1F4F15950795159507951595079538
S1131D00B62CC72DD82DBCCFC6010596DF91CF9137
S1131D101F910F91FF90EF90DF90CF90BF90AF9005
S1131D209F908F907F906F9008956AE070E00E947A
S1131D306F22FC01E856FE4F849190E00296FB016D
S1131D40E856FE4F6491860F911D0895CF93DF935B
S1131D50EB010E94950E9093660180936501CE017C
S1131D600E94950E809363019093640190916501A4
S1131D70935F890F2FE730E0281B3109C9019923AC
S1131D800CF401969595879590937A018093790147
S1131D90DF91CF910895EF92FF920F931F93CF930A
S1131DA0DF930091790110917A016AE070E00E945A
S1131DB06F22EB017C01AB0169E070E0C8010E9475
S1131DC0EF09FE01E856FE4FC491D0E02296C00F01
S1131DD0D11FA70169E070E0CE010E94EF09F7016D
S1131DE0E856FE4FE491CE018E0F911D0496DF91CB
S1131DF0CF911F910F91FF90EF900895EF92FF9272
S1131E000F931F93CF93DF937C018B018AE0E81635
S1131E10F1047CF440E050E069E070E0C8010E9405
S1131E20EF09E8E9F1E0E491F0E032960E0F1F1FAC
S1131E3014C0C7016AE070E00E946F22EB01AB019D
S1131E4069E070E0C8010E94EF09FE01E856FE4F08
S1131E50E491F0E032960E0F1F1FC7016AE070E0B4
S1131E600E946F22AC0169E070E0C8010E94EF0992
S1131E70DF91CF911F910F91FF90EF9008950F93F1
S1131E801F93CF93DF9300910A0110910B01C0912E
S1131E908201D0918301882341F000917E01109149
S1131EA07F01C0917C01D0917D01BE01C8010E94D7
S1131EB0A60EC8010E94CB0E69E070E00E94260EB7
S1131EC0BC016C5F7F4FCE010E94FE0EDF91CF916B
S1131ED01F910F91089516161706C4F4DC01660FBE
S1131EE0771F680F791F8FEF9FEFED91FD91FF230F
S1131EF014F4039607C0E05AFE4FE491F0E03196E3
S1131F008E0F9F1FA617B70781F708958FEF9FEFD6
S1131F1008958F929F92AF92BF92CF92DF92EF92E9
S1131F20FF920F931F93CF93DF937C01C0E0D0E027
S1131F306B018FEFC81AD80AA62EB72E4091040160
S1131F4050910501FA01EE0FFF1FEE0FFF1FEE0F78
S1131F50FF1FE40FF51FEC0FFD1FEE0FFF1FE857E7
S1131F60FF4FE4914E2F50E0463351053CF5463087
S1131F70510531F0EF50E23018F04831510519F4B1
S1131F800C2D1D2D02C00A2D1B2D4130510519F4B5
S1131F9091E0E91AF108FA01E05AFE4F4F01649109
S1131FA070E0970180E190E00E94ED08F4018490D4
S1131FB0912CFFEF8F1A9F0AE80CF91C2196C93067
S1131FC0D10509F0BBCFDF91CF911F910F91FF9005
S1131FD0EF90DF90CF90BF90AF909F908F90089537
S1131FE0CF92DF92EF92FF920F931F93CF93DF93E1
S1131FF0EC017B0140910601509107014A305105E3
S1132000CCF0CA016AE070E00E946F228B016C017F
S1132010AB01B701CE010E946309F801EE53FB4FF7
S1132020E491CE018E0F911DA601B70101960E9485
S1132030630902C00E946309DF91CF911F910F9140
S1132040FF90EF90DF90CF900895CF93DF9380912E
S113205002019091030118161906ACF42FEF3FEF1B
S1132060CAE0D0E0BE010E946F22FC01EE53FB4F98
S1132070E491F0E031962E0F3F1F862F972F18160C
S1132080190684F302C02FEF3FEFC901DF91CF910E
S113209008950E9425102FE730E0281B390BC90151
S11320A099230CF401969595879501960895CF92FE
S11320B0DF92EF92FF920F931F93CF93DF930E94CF
S11320C049106C01809102019091030168EE73E064
S11320D00E946F22EB017C01AB0168E270E0C60153
S11320E00E946309FE01EE53FB4F049110E00F5F61
S11320F01F4F0C0D1D1DC70164E670E00E946F2286
S1132100EB017C01AB0168E270E0C8010E94630945
S1132110FE01EE53FB4FC491D0E021960C0F1D1F1E
S1132120C7016AE070E00E946F22EB017C01AB0101
S113213068E270E0C8010E946309FE01EE53FB4FA0
S1132140C491D0E0CE010196A70168E270E0800F4F
S1132150911F0E946309F701EE53FB4FE491DF9155
S1132160CF911F910F91FF90EF90DF90CF90089542
S1132170CF93DF93C0910601D0910701CE016AE0AD
S113218070E00E946F22FC01EE53FB4FE4912E2F6E
S113219030E0CA30D1056CF0CE016AE070E00E94F4
S11321A06F22FB01EE53FB4FE491F0E031962E0FCA
S11321B03F1FC901DF91CF9108956091040170918F
S11321C00501660F771FCB01880F991F880F991F90
S11321D0880F991F680F791FAB0148575F4F6656E8
S11321E07F4F8FEF9FEFFA01249130E025333105C3
S11321F049F0F901E05AFE4F249130E02F5F3F4F40
S1132200820F931F4E5F5F4F4617570761F708957C
S1132210CF93DF930E94B810EC010E94DD108C0F65
S11322209D1F0696DF91CF9108950E9408112FE714
S113223030E0281B390BC90199230CF401969595BC
S11322408795019608951F93CF93DF93DC01EC01EA
S113225040E050E01FEF9FEF30C029918FEB820FD9
S11322608A3120F430E02752310921C08FE9820FEE
S11322708A3120F430E02156310919C02E3261F040
S113228018F4203261F00EC0243E19F02C3F69F09E
S113229009C024E330E00BC026E330E008C0212F5E
S11322A0392F05C0212F392F02C027E330E0FB016D
S11322B021933193BF014F5F5F4FFD0101900020D7
S11322C0E9F73197EA1BFB0B4E175F0730F2DF91FA
S11322D0CF911F9108954F925F926F927F928F9248
S11322E09F92AF92BF92CF92DF92EF92FF920F93A1
S11322F01F93CF93DF93CDB7DEB74C015B016A0127
S113230079016DB67EB60E946B0DF4010190002038
S1132310E9F731978F0108191909000F111F8DB7BB
S11323209EB7801B910B0FB6F8949EBF0FBE8DBF56
S113233001962C01BC01C4010E9423119801369519
S11323402795A20163E070E084E190E00E942B0DE8
S1132350F50101900020E9F731978F010A191B0953
S1132360000F111F8DB79EB7801B910B0FB6F89409
S11323709EBF0FBE8DBF01964C01BC01C5010E94DA
S11323802311980136952795A40162E170E084E158
S113239090E00E942B0DF60101900020E9F731979F
S11323A0EC19FD095F01AA0CBB1C8DB79EB78A19F5
S11323B09B090FB6F8949EBF0FBE8DBF0DB71EB715
S11323C00F5F1F4FB801C6010E9423119501369576
S11323D02795A80161E270E084E190E00E942B0D52
S11323E0F70101900020E9F73197EE19FF096F0119
S11323F0CC0CDD1C8DB79EB78C199D090FB6F894D3
S11324009EBF0FBE8DBF0DB71EB70F5F1F4FB80124
S1132410C7010E942311960136952795A80160E310
S113242070E084E190E00E942B0D0EE210E02CE6B7
S113243030E044E851E061E170E080E190E00E9426
S113244059080FB6F8947EBE0FBE6DBEDF91CF91D2
S11324501F910F91FF90EF90DF90CF90BF90AF90BE
S11324609F908F907F906F905F904F900895AF9260
S1132470BF92CF92DF92EF92FF920F931F93CF936D
S1132480DF93CDB7DEB7C057D1090FB6F894DEBFDE
S11324900FBECDBF6C0100E05C0182E1A80EB11C4F
S11324A0EC2C0F2EF2E1FF2EF02DFC0C0AC0612F54
S11324B0802F0E9406081F5F1F11F9CF0F5F00389D
S11324C029F0CA14DB04D4F71E2DF1CF0E94151194
S11324D07C018FE2C816D10409F08AC080910601FC
S11324E0909107018E30910511F58091040190912E
S11324F00501019709F07CC0EDEEFDE0DE011196C7
S1132500CE01855A9F4F24912D933196A817B90770
S1132510D1F70FE210E02AE230E0AE014F5F5F4FE7
S11325206DE270E080E190E00E9459087FC004975A
S113253009F05EC08091040190910501079709F0AC
S113254057C0BE01655A7F4F8CE091E00E94231171
S11325506BE070E0CE01855A9F4F0E946B0F2FE70E
S113256030E0281B390BC90199230CF401968C0126
S11325701595079578018FEFE81AF80A2BE030E0FB
S1132580AE01455A5F4F6FE270E0C7010E942B0D08
S1132590EBE5FEE0DE011196CE01819624912D93A8
S11325A03196A817B907D1F79801235131090FE2E1
S11325B010E0AE014F5F5F4F60E170E080E190E0BA
S11325C00E9459086BE070E0CE01855A9F4F0E942B
S11325D06B0F8E0D9F1D9C012C5F3F4FAE014F5F13
S11325E05F4F60E170E080E190E00E9459081EC0F6
S11325F0B601C7010E94F00F0E94B810E6E9F1E0AD
S113260064918E0D9F1D9C012F5F3F4F70E08601EA
S113261046E350E080E190E00E94ED080E94B8108B
S11326208E0D9F1DB60106960E94890FC059DF4F7B
S11326300FB6F894DEBF0FBECDBFDF91CF911F91CF
S11326400F91FF90EF90DF90CF90BF90AF900895DF
S11326500E946B0D80E00E943F0F8FE290E00E9489
S113266037128091720181110E94AC0D0E942A08D8
S1132670089580916D01882309F464C00E947C0D43
S1132680199B2BC020E030E040EC5FE360916901CE
S113269070916A0180916B0190916C010E94F0210C
S11326A08823DCF42FE788E391E0215080409040B8
S11326B0E1F700C00000199B10C020E030E040ECBE
S11326C05FE36091690170916A0180916B0190915F
S11326D06C010E94F02188232CF315BC20E030E02B
S11326E040EC5FE36091690170916A0180916B0134
S11326F090916C010E946A2218166CF48091710109
S1132700811109C09091720181E08927809372013F
S11327100E94281313C0459A2B9A2C9A8091800109
S11327209091810103966CE370E00E946F22909374
S1132730D1018093D00181E080936201F8941092DA
S11327406D01789408958091060190910701019696
S113275090930701809306012091000130910101BB
S1132760281739074CF581E090E090930701809396
S11327700601E0910401F09105013196F093050101
S1132780E0930401E130F10579F480910201909124
S1132790030183709927892B39F48DE190E090939C
S11327A001018093000108C0E458FF4FE491F0E078
S11327B0F0930101E09300018091040190910501DF
S11327C00C9769F4109205011092040180910201A2
S11327D090910301019690930301809302018FE28B
S11327E090E00E94371208950F931F93CF93DF93C5
S11327F00091790110917A010038110574F010C02C
S11328006C2F802F0E940608CF5FC932C9F70F5F73
S11328101F4F0038110511F403C0D9E0CD2FF0CFBC
S11328202091770130917801809182019091830108
S1132830820F931F909383018093820110927801F9
S1132840109277018C3391058CF06CE370E00E9458
S11328506F22909383018093820180910A01909169
S11328600B01019690930B0180930A0180910A0158
S113287090910B01489734F010920B0110920A01C9
S11328800E94A31380E00E943F0F0E942A08DF9158
S1132890CF911F910F91089580916E01811134C0E1
S11328A080916F0190917001892B71F580916D0178
S11328B081112AC08091770190917801892B21F5AB
S11328C0A3EBB0E021E0E6EBF0E083B7816083BFE7
S11328D083B7866083BF2C93808183FDFDCF889569
S11328E080916E01811110C080916F0190917001EF
S11328F0892B51F480916D01811106C0809177017B
S113290090917801892B09F308950E94CE0A0E94C0
S1132910F00A80917B01811102C00E94090B0E9480
S1132920220B2FEF89E698E1215080409040E1F797
S113293000C000000E94D20A80916D0181111EC066
S113294080916F0190917001892BC1F480916E0187
S1132950811114C00E944C140E94880D0E94F4132B
S113296080916D0181110AC080916F019091700175
S1132970892B21F480916E01882361F380917B017E
S113298081115AC080916D01882309F44BC00E94C3
S11329907C0D199B2BC020E030E040EC5FE360919C
S11329A0690170916A0180916B0190916C010E94A0
S11329B0F0218823DCF42FE788E391E02150804064
S11329C09040E1F700C00000199B10C020E030E007
S11329D040EC5FE36091690170916A0180916B0141
S11329E090916C010E94F02188232CF315BC20E007
S11329F030E040EC5FE36091690170916A0180917D
S1132A006B0190916C010E946A2288230CF053C0E0
S1132A100E94960D0E94F50D0E94A60C81E0809301
S1132A207B0149C00E94960D0E94F50D0E94A60CE0
S1132A3081E080937B013FC00E944C140E94880D6A
S1132A4081110E94F4130E947C0D199B3BC020E06D
S1132A5030E040EC5FE36091690170916A0180911C
S1132A606B0190916C010E94F02188235CF52FE7A3
S1132A7088E391E0215080409040E1F700C00000DD
S1132A80199B20C020E030E040EC5FE360916901D5
S1132A9070916A0180916B0190916C010E94F02108
S1132AA088232CF30FC0109272010E94960D0E948D
S1132AB0DF0D10927B010E94220B0E94E20A0E9409
S1132AC0F00A089515BC20E030E040EC5FE360912B
S1132AD0690170916A0180916B0190916C010E946F
S1132AE06A2288230CF4A8CFDECFEF92FF920F93D3
S1132AF01F93CF93DF938C01EB01BC01CE010E94A5
S1132B00F40C0E942A08F8941092700110926F013C
S1132B1010926E01789480916E0181112CC078011D
S1132B208FEFE81AF80A80916F0190917001892B58
S1132B30D1F0F89480916F01909170018C0F9D1FDA
S1132B401092700110926F017894B7010E946F2265
S1132B50EC01992314F4CE0DDF1DB801CE010E94BF
S1132B60F40C0E942A080E944C140E94391390917C
S1132B706E019923C1F2F89410926E017894CE01FB
S1132B80DF91CF911F910F91FF90EF900895BF9225
S1132B90CF92DF92EF92FF920F931F93CF93DF9325
S1132BA020916E012111B6C0B42E6B017C01D0E0DE
S1132BB080916F0190917001892B09F4A2C0F8945F
S1132BC0F7012081318180916F0190917001820F12
S1132BD0931F918380831092700110926F01808102
S1132BE09181B6010E946F2299231CF09183808306
S1132BF005C08C0D9D1DF701918380831092810186
S1132C001092800178940091790110917A01809159
S1132C10650190916601800F911F209163013091AD
S1132C206401820F931F0D9608171907FCF020C04A
S1132C306C2F802F0E940608CF5FC932C9F70F5F3F
S1132C401F4F2091790130917A0180916501909113
S1132C506601280F391F4091630150916401240FCC
S1132C60351F235F3F4F0217130714F4CD2FE0CF16
S1132C708B2D0E943F0FFCE3CF16D10421F5209148
S1132C80790130917A018091650190916601280F54
S1132C90391F235F3F4F8091630190916401992311
S1132CA00CF4019695958795280F391F2450310906
S1132CB002E010E046EC51E06AE070E088E090E069
S1132CC00E9459081CC0209165013091660133238C
S1132CD014F42F5F3F4F359527958091790190919A
S1132CE07A01280F391F2450310902E010E046EC24
S1132CF051E06AE070E088E090E00E9459080E9488
S1132D002A080E944C140E94391380916E01882372
S1132D1009F44ECFF89410926E017894DF91CF911C
S1132D201F910F91FF90EF90DF90CF90BF90089587
S1132D304F925F926F927F928F929F92AF92BF92C7
S1132D40CF92DF92EF92FF920F931F93CF93DF9373
S1132D50C82E609182017091830180910A01909143
S1132D600B010E94A60ECC20B9F060917C017091F9
S1132D707D0180917E0190917F010E94A60E0F2E0D
S1132D80FCE74F2EF1E05F2EF02D0F2EFEE76F2EA5
S1132D90F1E07F2EF02D0CC00F2EF2E84F2EF1E063
S1132DA05F2EF02D0F2EFAE06F2EF1E07F2EF02D26
S1132DB0F89410926E0178940E946B0D8C2D0E94F1
S1132DC03F0F0EE210E02CE630E044E851E061E110
S1132DD070E080E190E00E94590880917E0190911A
S1132DE07F010E94950E99230CF401969595879581
S1132DF02091790130917A01820F931F9C01245014
S1132E00310902E010E042ED51E06AE070E088E050
S1132E1090E00E9459080E942A08C1E0D0E0E12C09
S1132E20F12C0F2EF3E08F2E912CF02DA12CBA2C27
S1132E306894DD24D1F869C180916F01909170018B
S1132E40009709F49AC08E0D9F1DF894109270019A
S1132E5010926F017894B4010E946F227C0199232F
S1132E600CF058C123E0E20EF11C54C16C2F8D2FDD
S1132E700E940608CF5FCA30C9F7DF5FD03811F46B
S1132E801FC0DB2DCD2DF2CF6C2F8D2F0E94060895
S1132E90CF5FCA30C9F7DF5FD03811F411C0DB2D22
S1132EA0CD2DF2CF6C2F8D2F0E940608CF5FCC332F
S1132EB0C9F7DF5FD63611F403C0DCE5C4E3F2CF13
S1132EC081E0E816F10431F122E0E216F10409F49C
S1132ED045C0E114F10409F04DC080916501909161
S1132EE0660199230CF401969595879520917901B3
S1132EF030917A01820F931F9C012450310902E022
S1132F0010E042ED51E06AE070E088E090E00E9459
S1132F10590830C02091790130917A01809165017E
S1132F2090916601280F391F235F3F4F8091630101
S1132F309091640199230CF4019695958795280F37
S1132F40391F2450310902E010E042ED51E06AE0FB
S1132F5070E088E090E00E9459080CC004E310E09F
S1132F602CE530E042ED51E06AE070E088E090E06A
S1132F700E9459080E942A08E7010E944C140E94EA
S1132F80391380916E01882309F456CFF894A092E6
S1132F906E01789481E0E816F10409F44AC022E055
S1132FA0E216F10409F494C0E114F10409F0A7C095
S1132FB0809165019091660199230CF40196959591
S1132FC087952091790130917A01820F931F9C019A
S1132FD02450310902E010E046EC51E06AE070E070
S1132FE088E090E00E9459080E942A084C2D68E16C
S1132FF070E0C3010E94C71580916501909166013C
S113300099230CF401969595879520917901309137
S11330107A01820F931F9C012450310902E010E0D1
S113302042ED51E06AE070E088E090E00E945908C7
S11330307DC02091790130917A0180916501909150
S11330406601280F391F235F3F4F809163019091E0
S1133050640199230CF4019695958795280F391FDF
S11330602450310902E010E046EC51E06AE070E0DF
S113307088E090E00E9459080E942A084C2D6CE3D5
S113308070E0C2010E94C7152091790130917A0144
S11330908091650190916601280F391F235F3F4F8E
S11330A0809163019091640199230CF401969595A4
S11330B08795280F391F2450310902E010E042EDB2
S11330C051E06AE070E088E090E00E9459082EC068
S11330D01092810110928001F8941092B200109223
S11330E0730110927401109275011092760110927E
S11330F078011092770178940E942A081AC00E94DD
S11331002A0882E0E816F104A1F080916E01811191
S11331103DCF92CEC130D10509F4C1CEC230D10524
S113312009F4CBCECD2B09F0CBCEABCE0E942A082E
S1133130ECCFDF91CF911F910F91FF90EF90DF9033
S1133140CF90BF90AF909F908F907F906F905F9043
S11331504F90089581E00E9498160895EF92FF928F
S11331600F931F93CF93DF93F89410926E0178948A
S113317080916E0181117CC0E12CFE2C80916F0145
S113318090917001009709F467C020910601309175
S11331900701820F931F9093070180930601F8940F
S11331A01092700110926F017894809106019091B1
S11331B00701181619066CF0E0910401F09105015D
S11331C0E458FF4FE4918E0F911D90930701809373
S11331D00601E0910401F0910501E458FF4F2491A8
S11331E0809106019091070130E0281739070CF00F
S11331F03DC0E4918E1B91099093070180930601D1
S113320035C06C2F8D2F0E940608CF5FCA30C9F7D6
S1133210DF5FD03811F0CF2DF4CF8CE090E00E9426
S113322037120E941511EC010E94B81099230CF476
S113323001969C01359527952C0F3D1F245031098B
S113324002E010E046EC51E06AE070E088E090E0D3
S11332500E9459080E942A080E944C140E943913A3
S113326080916E01882309F489CF02C0DE2DD3CF6B
S1133270DF91CF911F910F91FF90EF900895CF921E
S1133280DF92EF92FF920F931F93CF93DF93F89403
S113329010926E01789480916E01811182C00F2E7C
S11332A0FCE0CF2ED12CF02DE12CFE2C80916F016F
S11332B090917001009709F468C020910401309145
S11332C00501820F931F9093050180930401F894E4
S11332D01092700110926F01789480910401909182
S11332E00501B6010E946F2299232CF090930501E9
S11332F08093040105C00C9690930501809304010A
S1133300E0910401F0910501E458FF4F849190E0AD
S11333102091060130910701821793070CF03FC0FA
S1133320849190E0909307018093060138C06C2F3C
S11333308D2F0E940608CF5FCA30C9F7DF5FD038EF
S113334011F0CF2DF4CFC6010E9437120E9415113F
S1133350EC010E94B810C80FD91F0E94DD109923F8
S11333600CF40196959587959E01280F391F2450DA
S1133370310902E010E046EC51E06AE070E088E0D8
S113338090E00E9459080E942A080E944C140E944E
S1133390391380916E01882309F488CF02C0DE2D91
S11333A0D0CFDF91CF911F910F91FF90EF90DF90DD
S11333B0CF900895CF92DF92EF92FF920F931F93D5
S11333C0CF93DF93F89410926E01789480916E01FC
S11333D081117AC0E12C0F2EFEE1FF2EF02D0F2E6D
S11333E0FFE0CF2EF7E2DF2EF02D80916F01909158
S11333F07001009709F45FC020910201309103012C
S1133400820F931F9093030180930201F89410920A
S1133410700110926F0178948091020190910301E0
S113342099232CF4D0920301C092020118C0803178
S113343027E29207A4F0805197429093030180936E
S113344002010DC06C2F8D2F0E940608CF5FC83279
S1133450C9F7DF5FD03821F41E2DDC2F0DC0DE2D1F
S1133460CF2DF0CF6C2F812F0E940608CF5FC93378
S1133470C9F71F5F1A3511F0CD2FF4CF0E945710F2
S11334800E944910EC010E94251099230CF4019626
S11334909C01359527952C0F3D1F245031090EE1D1
S11334A010E046EC51E06AE070E088E090E00E94B1
S11334B059080E942A080E944C140E9439138091D2
S11334C06E01882309F491CF0E944C140E94391391
S11334D0DF91CF911F910F91FF90EF90DF90CF90EC
S11334E00895AF92BF92CF92DF92EF92FF920F9323
S11334F01F93CF93DF930E946B0D8CE090E00E94AA
S113350037120E9457100EE210E02CE630E044E837
S113351051E061E170E080E190E00E9459080E946E
S11335201511EC010E94B81099230CF401969C012A
S1133530359527952C0F3D1F2450310902E010E0EA
S113354042ED51E06AE070E088E090E00E945908A2
S11335500E942A08E12CF12CC0E0D0E0A12CBA2C66
S11335600F2EFEE1CF2EF02DDA2CF894A0926E01EE
S1133570789480916E018111D4C080916F019091F3
S11335807001009709F4C4C08E0D9F1DF894109229
S1133590700110926F01789483709078992324F4C9
S11335A001978C6F9F6F01967C0199230CF080C169
S11335B024E0E20EF11C7CC16C2F8D2F0E940608C2
S11335C0CF5FCA30C9F7DF5FD03811F42DC0DB2DCF
S11335D0CD2DF2CF6C2F8D2F0E940608CF5FCA30FD
S11335E0C9F7DF5FD03811F41FC0DB2DCD2DF2CF2A
S11335F06C2F8D2F0E940608CF5FC832C9F7DF5F9A
S1133600D03811F411C0DB2DCC2DF2CF6C2F8D2FBF
S11336100E940608CF5FCC33C9F7DF5FD83611F4B8
S113362003C0DEE5C4E3F2CF81E0E816F10449F11A
S113363024F4E114F10459F068C082E0E816F104BE
S1133640F1F123E0E216F10409F453C05EC00E94D4
S11336501511EC010E94B81099230CF401969C01F9
S1133660359527952C0F3D1F2450310902E010E0B9
S113367042ED51E06AE070E088E090E00E94590871
S113368044C00E941511EC010E94B810C80FD91F44
S11336900E94DD1099230CF401969C013595279521
S11336A02C0F3D1F2450310902E010E042ED51E09F
S11336B06AE070E088E090E00E94590826C00E9409
S11336C04910EC010E94251099230CF401969C01E9
S11336D0359527952C0F3D1F245031090EE110E03C
S11336E042ED51E06AE070E088E090E00E94590801
S11336F00CC004E310E02EE530E042ED51E06AE056
S113370070E088E090E00E9459080E942A08E701CE
S11337100E944C140E94391380916E01882309F48D
S11337202CCFF894A0926E01789481E0E816F1040D
S113373009F440C022E0E216F10409F47AC0E1146D
S1133740F10409F0ADC00E9415118C010E94B8105B
S113375099230CF401969C0135952795200F311F70
S11337602450310902E010E046EC51E06AE070E0D8
S113377088E090E00E9459080E942A080E94AE182E
S11337800E9415118C010E94B81099230CF4019623
S11337909C0135952795200F311F2450310902E0F3
S11337A010E042ED51E06AE070E088E090E00E94B1
S11337B059088FC00E9415118C010E94B810080F7F
S11337C0191F0E94DD1099230CF401969C01359574
S11337D02795200F311F2450310902E010E046ECF8
S11337E051E06AE070E088E090E00E9459080E948D
S11337F02A080E943F190E9415118C010E94B810DA
S1133800080F191F0E94DD1099230CF401969C01E6
S113381035952795200F311F2450310902E010E01F
S113382042ED51E06AE070E088E090E00E945908BF
S113383050C00E9449108C010E94251099230CF459
S113384001969C0135952795200F311F245031098D
S11338500EE110E046EC51E06AE070E088E090E0B0
S11338600E9459080E942A080E94DA190E944910ED
S11338708C010E94251099230CF401969C01359526
S11338802795200F311F245031090EE110E042ED3D
S113389051E06AE070E088E090E00E94590819C0A5
S11338A00E942A0883E0E816F10409F05ECE14C0F1
S11338B0C130D10509F499CE24F4CD2B09F487CE77
S11338C0B3CEC230D10509F49ECE239709F4A9CE14
S11338D0ABCE0E942A0849CEDF91CF911F910F9160
S11338E0FF90EF90DF90CF90BF90AF900895CF926C
S11338F0DF92EF92FF920F931F93CF93DF93CDB795
S1133900DEB7C557D1090FB6F894DEBF0FBECDBFE1
S113391010926E010E946B0D0E94C8070EE210E027
S11339202CE630E044E851E061E170E080E190E0B1
S11339300E945908BE016F5F7F4F88E191E00E94A9
S113394023112CE030E0AE014F5F5F4F60E170E087
S113395084E190E00E942B0D0E942A080E94F00A44
S11339600E94220B2FEF89E698E12150804090407D
S1133970E1F700C000000E94D20AE0E9FDE0DE01A8
S113398059969E012A583F4F84918D933196A217E0
S1133990B307D1F70E946B0D0E94C8070EE210E036
S11339A02CE630E044E851E061E170E080E190E031
S11339B00E94590804E110E020E330E0AE01475EC4
S11339C05F4F6FE170E088E190E00E945908E12CBC
S11339D0F12C6894CC24C1F8DC2CACC080916F012C
S11339E090917001E80EF91EC701817090789923B7
S11339F024F401978E6F9F6F01967C0199230CF03C
S1133A00B4C022E0E20EF11CB0C0612F8CE30E942E
S1133A1006081F5F1B30C9F702E010E02CE330E01A
S1133A2042ED51E06AE070E088E090E00E945908BD
S1133A300CE50AC0612F802F0E9406081F5F103416
S1133A40C9F70F5F0C36E1F01FE2F4CF0FE210E08C
S1133A502CE530E046EA51E060E170E080E190E07E
S1133A600E94590808E30AC0612F802F0E940608AB
S1133A701F5F1B30C9F70F5F083411F01D2DF4CF01
S1133A800E942A080E944C140E94391380916E01EE
S1133A90882309F4A3CF10926E0108E30AC0612FB2
S1133AA0802F0E9406081F5F1B30C9F70F5F083480
S1133AB011F01C2DF4CFE114F104C1F502E010E083
S1133AC02BE330E046EC51E06AE070E088E090E0FF
S1133AD00E9459080E942A0810926E0180916E017A
S1133AE0811121C00E944C1480916F01909170014A
S1133AF01816190644F481E00E943B0B10927001E1
S1133B0010926F010AC080E00E943B0B81E0809319
S1133B106D011092700110926F010E94391380910F
S1133B206E018823F9F210926E0104C081E0E81658
S1133B30F10429F080916E018111ADCF4FCF0E9425
S1133B406B0D0E94C8072CE030E0AE014F5F5F4F61
S1133B5060E170E084E190E00E942B0D0E942A084D
S1133B600E94E20A0E94F00A12C0109270011092A0
S1133B706F01E114F10409F069CF1C2D612F8BE36F
S1133B800E9406081F5F1B30C9F71C2D3ECFCB587F
S1133B90DF4F0FB6F894DEBF0FBECDBFDF91CF91DC
S1133BA01F910F91FF90EF90DF90CF9008950F93A6
S1133BB01F93CF93DF93CDB7DEB7C854D1090FB6A7
S1133BC0F894DEBF0FBECDBF0E94D20A0E94C80780
S1133BD00E946B0DEDE9FEE0DE0111969E01275B6C
S1133BE03F4F84918D933196A217B307D1F708E123
S1133BF010E027E330E0AE014F5F5F4F69E070E013
S1133C0080E190E00E9459080EE210E02CE630E0DA
S1133C1044E851E061E170E080E190E00E945908DD
S1133C200FE210E02CE530E046EA51E060E170E09C
S1133C3080E190E00E9459080E942A0880916E0158
S1133C40811108C00E944C140E94391380916E01A6
S1133C508823C1F30E94E20AC85BDF4F0FB6F894D1
S1133C60DEBF0FBECDBFDF91CF911F910F9108959D
S1133C70EF92FF920F931F93CF93DF93209108014C
S1133C8030910901C9016AE070E00E946F22FC01D1
S1133C90E856FE4FE491EE2EF12C2A3031055CF00B
S1133CA0C9016AE070E00E946F22FB01E856FE4FF2
S1133CB0E491EE0EF11CD0E019E00AC06C2F8D2FB8
S1133CC00E940608CF5FC932C9F7DF5FD03811F010
S1133CD0C12FF4CF80910801909109018A30910598
S1133CE05CF19701FF2014F42F5F3F4F3595279522
S1133CF0C0E4D0E0C21BD30B0AE010E0B8010E947C
S1133D006F22AB0169E070E0CE010E94EF0980915F
S1133D10080190910901B8010E946F22FB01E85645
S1133D20FE4F6491C60FD11DAC0169E070E0CE0175
S1133D3002960E94EF0910C09701FF2014F42F5F30
S1133D403F4F35952795AC0169E070E080E490E041
S1133D50821B930B0E94EF09DF91CF911F910F916A
S1133D60FF90EF9008952F923F924F925F926F923F
S1133D707F928F929F92AF92BF92CF92DF92EF92F7
S1133D80FF920F931F93CF93DF9300D000D000D006
S1133D90CDB7DEB710926E010E946B0D0E94C8076A
S1133DA00EE210E02CE630E044E851E061E170E01E
S1133DB080E190E00E945908C12CD12C0F2EFAE02A
S1133DC04F2E512CF02D6894EE24E1F8FE2C6894CB
S1133DD0882486F8912C0F2EF3E62F2E312CF02D0B
S1133DE00F2EF9E07F2EF02D20910801309109016A
S1133DF0C901B2010E946F22FC01E856FE4FE49112
S1133E00AE2EB12C2A30310554F0C901B2010E9402
S1133E106F22FB01E856FE4FE491AE0EB11C0E94E6
S1133E20381E80916E0181115AC080916F0190916A
S1133E307001C80ED91EC60181709078992324F4AC
S1133E4001978E6F9F6F01966C0199231CF422E0F9
S1133E50C20ED11C1092700110926F01C114D104D2
S1133E60C9F402E010E02CE330E042ED51E0B2018D
S1133E7088E090E00E9459080CE50AC0612F802F69
S1133E800E9406081F5F1034C9F70F5F0C36E1F07B
S1133E901FE2F4CF0FE210E02CE530E046EA51E0F7
S1133EA060E170E080E190E00E94590808E30AC0F4
S1133EB0612F802F0E9406081F5F1B30C9F70F5F18
S1133EC0083411F01F2DF4CF0E942A080E944C14CC
S1133ED00E94391380916E01882309F4A6CF1092B1
S1133EE06E0108E30AC0612F802F0E9406081F5F3D
S1133EF01B30C9F70F5F083411F01E2DF4CFC11425
S1133F00D10409F071C002E010E02BE330E046EC8C
S1133F1051E0B20188E090E00E9459080E942A080A
S1133F2080916E0181115DC0C50199230CF4019645
S1133F30959587955401A81AB90AFC01E05CFF4FD6
S1133F40FA83E9836A2C0B2D80916F0190917001A3
S1133F50892BD1F129813A81A216B3069CF016C0AF
S1133F60612F8D810E9406081F5F1932C9F78D8168
S1133F709E8101969E838D83E981FA818E179F0726
S1133F801CF004C06D820E83172DEACF2091080126
S1133F903091090180916F0190917001820F931FFC
S1133FA0B1010E946F2299232CF090930901809310
S1133FB0080106C08D599F4F909309018093080111
S1133FC01092700110926F010E94381E0E942A08FC
S1133FD00E944C140E94391380916E01882309F4C5
S1133FE0B3CF10926E0100CFF1E0CF16D10409F0E7
S1133FF0FBCE26960FB6F894DEBF0FBECDBFDF9181
S1134000CF911F910F91FF90EF90DF90CF90BF90D1
S1134010AF909F908F907F906F905F904F903F9064
S11340202F900895CF93DF93C1E0D0E017C00E9492
S1134030B31E14C00E94771C11C00E94D71D0EC06D
S11340400E94281306C00E942813CE0101970397EB
S113405028F081E0CD2B19F180E021C025E231E088
S11340604DE251E068E371E084E491E00E946B1159
S11340700E942A08BE0184E090E00E947515EC01BC
S113408082309105B9F22CF4009719F3019779F273
S1134090DACF8330910589F2049791F2D4CFDF917E
S11340A0CF9108951F93CF93DF93C0E0D0E011E048
S11340B024E431E04AE451E060E571E088E591E010
S11340C00E946B110E942A08BE0184E090E00E94C5
S11340D07515EC0182309105A9F02CF4009749F094
S11340E0019759F019C08330910581F0049789F044
S11340F013C00E94AA18812F15C080E00E94981650
S1134100812F10C00E94711A812F0CC00E941220AE
S113411009C00E94281308C00E942813C430D10586
S11341203CF202C08111C4CFDF91CF911F91089559
S11341302FEF89E698E1215080409040E1F700C0DC
S113414000000E946C0C0E94810C0E9487070E9450
S1134150C8070E94281378940F2EFBE5CF2EFEE0AB
S1134160DF2EF02D0F2EF6EAEF2EF1E0FF2EF02DCC
S113417006EC11E00F2EF2ED8F2EF1E09F2EF02DC4
S11341800F2EF6ECAF2EF1E0BF2EF02D0F2EFBE735
S11341906F2EFEE07F2EF02D0F2EF4E84F2EF1E06F
S11341A05F2EF02DC6EAD1E03324339480916D0163
S11341B081110E94391380916F0190917001892BB4
S11341C021F01092700110926F010E94880D8823D3
S11341D009F180917101811102C00E94F4132091B0
S11341E00A0130910B0180917E0190917F01281783
S11341F0390781F4209182013091830180917C01FF
S113420090917D012817390729F480917201811159
S11342100E94851480916E01882309F45DC00E9478
S11342207C0D1A9B5CC020E030E040EC5FE36091C1
S1134230690170916A0180916B0190916C010E94F7
S1134240F02188230CF04BC0EFE7F8E321E0E150C4
S1134250F0402040E1F700C000001A9B40C020E07D
S113426030E040EC5FE36091690170916A018091F4
S11342706B0190916C010E94F02188232CF32FC0D4
S113428084918D933196A017B107D1F79401D5018C
S113429080E090E0FC01EF5AF14F4491F901419321
S11342A09F01FC01E95BF14FE491ED9301968A30A3
S11342B0910581F7F301D20184918D933196AC1766
S11342C0BD07D1F73092710181E090E00E94522045
S11342D010926E01109271010E944C1467CF15BCAC
S11342E020E030E040EC5FE36091690170916A0185
S11342F080916B0190916C010E946A22181644F718
S1134300F601D701BDCF5058BB27AA270E949B2195
S11343100C9430220E94222238F00E94292220F09C
S113432039F49F3F19F426F40C941F220EF4E095FF
S1134330E7FB0C941922E92F0E94412258F3BA1783
S1134340620773078407950720F079F4A6F50C94A7
S113435063220EF4E0950B2EBA2FA02D0B01B901A8
S113436090010C01CA01A0011124FF27591B99F0E7
S1134370593F50F4503E68F11A16F040A22F232FF3
S1134380342F4427585FF3CF469537952795A79543
S1134390F0405395C9F77EF41F16BA0B620B730BEA
S11343A0840BBAF09150A1F0FF0FBB1F661F771F5B
S11343B0881FC2F70EC0BA0F621F731F841F48F410
S11343C0879577956795B795F7959E3F08F0B0CF99
S11343D09395880F08F09927EE0F97958795089580
S11343E00E94F52108F481E00895990F0008550F03
S11343F0AA0BE0E8FEEF16161706E807F907C0F067
S113440012161306E407F50798F0621B730B840B6E
S1134410950B39F40A2661F0232B242B252B21F448
S113442008950A2609F4A140A6958FEF811D811DE8
S1134430089597F99F6780E870E060E008959FEF22
S113444080EC089500240A94161617061806090627
S1134450089500240A9412161306140605060895F6
S1134460092E0394000C11F4882352F0BB0F40F47E
S1134470BF2B11F460FF04C06F5F7F4F8F4F9F4FBE
S1134480089557FD9058440F551F59F05F3F71F040
S11344904795880F97FB991F61F09F3F79F08795A7
S11344A00895121613061406551FF2CF4695F1DF30
S11344B008C0161617061806991FF1CF86957105C0
S11344C0610508940895E894BB2766277727CB01F4
S11344D097F908950E94F52108F48FEF089597FB4A
S11344E0072E16F4009407D077FD09D00E9483228A
S11344F007FC05D03EF4909581959F4F08957095E3
S113450061957F4F0895AA1BBB1B51E107C0AA1FE9
S1134510BB1FA617B70710F0A61BB70B881F991F60
S11345205A95A9F780959095BC01CD010895F8940A
S1054530FFCFB7
S11345321F00DF0709001E0005000E00416C6C65B8
S113454273204C6965626500426974746520776101
S11345527274656E00426F6F6D626F78004C6175A4
S1134562747374E4726B6500536E6F6F7A65646181
S1134572756572002E202E202E00446174756D0024
S11345825568727A656974005765636B7A656974F4
S1054592000023
S9030000FC
